{"abi":[{"inputs":[{"internalType":"uint256","name":"_min","type":"uint256"},{"internalType":"uint256","name":"_deadline","type":"uint256"},{"internalType":"uint256","name":"_goal","type":"uint256"},{"internalType":"address","name":"eoa","type":"address"}],"stateMutability":"nonpayable","type":"constructor"},{"anonymous":false,"inputs":[{"indexed":false,"internalType":"address","name":"_sender","type":"address"},{"indexed":false,"internalType":"uint256","name":"_value","type":"uint256"}],"name":"ContributeEvent","type":"event"},{"anonymous":false,"inputs":[{"indexed":false,"internalType":"string","name":"_description","type":"string"},{"indexed":false,"internalType":"address","name":"_recipient","type":"address"},{"indexed":false,"internalType":"uint256","name":"_value","type":"uint256"}],"name":"CreateRequestEvent","type":"event"},{"anonymous":false,"inputs":[{"indexed":false,"internalType":"address","name":"_recipient","type":"address"},{"indexed":false,"internalType":"uint256","name":"_value","type":"uint256"}],"name":"MakePaymentEvent","type":"event"},{"inputs":[{"internalType":"uint256","name":"_requestNumber","type":"uint256"}],"name":"approveRequest","outputs":[],"stateMutability":"nonpayable","type":"function"},{"inputs":[],"name":"contribute","outputs":[],"stateMutability":"payable","type":"function"},{"inputs":[{"internalType":"string","name":"_description","type":"string"},{"internalType":"uint256","name":"_value","type":"uint256"},{"internalType":"address payable","name":"_recipient","type":"address"}],"name":"createRequest","outputs":[],"stateMutability":"nonpayable","type":"function"},{"inputs":[],"name":"deadline","outputs":[{"internalType":"uint256","name":"","type":"uint256"}],"stateMutability":"view","type":"function"},{"inputs":[{"internalType":"uint256","name":"_requestNumber","type":"uint256"}],"name":"finalizeRequest","outputs":[],"stateMutability":"nonpayable","type":"function"},{"inputs":[],"name":"getBalance","outputs":[{"internalType":"uint256","name":"","type":"uint256"}],"stateMutability":"view","type":"function"},{"inputs":[],"name":"getRefund","outputs":[],"stateMutability":"nonpayable","type":"function"},{"inputs":[],"name":"getSummary","outputs":[{"internalType":"uint256","name":"","type":"uint256"},{"internalType":"uint256","name":"","type":"uint256"},{"internalType":"uint256","name":"","type":"uint256"},{"internalType":"uint256","name":"","type":"uint256"},{"internalType":"address","name":"","type":"address"}],"stateMutability":"view","type":"function"},{"inputs":[],"name":"goal","outputs":[{"internalType":"uint256","name":"","type":"uint256"}],"stateMutability":"view","type":"function"},{"inputs":[],"name":"manager","outputs":[{"internalType":"address","name":"","type":"address"}],"stateMutability":"view","type":"function"},{"inputs":[],"name":"minimumContribution","outputs":[{"internalType":"uint256","name":"","type":"uint256"}],"stateMutability":"view","type":"function"},{"inputs":[],"name":"numRequests","outputs":[{"internalType":"uint256","name":"","type":"uint256"}],"stateMutability":"view","type":"function"},{"inputs":[],"name":"numberOfContributors","outputs":[{"internalType":"uint256","name":"","type":"uint256"}],"stateMutability":"view","type":"function"},{"inputs":[{"internalType":"address","name":"","type":"address"}],"name":"participants","outputs":[{"internalType":"uint256","name":"","type":"uint256"}],"stateMutability":"view","type":"function"},{"inputs":[],"name":"raisedAmount","outputs":[{"internalType":"uint256","name":"","type":"uint256"}],"stateMutability":"view","type":"function"},{"inputs":[{"internalType":"uint256","name":"","type":"uint256"}],"name":"requests","outputs":[{"internalType":"string","name":"description","type":"string"},{"internalType":"uint256","name":"value","type":"uint256"},{"internalType":"address payable","name":"recipient","type":"address"},{"internalType":"bool","name":"complete","type":"bool"},{"internalType":"uint256","name":"numberOfVoters","type":"uint256"}],"stateMutability":"view","type":"function"},{"stateMutability":"payable","type":"receive"}],"devdoc":{"kind":"dev","methods":{},"version":1},"evm":{"assembly":"    /* \"Campaign.sol\":954:5678  contract Campaign {... */\n  mstore(0x40, 0x80)\n    /* \"Campaign.sol\":2111:2302  constructor(uint _min, uint _deadline, uint _goal, address eoa) {... */\n  callvalue\n  dup1\n  iszero\n  tag_1\n  jumpi\n  0x00\n  dup1\n  revert\ntag_1:\n  pop\n  mload(0x40)\n  sub(codesize, bytecodeSize)\n  dup1\n  bytecodeSize\n  dup4\n  codecopy\n  dup2\n  dup2\n  add\n  0x40\n  mstore\n  dup2\n  add\n  swap1\n  tag_2\n  swap2\n  swap1\n  tag_3\n  jump\t// in\ntag_2:\n    /* \"Campaign.sol\":2195:2198  eoa */\n  dup1\n    /* \"Campaign.sol\":2185:2192  manager */\n  0x00\n  dup1\n    /* \"Campaign.sol\":2185:2198  manager = eoa */\n  0x0100\n  exp\n  dup2\n  sload\n  dup2\n  0xffffffffffffffffffffffffffffffffffffffff\n  mul\n  not\n  and\n  swap1\n  dup4\n  0xffffffffffffffffffffffffffffffffffffffff\n  and\n  mul\n  or\n  swap1\n  sstore\n  pop\n    /* \"Campaign.sol\":2230:2234  _min */\n  dup4\n    /* \"Campaign.sol\":2208:2227  minimumContribution */\n  0x01\n    /* \"Campaign.sol\":2208:2234  minimumContribution = _min */\n  dup2\n  swap1\n  sstore\n  pop\n    /* \"Campaign.sol\":2251:2256  _goal */\n  dup2\n    /* \"Campaign.sol\":2244:2248  goal */\n  0x02\n    /* \"Campaign.sol\":2244:2256  goal = _goal */\n  dup2\n  swap1\n  sstore\n  pop\n    /* \"Campaign.sol\":2277:2286  _deadline */\n  dup3\n    /* \"Campaign.sol\":2266:2274  deadline */\n  0x05\n    /* \"Campaign.sol\":2266:2286  deadline = _deadline */\n  dup2\n  swap1\n  sstore\n  pop\n    /* \"Campaign.sol\":2111:2302  constructor(uint _min, uint _deadline, uint _goal, address eoa) {... */\n  pop\n  pop\n  pop\n  pop\n    /* \"Campaign.sol\":954:5678  contract Campaign {... */\n  jump(tag_6)\n    /* \"#utility.yul\":88:205   */\ntag_8:\n    /* \"#utility.yul\":197:198   */\n  0x00\n    /* \"#utility.yul\":194:195   */\n  dup1\n    /* \"#utility.yul\":187:199   */\n  revert\n    /* \"#utility.yul\":334:411   */\ntag_10:\n    /* \"#utility.yul\":371:378   */\n  0x00\n    /* \"#utility.yul\":400:405   */\n  dup2\n    /* \"#utility.yul\":389:405   */\n  swap1\n  pop\n    /* \"#utility.yul\":334:411   */\n  swap2\n  swap1\n  pop\n  jump\t// out\n    /* \"#utility.yul\":417:539   */\ntag_11:\n    /* \"#utility.yul\":490:514   */\n  tag_23\n    /* \"#utility.yul\":508:513   */\n  dup2\n    /* \"#utility.yul\":490:514   */\n  tag_10\n  jump\t// in\ntag_23:\n    /* \"#utility.yul\":483:488   */\n  dup2\n    /* \"#utility.yul\":480:515   */\n  eq\n    /* \"#utility.yul\":470:533   */\n  tag_24\n  jumpi\n    /* \"#utility.yul\":529:530   */\n  0x00\n    /* \"#utility.yul\":526:527   */\n  dup1\n    /* \"#utility.yul\":519:531   */\n  revert\n    /* \"#utility.yul\":470:533   */\ntag_24:\n    /* \"#utility.yul\":417:539   */\n  pop\n  jump\t// out\n    /* \"#utility.yul\":545:688   */\ntag_12:\n    /* \"#utility.yul\":602:607   */\n  0x00\n    /* \"#utility.yul\":633:639   */\n  dup2\n    /* \"#utility.yul\":627:640   */\n  mload\n    /* \"#utility.yul\":618:640   */\n  swap1\n  pop\n    /* \"#utility.yul\":649:682   */\n  tag_26\n    /* \"#utility.yul\":676:681   */\n  dup2\n    /* \"#utility.yul\":649:682   */\n  tag_11\n  jump\t// in\ntag_26:\n    /* \"#utility.yul\":545:688   */\n  swap3\n  swap2\n  pop\n  pop\n  jump\t// out\n    /* \"#utility.yul\":694:820   */\ntag_13:\n    /* \"#utility.yul\":731:738   */\n  0x00\n    /* \"#utility.yul\":771:813   */\n  0xffffffffffffffffffffffffffffffffffffffff\n    /* \"#utility.yul\":764:769   */\n  dup3\n    /* \"#utility.yul\":760:814   */\n  and\n    /* \"#utility.yul\":749:814   */\n  swap1\n  pop\n    /* \"#utility.yul\":694:820   */\n  swap2\n  swap1\n  pop\n  jump\t// out\n    /* \"#utility.yul\":826:922   */\ntag_14:\n    /* \"#utility.yul\":863:870   */\n  0x00\n    /* \"#utility.yul\":892:916   */\n  tag_29\n    /* \"#utility.yul\":910:915   */\n  dup3\n    /* \"#utility.yul\":892:916   */\n  tag_13\n  jump\t// in\ntag_29:\n    /* \"#utility.yul\":881:916   */\n  swap1\n  pop\n    /* \"#utility.yul\":826:922   */\n  swap2\n  swap1\n  pop\n  jump\t// out\n    /* \"#utility.yul\":928:1050   */\ntag_15:\n    /* \"#utility.yul\":1001:1025   */\n  tag_31\n    /* \"#utility.yul\":1019:1024   */\n  dup2\n    /* \"#utility.yul\":1001:1025   */\n  tag_14\n  jump\t// in\ntag_31:\n    /* \"#utility.yul\":994:999   */\n  dup2\n    /* \"#utility.yul\":991:1026   */\n  eq\n    /* \"#utility.yul\":981:1044   */\n  tag_32\n  jumpi\n    /* \"#utility.yul\":1040:1041   */\n  0x00\n    /* \"#utility.yul\":1037:1038   */\n  dup1\n    /* \"#utility.yul\":1030:1042   */\n  revert\n    /* \"#utility.yul\":981:1044   */\ntag_32:\n    /* \"#utility.yul\":928:1050   */\n  pop\n  jump\t// out\n    /* \"#utility.yul\":1056:1199   */\ntag_16:\n    /* \"#utility.yul\":1113:1118   */\n  0x00\n    /* \"#utility.yul\":1144:1150   */\n  dup2\n    /* \"#utility.yul\":1138:1151   */\n  mload\n    /* \"#utility.yul\":1129:1151   */\n  swap1\n  pop\n    /* \"#utility.yul\":1160:1193   */\n  tag_34\n    /* \"#utility.yul\":1187:1192   */\n  dup2\n    /* \"#utility.yul\":1160:1193   */\n  tag_15\n  jump\t// in\ntag_34:\n    /* \"#utility.yul\":1056:1199   */\n  swap3\n  swap2\n  pop\n  pop\n  jump\t// out\n    /* \"#utility.yul\":1205:2025   */\ntag_3:\n    /* \"#utility.yul\":1302:1308   */\n  0x00\n    /* \"#utility.yul\":1310:1316   */\n  dup1\n    /* \"#utility.yul\":1318:1324   */\n  0x00\n    /* \"#utility.yul\":1326:1332   */\n  dup1\n    /* \"#utility.yul\":1375:1378   */\n  0x80\n    /* \"#utility.yul\":1363:1372   */\n  dup6\n    /* \"#utility.yul\":1354:1361   */\n  dup8\n    /* \"#utility.yul\":1350:1373   */\n  sub\n    /* \"#utility.yul\":1346:1379   */\n  slt\n    /* \"#utility.yul\":1343:1463   */\n  iszero\n  tag_36\n  jumpi\n    /* \"#utility.yul\":1382:1461   */\n  tag_37\n  tag_8\n  jump\t// in\ntag_37:\n    /* \"#utility.yul\":1343:1463   */\ntag_36:\n    /* \"#utility.yul\":1502:1503   */\n  0x00\n    /* \"#utility.yul\":1527:1591   */\n  tag_38\n    /* \"#utility.yul\":1583:1590   */\n  dup8\n    /* \"#utility.yul\":1574:1580   */\n  dup3\n    /* \"#utility.yul\":1563:1572   */\n  dup9\n    /* \"#utility.yul\":1559:1581   */\n  add\n    /* \"#utility.yul\":1527:1591   */\n  tag_12\n  jump\t// in\ntag_38:\n    /* \"#utility.yul\":1517:1591   */\n  swap5\n  pop\n    /* \"#utility.yul\":1473:1601   */\n  pop\n    /* \"#utility.yul\":1640:1642   */\n  0x20\n    /* \"#utility.yul\":1666:1730   */\n  tag_39\n    /* \"#utility.yul\":1722:1729   */\n  dup8\n    /* \"#utility.yul\":1713:1719   */\n  dup3\n    /* \"#utility.yul\":1702:1711   */\n  dup9\n    /* \"#utility.yul\":1698:1720   */\n  add\n    /* \"#utility.yul\":1666:1730   */\n  tag_12\n  jump\t// in\ntag_39:\n    /* \"#utility.yul\":1656:1730   */\n  swap4\n  pop\n    /* \"#utility.yul\":1611:1740   */\n  pop\n    /* \"#utility.yul\":1779:1781   */\n  0x40\n    /* \"#utility.yul\":1805:1869   */\n  tag_40\n    /* \"#utility.yul\":1861:1868   */\n  dup8\n    /* \"#utility.yul\":1852:1858   */\n  dup3\n    /* \"#utility.yul\":1841:1850   */\n  dup9\n    /* \"#utility.yul\":1837:1859   */\n  add\n    /* \"#utility.yul\":1805:1869   */\n  tag_12\n  jump\t// in\ntag_40:\n    /* \"#utility.yul\":1795:1869   */\n  swap3\n  pop\n    /* \"#utility.yul\":1750:1879   */\n  pop\n    /* \"#utility.yul\":1918:1920   */\n  0x60\n    /* \"#utility.yul\":1944:2008   */\n  tag_41\n    /* \"#utility.yul\":2000:2007   */\n  dup8\n    /* \"#utility.yul\":1991:1997   */\n  dup3\n    /* \"#utility.yul\":1980:1989   */\n  dup9\n    /* \"#utility.yul\":1976:1998   */\n  add\n    /* \"#utility.yul\":1944:2008   */\n  tag_16\n  jump\t// in\ntag_41:\n    /* \"#utility.yul\":1934:2008   */\n  swap2\n  pop\n    /* \"#utility.yul\":1889:2018   */\n  pop\n    /* \"#utility.yul\":1205:2025   */\n  swap3\n  swap6\n  swap2\n  swap5\n  pop\n  swap3\n  pop\n  jump\t// out\n    /* \"Campaign.sol\":954:5678  contract Campaign {... */\ntag_6:\n  dataSize(sub_0)\n  dup1\n  dataOffset(sub_0)\n  0x00\n  codecopy\n  0x00\n  return\nstop\n\nsub_0: assembly {\n        /* \"Campaign.sol\":954:5678  contract Campaign {... */\n      mstore(0x40, 0x80)\n      jumpi(tag_1, lt(calldatasize, 0x04))\n      shr(0xe0, calldataload(0x00))\n      dup1\n      0x81d12c58\n      gt\n      tag_19\n      jumpi\n      dup1\n      0xb2d5ae44\n      gt\n      tag_20\n      jumpi\n      dup1\n      0xb2d5ae44\n      eq\n      tag_15\n      jumpi\n      dup1\n      0xc59ee1dc\n      eq\n      tag_16\n      jumpi\n      dup1\n      0xd7bb99ba\n      eq\n      tag_17\n      jumpi\n      dup1\n      0xd7d1bbdb\n      eq\n      tag_18\n      jumpi\n      jump(tag_2)\n    tag_20:\n      dup1\n      0x81d12c58\n      eq\n      tag_11\n      jumpi\n      dup1\n      0x8a9cfd55\n      eq\n      tag_12\n      jumpi\n      dup1\n      0x937e09b1\n      eq\n      tag_13\n      jumpi\n      dup1\n      0x9fb42b1f\n      eq\n      tag_14\n      jumpi\n      jump(tag_2)\n    tag_19:\n      dup1\n      0x40193883\n      gt\n      tag_21\n      jumpi\n      dup1\n      0x40193883\n      eq\n      tag_7\n      jumpi\n      dup1\n      0x4051ddac\n      eq\n      tag_8\n      jumpi\n      dup1\n      0x4377cf65\n      eq\n      tag_9\n      jumpi\n      dup1\n      0x481c6a75\n      eq\n      tag_10\n      jumpi\n      jump(tag_2)\n    tag_21:\n      dup1\n      0x03441006\n      eq\n      tag_3\n      jumpi\n      dup1\n      0x09e69ede\n      eq\n      tag_4\n      jumpi\n      dup1\n      0x12065fe0\n      eq\n      tag_5\n      jumpi\n      dup1\n      0x29dcb0cf\n      eq\n      tag_6\n      jumpi\n      jump(tag_2)\n    tag_1:\n      jumpi(tag_2, calldatasize)\n        /* \"Campaign.sol\":2345:2357  contribute() */\n      tag_24\n        /* \"Campaign.sol\":2345:2355  contribute */\n      tag_25\n        /* \"Campaign.sol\":2345:2357  contribute() */\n      jump\t// in\n    tag_24:\n        /* \"Campaign.sol\":954:5678  contract Campaign {... */\n      stop\n    tag_2:\n      0x00\n      dup1\n      revert\n        /* \"Campaign.sol\":4035:4839  function finalizeRequest(uint _requestNumber) public onlyManager {... */\n    tag_3:\n      callvalue\n      dup1\n      iszero\n      tag_26\n      jumpi\n      0x00\n      dup1\n      revert\n    tag_26:\n      pop\n      tag_27\n      0x04\n      dup1\n      calldatasize\n      sub\n      dup2\n      add\n      swap1\n      tag_28\n      swap2\n      swap1\n      tag_29\n      jump\t// in\n    tag_28:\n      tag_30\n      jump\t// in\n    tag_27:\n      stop\n        /* \"Campaign.sol\":1442:1486  mapping(address => uint) public participants */\n    tag_4:\n      callvalue\n      dup1\n      iszero\n      tag_31\n      jumpi\n      0x00\n      dup1\n      revert\n    tag_31:\n      pop\n      tag_32\n      0x04\n      dup1\n      calldatasize\n      sub\n      dup2\n      add\n      swap1\n      tag_33\n      swap2\n      swap1\n      tag_34\n      jump\t// in\n    tag_33:\n      tag_35\n      jump\t// in\n    tag_32:\n      mload(0x40)\n      tag_36\n      swap2\n      swap1\n      tag_37\n      jump\t// in\n    tag_36:\n      mload(0x40)\n      dup1\n      swap2\n      sub\n      swap1\n      return\n        /* \"Campaign.sol\":2370:2463  function getBalance() public view returns(uint) {... */\n    tag_5:\n      callvalue\n      dup1\n      iszero\n      tag_38\n      jumpi\n      0x00\n      dup1\n      revert\n    tag_38:\n      pop\n      tag_39\n      tag_40\n      jump\t// in\n    tag_39:\n      mload(0x40)\n      tag_41\n      swap2\n      swap1\n      tag_37\n      jump\t// in\n    tag_41:\n      mload(0x40)\n      dup1\n      swap2\n      sub\n      swap1\n      return\n        /* \"Campaign.sol\":1133:1153  uint public deadline */\n    tag_6:\n      callvalue\n      dup1\n      iszero\n      tag_42\n      jumpi\n      0x00\n      dup1\n      revert\n    tag_42:\n      pop\n      tag_43\n      tag_44\n      jump\t// in\n    tag_43:\n      mload(0x40)\n      tag_45\n      swap2\n      swap1\n      tag_37\n      jump\t// in\n    tag_45:\n      mload(0x40)\n      dup1\n      swap2\n      sub\n      swap1\n      return\n        /* \"Campaign.sol\":1043:1059  uint public goal */\n    tag_7:\n      callvalue\n      dup1\n      iszero\n      tag_46\n      jumpi\n      0x00\n      dup1\n      revert\n    tag_46:\n      pop\n      tag_47\n      tag_48\n      jump\t// in\n    tag_47:\n      mload(0x40)\n      tag_49\n      swap2\n      swap1\n      tag_37\n      jump\t// in\n    tag_49:\n      mload(0x40)\n      dup1\n      swap2\n      sub\n      swap1\n      return\n        /* \"Campaign.sol\":5451:5676  function getSummary() public view returns(uint, uint, uint, uint, address) {... */\n    tag_8:\n      callvalue\n      dup1\n      iszero\n      tag_50\n      jumpi\n      0x00\n      dup1\n      revert\n    tag_50:\n      pop\n      tag_51\n      tag_52\n      jump\t// in\n    tag_51:\n      mload(0x40)\n      tag_53\n      swap6\n      swap5\n      swap4\n      swap3\n      swap2\n      swap1\n      tag_54\n      jump\t// in\n    tag_53:\n      mload(0x40)\n      dup1\n      swap2\n      sub\n      swap1\n      return\n        /* \"Campaign.sol\":1095:1127  uint public numberOfContributors */\n    tag_9:\n      callvalue\n      dup1\n      iszero\n      tag_55\n      jumpi\n      0x00\n      dup1\n      revert\n    tag_55:\n      pop\n      tag_56\n      tag_57\n      jump\t// in\n    tag_56:\n      mload(0x40)\n      tag_58\n      swap2\n      swap1\n      tag_37\n      jump\t// in\n    tag_58:\n      mload(0x40)\n      dup1\n      swap2\n      sub\n      swap1\n      return\n        /* \"Campaign.sol\":978:1000  address public manager */\n    tag_10:\n      callvalue\n      dup1\n      iszero\n      tag_59\n      jumpi\n      0x00\n      dup1\n      revert\n    tag_59:\n      pop\n      tag_60\n      tag_61\n      jump\t// in\n    tag_60:\n      mload(0x40)\n      tag_62\n      swap2\n      swap1\n      tag_63\n      jump\t// in\n    tag_62:\n      mload(0x40)\n      dup1\n      swap2\n      sub\n      swap1\n      return\n        /* \"Campaign.sol\":1492:1532  mapping(uint => Request) public requests */\n    tag_11:\n      callvalue\n      dup1\n      iszero\n      tag_64\n      jumpi\n      0x00\n      dup1\n      revert\n    tag_64:\n      pop\n      tag_65\n      0x04\n      dup1\n      calldatasize\n      sub\n      dup2\n      add\n      swap1\n      tag_66\n      swap2\n      swap1\n      tag_29\n      jump\t// in\n    tag_66:\n      tag_67\n      jump\t// in\n    tag_65:\n      mload(0x40)\n      tag_68\n      swap6\n      swap5\n      swap4\n      swap3\n      swap2\n      swap1\n      tag_69\n      jump\t// in\n    tag_68:\n      mload(0x40)\n      dup1\n      swap2\n      sub\n      swap1\n      return\n        /* \"Campaign.sol\":2877:3357  function createRequest(string memory _description, uint _value, address payable _recipient) public onlyManager {... */\n    tag_12:\n      callvalue\n      dup1\n      iszero\n      tag_70\n      jumpi\n      0x00\n      dup1\n      revert\n    tag_70:\n      pop\n      tag_71\n      0x04\n      dup1\n      calldatasize\n      sub\n      dup2\n      add\n      swap1\n      tag_72\n      swap2\n      swap1\n      tag_73\n      jump\t// in\n    tag_72:\n      tag_74\n      jump\t// in\n    tag_71:\n      stop\n        /* \"Campaign.sol\":1006:1037  uint public minimumContribution */\n    tag_13:\n      callvalue\n      dup1\n      iszero\n      tag_75\n      jumpi\n      0x00\n      dup1\n      revert\n    tag_75:\n      pop\n      tag_76\n      tag_77\n      jump\t// in\n    tag_76:\n      mload(0x40)\n      tag_78\n      swap2\n      swap1\n      tag_37\n      jump\t// in\n    tag_78:\n      mload(0x40)\n      dup1\n      swap2\n      sub\n      swap1\n      return\n        /* \"Campaign.sol\":1172:1195  uint public numRequests */\n    tag_14:\n      callvalue\n      dup1\n      iszero\n      tag_79\n      jumpi\n      0x00\n      dup1\n      revert\n    tag_79:\n      pop\n      tag_80\n      tag_81\n      jump\t// in\n    tag_80:\n      mload(0x40)\n      tag_82\n      swap2\n      swap1\n      tag_37\n      jump\t// in\n    tag_82:\n      mload(0x40)\n      dup1\n      swap2\n      sub\n      swap1\n      return\n        /* \"Campaign.sol\":4899:5445  function getRefund() public deadlinePassed {... */\n    tag_15:\n      callvalue\n      dup1\n      iszero\n      tag_83\n      jumpi\n      0x00\n      dup1\n      revert\n    tag_83:\n      pop\n      tag_84\n      tag_85\n      jump\t// in\n    tag_84:\n      stop\n        /* \"Campaign.sol\":1065:1089  uint public raisedAmount */\n    tag_16:\n      callvalue\n      dup1\n      iszero\n      tag_86\n      jumpi\n      0x00\n      dup1\n      revert\n    tag_86:\n      pop\n      tag_87\n      tag_88\n      jump\t// in\n    tag_87:\n      mload(0x40)\n      tag_89\n      swap2\n      swap1\n      tag_37\n      jump\t// in\n    tag_89:\n      mload(0x40)\n      dup1\n      swap2\n      sub\n      swap1\n      return\n        /* \"Campaign.sol\":2469:2871  function contribute() public payable minContribution {... */\n    tag_17:\n      tag_90\n      tag_25\n      jump\t// in\n    tag_90:\n      stop\n        /* \"Campaign.sol\":3363:4029  function approveRequest(uint _requestNumber) public {... */\n    tag_18:\n      callvalue\n      dup1\n      iszero\n      tag_91\n      jumpi\n      0x00\n      dup1\n      revert\n    tag_91:\n      pop\n      tag_92\n      0x04\n      dup1\n      calldatasize\n      sub\n      dup2\n      add\n      swap1\n      tag_93\n      swap2\n      swap1\n      tag_29\n      jump\t// in\n    tag_93:\n      tag_94\n      jump\t// in\n    tag_92:\n      stop\n        /* \"Campaign.sol\":2469:2871  function contribute() public payable minContribution {... */\n    tag_25:\n        /* \"Campaign.sol\":1596:1615  minimumContribution */\n      sload(0x01)\n        /* \"Campaign.sol\":1584:1593  msg.value */\n      callvalue\n        /* \"Campaign.sol\":1584:1615  msg.value > minimumContribution */\n      gt\n        /* \"Campaign.sol\":1576:1651  require(msg.value > minimumContribution, \"You should enter the min value!\") */\n      tag_96\n      jumpi\n      mload(0x40)\n      0x08c379a000000000000000000000000000000000000000000000000000000000\n      dup2\n      mstore\n      0x04\n      add\n      tag_97\n      swap1\n      tag_98\n      jump\t// in\n    tag_97:\n      mload(0x40)\n      dup1\n      swap2\n      sub\n      swap1\n      revert\n    tag_96:\n        /* \"Campaign.sol\":2622:2623  0 */\n      0x00\n        /* \"Campaign.sol\":2594:2606  participants */\n      0x07\n        /* \"Campaign.sol\":2594:2618  participants[msg.sender] */\n      0x00\n        /* \"Campaign.sol\":2607:2617  msg.sender */\n      caller\n        /* \"Campaign.sol\":2594:2618  participants[msg.sender] */\n      0xffffffffffffffffffffffffffffffffffffffff\n      and\n      0xffffffffffffffffffffffffffffffffffffffff\n      and\n      dup2\n      mstore\n      0x20\n      add\n      swap1\n      dup2\n      mstore\n      0x20\n      add\n      0x00\n      keccak256\n      sload\n        /* \"Campaign.sol\":2594:2623  participants[msg.sender] == 0 */\n      sub\n        /* \"Campaign.sol\":2591:2672  if(participants[msg.sender] == 0) {... */\n      tag_100\n      jumpi\n        /* \"Campaign.sol\":2639:2659  numberOfContributors */\n      0x04\n      0x00\n        /* \"Campaign.sol\":2639:2661  numberOfContributors++ */\n      dup2\n      sload\n      dup1\n      swap3\n      swap2\n      swap1\n      tag_101\n      swap1\n      tag_102\n      jump\t// in\n    tag_101:\n      swap2\n      swap1\n      pop\n      sstore\n      pop\n        /* \"Campaign.sol\":2591:2672  if(participants[msg.sender] == 0) {... */\n    tag_100:\n        /* \"Campaign.sol\":2767:2776  msg.value */\n      callvalue\n        /* \"Campaign.sol\":2739:2751  participants */\n      0x07\n        /* \"Campaign.sol\":2739:2763  participants[msg.sender] */\n      0x00\n        /* \"Campaign.sol\":2752:2762  msg.sender */\n      caller\n        /* \"Campaign.sol\":2739:2763  participants[msg.sender] */\n      0xffffffffffffffffffffffffffffffffffffffff\n      and\n      0xffffffffffffffffffffffffffffffffffffffff\n      and\n      dup2\n      mstore\n      0x20\n      add\n      swap1\n      dup2\n      mstore\n      0x20\n      add\n      0x00\n      keccak256\n      0x00\n        /* \"Campaign.sol\":2739:2776  participants[msg.sender] += msg.value */\n      dup3\n      dup3\n      sload\n      tag_103\n      swap2\n      swap1\n      tag_104\n      jump\t// in\n    tag_103:\n      swap3\n      pop\n      pop\n      dup2\n      swap1\n      sstore\n      pop\n        /* \"Campaign.sol\":2802:2811  msg.value */\n      callvalue\n        /* \"Campaign.sol\":2786:2798  raisedAmount */\n      0x03\n      0x00\n        /* \"Campaign.sol\":2786:2811  raisedAmount += msg.value */\n      dup3\n      dup3\n      sload\n      tag_105\n      swap2\n      swap1\n      tag_104\n      jump\t// in\n    tag_105:\n      swap3\n      pop\n      pop\n      dup2\n      swap1\n      sstore\n      pop\n        /* \"Campaign.sol\":2826:2864  ContributeEvent(msg.sender, msg.value) */\n      0x2daf61dec57a2c194e9e87958b1a40a5c236b5e8c6041655d664ddbd16c29320\n        /* \"Campaign.sol\":2842:2852  msg.sender */\n      caller\n        /* \"Campaign.sol\":2854:2863  msg.value */\n      callvalue\n        /* \"Campaign.sol\":2826:2864  ContributeEvent(msg.sender, msg.value) */\n      mload(0x40)\n      tag_106\n      swap3\n      swap2\n      swap1\n      tag_107\n      jump\t// in\n    tag_106:\n      mload(0x40)\n      dup1\n      swap2\n      sub\n      swap1\n      log1\n        /* \"Campaign.sol\":2469:2871  function contribute() public payable minContribution {... */\n      jump\t// out\n        /* \"Campaign.sol\":4035:4839  function finalizeRequest(uint _requestNumber) public onlyManager {... */\n    tag_30:\n        /* \"Campaign.sol\":1726:1736  msg.sender */\n      caller\n        /* \"Campaign.sol\":1715:1736  manager == msg.sender */\n      0xffffffffffffffffffffffffffffffffffffffff\n      and\n        /* \"Campaign.sol\":1715:1722  manager */\n      0x00\n      dup1\n      sload\n      swap1\n      0x0100\n      exp\n      swap1\n      div\n      0xffffffffffffffffffffffffffffffffffffffff\n      and\n        /* \"Campaign.sol\":1715:1736  manager == msg.sender */\n      0xffffffffffffffffffffffffffffffffffffffff\n      and\n      eq\n        /* \"Campaign.sol\":1707:1765  require(manager == msg.sender, \"You are not the manager.\") */\n      tag_109\n      jumpi\n      mload(0x40)\n      0x08c379a000000000000000000000000000000000000000000000000000000000\n      dup2\n      mstore\n      0x04\n      add\n      tag_110\n      swap1\n      tag_111\n      jump\t// in\n    tag_110:\n      mload(0x40)\n      dup1\n      swap2\n      sub\n      swap1\n      revert\n    tag_109:\n        /* \"Campaign.sol\":4161:4165  goal */\n      sload(0x02)\n        /* \"Campaign.sol\":4145:4157  raisedAmount */\n      sload(0x03)\n        /* \"Campaign.sol\":4145:4165  raisedAmount >= goal */\n      lt\n      iszero\n        /* \"Campaign.sol\":4137:4193  require(raisedAmount >= goal, \"We don't reach the goal\") */\n      tag_113\n      jumpi\n      mload(0x40)\n      0x08c379a000000000000000000000000000000000000000000000000000000000\n      dup2\n      mstore\n      0x04\n      add\n      tag_114\n      swap1\n      tag_115\n      jump\t// in\n    tag_114:\n      mload(0x40)\n      dup1\n      swap2\n      sub\n      swap1\n      revert\n    tag_113:\n        /* \"Campaign.sol\":4269:4296  Request storage thisRequest */\n      0x00\n        /* \"Campaign.sol\":4299:4307  requests */\n      0x08\n        /* \"Campaign.sol\":4299:4323  requests[_requestNumber] */\n      0x00\n        /* \"Campaign.sol\":4308:4322  _requestNumber */\n      dup4\n        /* \"Campaign.sol\":4299:4323  requests[_requestNumber] */\n      dup2\n      mstore\n      0x20\n      add\n      swap1\n      dup2\n      mstore\n      0x20\n      add\n      0x00\n      keccak256\n        /* \"Campaign.sol\":4269:4323  Request storage thisRequest = requests[_requestNumber] */\n      swap1\n      pop\n        /* \"Campaign.sol\":4380:4391  thisRequest */\n      dup1\n        /* \"Campaign.sol\":4380:4400  thisRequest.complete */\n      0x02\n      add\n      0x14\n      swap1\n      sload\n      swap1\n      0x0100\n      exp\n      swap1\n      div\n      0xff\n      and\n        /* \"Campaign.sol\":4379:4400  !thisRequest.complete */\n      iszero\n        /* \"Campaign.sol\":4371:4437  require(!thisRequest.complete, \"This request is already complete\") */\n      tag_116\n      jumpi\n      mload(0x40)\n      0x08c379a000000000000000000000000000000000000000000000000000000000\n      dup2\n      mstore\n      0x04\n      add\n      tag_117\n      swap1\n      tag_118\n      jump\t// in\n    tag_117:\n      mload(0x40)\n      dup1\n      swap2\n      sub\n      swap1\n      revert\n    tag_116:\n        /* \"Campaign.sol\":4558:4559  2 */\n      0x02\n        /* \"Campaign.sol\":4535:4555  numberOfContributors */\n      sload(0x04)\n        /* \"Campaign.sol\":4535:4559  numberOfContributors / 2 */\n      tag_119\n      swap2\n      swap1\n      tag_120\n      jump\t// in\n    tag_119:\n        /* \"Campaign.sol\":4506:4517  thisRequest */\n      dup2\n        /* \"Campaign.sol\":4506:4532  thisRequest.numberOfVoters */\n      0x03\n      add\n      sload\n        /* \"Campaign.sol\":4506:4559  thisRequest.numberOfVoters > numberOfContributors / 2 */\n      gt\n        /* \"Campaign.sol\":4498:4595  require(thisRequest.numberOfVoters > numberOfContributors / 2, \"Not suficient number of voters!\") */\n      tag_121\n      jumpi\n      mload(0x40)\n      0x08c379a000000000000000000000000000000000000000000000000000000000\n      dup2\n      mstore\n      0x04\n      add\n      tag_122\n      swap1\n      tag_123\n      jump\t// in\n    tag_122:\n      mload(0x40)\n      dup1\n      swap2\n      sub\n      swap1\n      revert\n    tag_121:\n        /* \"Campaign.sol\":4637:4648  thisRequest */\n      dup1\n        /* \"Campaign.sol\":4637:4658  thisRequest.recipient */\n      0x02\n      add\n      0x00\n      swap1\n      sload\n      swap1\n      0x0100\n      exp\n      swap1\n      div\n      0xffffffffffffffffffffffffffffffffffffffff\n      and\n        /* \"Campaign.sol\":4637:4667  thisRequest.recipient.transfer */\n      0xffffffffffffffffffffffffffffffffffffffff\n      and\n        /* \"Campaign.sol\":4637:4686  thisRequest.recipient.transfer(thisRequest.value) */\n      0x08fc\n        /* \"Campaign.sol\":4668:4679  thisRequest */\n      dup3\n        /* \"Campaign.sol\":4668:4685  thisRequest.value */\n      0x01\n      add\n      sload\n        /* \"Campaign.sol\":4637:4686  thisRequest.recipient.transfer(thisRequest.value) */\n      swap1\n      dup2\n      iszero\n      mul\n      swap1\n      mload(0x40)\n      0x00\n      mload(0x40)\n      dup1\n      dup4\n      sub\n      dup2\n      dup6\n      dup9\n      dup9\n      call\n      swap4\n      pop\n      pop\n      pop\n      pop\n      iszero\n      dup1\n      iszero\n      tag_125\n      jumpi\n      returndatasize\n      0x00\n      dup1\n      returndatacopy\n      revert(0x00, returndatasize)\n    tag_125:\n      pop\n        /* \"Campaign.sol\":4754:4758  true */\n      0x01\n        /* \"Campaign.sol\":4731:4742  thisRequest */\n      dup2\n        /* \"Campaign.sol\":4731:4751  thisRequest.complete */\n      0x02\n      add\n      0x14\n        /* \"Campaign.sol\":4731:4758  thisRequest.complete = true */\n      0x0100\n      exp\n      dup2\n      sload\n      dup2\n      0xff\n      mul\n      not\n      and\n      swap1\n      dup4\n      iszero\n      iszero\n      mul\n      or\n      swap1\n      sstore\n      pop\n        /* \"Campaign.sol\":4774:4832  MakePaymentEvent(thisRequest.recipient, thisRequest.value) */\n      0x516e1673e5e85c44620165259173329adda2ad25e7bb15020c732be060b5b790\n        /* \"Campaign.sol\":4791:4802  thisRequest */\n      dup2\n        /* \"Campaign.sol\":4791:4812  thisRequest.recipient */\n      0x02\n      add\n      0x00\n      swap1\n      sload\n      swap1\n      0x0100\n      exp\n      swap1\n      div\n      0xffffffffffffffffffffffffffffffffffffffff\n      and\n        /* \"Campaign.sol\":4814:4825  thisRequest */\n      dup3\n        /* \"Campaign.sol\":4814:4831  thisRequest.value */\n      0x01\n      add\n      sload\n        /* \"Campaign.sol\":4774:4832  MakePaymentEvent(thisRequest.recipient, thisRequest.value) */\n      mload(0x40)\n      tag_126\n      swap3\n      swap2\n      swap1\n      tag_127\n      jump\t// in\n    tag_126:\n      mload(0x40)\n      dup1\n      swap2\n      sub\n      swap1\n      log1\n        /* \"Campaign.sol\":4100:4839  {... */\n      pop\n        /* \"Campaign.sol\":4035:4839  function finalizeRequest(uint _requestNumber) public onlyManager {... */\n      pop\n      jump\t// out\n        /* \"Campaign.sol\":1442:1486  mapping(address => uint) public participants */\n    tag_35:\n      mstore(0x20, 0x07)\n      dup1\n      0x00\n      mstore\n      keccak256(0x00, 0x40)\n      0x00\n      swap2\n      pop\n      swap1\n      pop\n      sload\n      dup2\n      jump\t// out\n        /* \"Campaign.sol\":2370:2463  function getBalance() public view returns(uint) {... */\n    tag_40:\n        /* \"Campaign.sol\":2412:2416  uint */\n      0x00\n        /* \"Campaign.sol\":2435:2456  address(this).balance */\n      selfbalance\n        /* \"Campaign.sol\":2428:2456  return address(this).balance */\n      swap1\n      pop\n        /* \"Campaign.sol\":2370:2463  function getBalance() public view returns(uint) {... */\n      swap1\n      jump\t// out\n        /* \"Campaign.sol\":1133:1153  uint public deadline */\n    tag_44:\n      sload(0x05)\n      dup2\n      jump\t// out\n        /* \"Campaign.sol\":1043:1059  uint public goal */\n    tag_48:\n      sload(0x02)\n      dup2\n      jump\t// out\n        /* \"Campaign.sol\":5451:5676  function getSummary() public view returns(uint, uint, uint, uint, address) {... */\n    tag_52:\n        /* \"Campaign.sol\":5493:5497  uint */\n      0x00\n        /* \"Campaign.sol\":5499:5503  uint */\n      dup1\n        /* \"Campaign.sol\":5505:5509  uint */\n      0x00\n        /* \"Campaign.sol\":5511:5515  uint */\n      dup1\n        /* \"Campaign.sol\":5517:5524  address */\n      0x00\n        /* \"Campaign.sol\":5551:5570  minimumContribution */\n      sload(0x01)\n        /* \"Campaign.sol\":5581:5593  getBalance() */\n      tag_130\n        /* \"Campaign.sol\":5581:5591  getBalance */\n      tag_40\n        /* \"Campaign.sol\":5581:5593  getBalance() */\n      jump\t// in\n    tag_130:\n        /* \"Campaign.sol\":5603:5623  numberOfContributors */\n      sload(0x04)\n        /* \"Campaign.sol\":5633:5644  numRequests */\n      sload(0x06)\n        /* \"Campaign.sol\":5654:5661  manager */\n      0x00\n      dup1\n      sload\n      swap1\n      0x0100\n      exp\n      swap1\n      div\n      0xffffffffffffffffffffffffffffffffffffffff\n      and\n        /* \"Campaign.sol\":5534:5669  return (... */\n      swap5\n      pop\n      swap5\n      pop\n      swap5\n      pop\n      swap5\n      pop\n      swap5\n      pop\n        /* \"Campaign.sol\":5451:5676  function getSummary() public view returns(uint, uint, uint, uint, address) {... */\n      swap1\n      swap2\n      swap3\n      swap4\n      swap5\n      jump\t// out\n        /* \"Campaign.sol\":1095:1127  uint public numberOfContributors */\n    tag_57:\n      sload(0x04)\n      dup2\n      jump\t// out\n        /* \"Campaign.sol\":978:1000  address public manager */\n    tag_61:\n      0x00\n      dup1\n      sload\n      swap1\n      0x0100\n      exp\n      swap1\n      div\n      0xffffffffffffffffffffffffffffffffffffffff\n      and\n      dup2\n      jump\t// out\n        /* \"Campaign.sol\":1492:1532  mapping(uint => Request) public requests */\n    tag_67:\n      mstore(0x20, 0x08)\n      dup1\n      0x00\n      mstore\n      keccak256(0x00, 0x40)\n      0x00\n      swap2\n      pop\n      swap1\n      pop\n      dup1\n      0x00\n      add\n      dup1\n      sload\n      tag_131\n      swap1\n      tag_132\n      jump\t// in\n    tag_131:\n      dup1\n      0x1f\n      add\n      0x20\n      dup1\n      swap2\n      div\n      mul\n      0x20\n      add\n      mload(0x40)\n      swap1\n      dup2\n      add\n      0x40\n      mstore\n      dup1\n      swap3\n      swap2\n      swap1\n      dup2\n      dup2\n      mstore\n      0x20\n      add\n      dup3\n      dup1\n      sload\n      tag_133\n      swap1\n      tag_132\n      jump\t// in\n    tag_133:\n      dup1\n      iszero\n      tag_134\n      jumpi\n      dup1\n      0x1f\n      lt\n      tag_135\n      jumpi\n      0x0100\n      dup1\n      dup4\n      sload\n      div\n      mul\n      dup4\n      mstore\n      swap2\n      0x20\n      add\n      swap2\n      jump(tag_134)\n    tag_135:\n      dup3\n      add\n      swap2\n      swap1\n      0x00\n      mstore\n      keccak256(0x00, 0x20)\n      swap1\n    tag_136:\n      dup2\n      sload\n      dup2\n      mstore\n      swap1\n      0x01\n      add\n      swap1\n      0x20\n      add\n      dup1\n      dup4\n      gt\n      tag_136\n      jumpi\n      dup3\n      swap1\n      sub\n      0x1f\n      and\n      dup3\n      add\n      swap2\n    tag_134:\n      pop\n      pop\n      pop\n      pop\n      pop\n      swap1\n      dup1\n      0x01\n      add\n      sload\n      swap1\n      dup1\n      0x02\n      add\n      0x00\n      swap1\n      sload\n      swap1\n      0x0100\n      exp\n      swap1\n      div\n      0xffffffffffffffffffffffffffffffffffffffff\n      and\n      swap1\n      dup1\n      0x02\n      add\n      0x14\n      swap1\n      sload\n      swap1\n      0x0100\n      exp\n      swap1\n      div\n      0xff\n      and\n      swap1\n      dup1\n      0x03\n      add\n      sload\n      swap1\n      pop\n      dup6\n      jump\t// out\n        /* \"Campaign.sol\":2877:3357  function createRequest(string memory _description, uint _value, address payable _recipient) public onlyManager {... */\n    tag_74:\n        /* \"Campaign.sol\":1726:1736  msg.sender */\n      caller\n        /* \"Campaign.sol\":1715:1736  manager == msg.sender */\n      0xffffffffffffffffffffffffffffffffffffffff\n      and\n        /* \"Campaign.sol\":1715:1722  manager */\n      0x00\n      dup1\n      sload\n      swap1\n      0x0100\n      exp\n      swap1\n      div\n      0xffffffffffffffffffffffffffffffffffffffff\n      and\n        /* \"Campaign.sol\":1715:1736  manager == msg.sender */\n      0xffffffffffffffffffffffffffffffffffffffff\n      and\n      eq\n        /* \"Campaign.sol\":1707:1765  require(manager == msg.sender, \"You are not the manager.\") */\n      tag_138\n      jumpi\n      mload(0x40)\n      0x08c379a000000000000000000000000000000000000000000000000000000000\n      dup2\n      mstore\n      0x04\n      add\n      tag_139\n      swap1\n      tag_111\n      jump\t// in\n    tag_139:\n      mload(0x40)\n      dup1\n      swap2\n      sub\n      swap1\n      revert\n    tag_138:\n        /* \"Campaign.sol\":2998:3024  Request storage newRequest */\n      0x00\n        /* \"Campaign.sol\":3027:3035  requests */\n      0x08\n        /* \"Campaign.sol\":3027:3048  requests[numRequests] */\n      0x00\n        /* \"Campaign.sol\":3036:3047  numRequests */\n      sload(0x06)\n        /* \"Campaign.sol\":3027:3048  requests[numRequests] */\n      dup2\n      mstore\n      0x20\n      add\n      swap1\n      dup2\n      mstore\n      0x20\n      add\n      0x00\n      keccak256\n        /* \"Campaign.sol\":2998:3048  Request storage newRequest = requests[numRequests] */\n      swap1\n      pop\n        /* \"Campaign.sol\":3058:3069  numRequests */\n      0x06\n      0x00\n        /* \"Campaign.sol\":3058:3071  numRequests++ */\n      dup2\n      sload\n      dup1\n      swap3\n      swap2\n      swap1\n      tag_141\n      swap1\n      tag_102\n      jump\t// in\n    tag_141:\n      swap2\n      swap1\n      pop\n      sstore\n      pop\n        /* \"Campaign.sol\":3107:3119  _description */\n      dup4\n        /* \"Campaign.sol\":3082:3092  newRequest */\n      dup2\n        /* \"Campaign.sol\":3082:3104  newRequest.description */\n      0x00\n      add\n        /* \"Campaign.sol\":3082:3119  newRequest.description = _description */\n      swap1\n      dup1\n      mload\n      swap1\n      0x20\n      add\n      swap1\n      tag_142\n      swap3\n      swap2\n      swap1\n      tag_143\n      jump\t// in\n    tag_142:\n      pop\n        /* \"Campaign.sol\":3152:3162  _recipient */\n      dup2\n        /* \"Campaign.sol\":3129:3139  newRequest */\n      dup2\n        /* \"Campaign.sol\":3129:3149  newRequest.recipient */\n      0x02\n      add\n      0x00\n        /* \"Campaign.sol\":3129:3162  newRequest.recipient = _recipient */\n      0x0100\n      exp\n      dup2\n      sload\n      dup2\n      0xffffffffffffffffffffffffffffffffffffffff\n      mul\n      not\n      and\n      swap1\n      dup4\n      0xffffffffffffffffffffffffffffffffffffffff\n      and\n      mul\n      or\n      swap1\n      sstore\n      pop\n        /* \"Campaign.sol\":3191:3197  _value */\n      dup3\n        /* \"Campaign.sol\":3172:3182  newRequest */\n      dup2\n        /* \"Campaign.sol\":3172:3188  newRequest.value */\n      0x01\n      add\n        /* \"Campaign.sol\":3172:3197  newRequest.value = _value */\n      dup2\n      swap1\n      sstore\n      pop\n        /* \"Campaign.sol\":3229:3234  false */\n      0x00\n        /* \"Campaign.sol\":3207:3217  newRequest */\n      dup2\n        /* \"Campaign.sol\":3207:3226  newRequest.complete */\n      0x02\n      add\n      0x14\n        /* \"Campaign.sol\":3207:3234  newRequest.complete = false */\n      0x0100\n      exp\n      dup2\n      sload\n      dup2\n      0xff\n      mul\n      not\n      and\n      swap1\n      dup4\n      iszero\n      iszero\n      mul\n      or\n      swap1\n      sstore\n      pop\n        /* \"Campaign.sol\":3272:3273  0 */\n      0x00\n        /* \"Campaign.sol\":3244:3254  newRequest */\n      dup2\n        /* \"Campaign.sol\":3244:3269  newRequest.numberOfVoters */\n      0x03\n      add\n        /* \"Campaign.sol\":3244:3273  newRequest.numberOfVoters = 0 */\n      dup2\n      swap1\n      sstore\n      pop\n        /* \"Campaign.sol\":3297:3350  CreateRequestEvent (_description, _recipient, _value) */\n      0x5392bd80651676ccaaedec1afbe841d47e369223df0ba1586110b6426ee87a3a\n        /* \"Campaign.sol\":3317:3329  _description */\n      dup5\n        /* \"Campaign.sol\":3331:3341  _recipient */\n      dup4\n        /* \"Campaign.sol\":3343:3349  _value */\n      dup6\n        /* \"Campaign.sol\":3297:3350  CreateRequestEvent (_description, _recipient, _value) */\n      mload(0x40)\n      tag_144\n      swap4\n      swap3\n      swap2\n      swap1\n      tag_145\n      jump\t// in\n    tag_144:\n      mload(0x40)\n      dup1\n      swap2\n      sub\n      swap1\n      log1\n        /* \"Campaign.sol\":2988:3357  {... */\n      pop\n        /* \"Campaign.sol\":2877:3357  function createRequest(string memory _description, uint _value, address payable _recipient) public onlyManager {... */\n      pop\n      pop\n      pop\n      jump\t// out\n        /* \"Campaign.sol\":1006:1037  uint public minimumContribution */\n    tag_77:\n      sload(0x01)\n      dup2\n      jump\t// out\n        /* \"Campaign.sol\":1172:1195  uint public numRequests */\n    tag_81:\n      sload(0x06)\n      dup2\n      jump\t// out\n        /* \"Campaign.sol\":4899:5445  function getRefund() public deadlinePassed {... */\n    tag_85:\n        /* \"Campaign.sol\":1851:1859  deadline */\n      sload(0x05)\n        /* \"Campaign.sol\":1833:1848  block.timestamp */\n      timestamp\n        /* \"Campaign.sol\":1833:1859  block.timestamp < deadline */\n      lt\n        /* \"Campaign.sol\":1825:1884  require(block.timestamp < deadline, \"Deadline has passed.\") */\n      tag_147\n      jumpi\n      mload(0x40)\n      0x08c379a000000000000000000000000000000000000000000000000000000000\n      dup2\n      mstore\n      0x04\n      add\n      tag_148\n      swap1\n      tag_149\n      jump\t// in\n    tag_148:\n      mload(0x40)\n      dup1\n      swap2\n      sub\n      swap1\n      revert\n    tag_147:\n        /* \"Campaign.sol\":5004:5008  goal */\n      sload(0x02)\n        /* \"Campaign.sol\":4989:5001  raisedAmount */\n      sload(0x03)\n        /* \"Campaign.sol\":4989:5008  raisedAmount < goal */\n      lt\n        /* \"Campaign.sol\":4981:5036  require(raisedAmount < goal, \"The goal was not reach!\") */\n      tag_151\n      jumpi\n      mload(0x40)\n      0x08c379a000000000000000000000000000000000000000000000000000000000\n      dup2\n      mstore\n      0x04\n      add\n      tag_152\n      swap1\n      tag_153\n      jump\t// in\n    tag_152:\n      mload(0x40)\n      dup1\n      swap2\n      sub\n      swap1\n      revert\n    tag_151:\n        /* \"Campaign.sol\":5126:5127  0 */\n      0x00\n        /* \"Campaign.sol\":5099:5111  participants */\n      0x07\n        /* \"Campaign.sol\":5099:5123  participants[msg.sender] */\n      0x00\n        /* \"Campaign.sol\":5112:5122  msg.sender */\n      caller\n        /* \"Campaign.sol\":5099:5123  participants[msg.sender] */\n      0xffffffffffffffffffffffffffffffffffffffff\n      and\n      0xffffffffffffffffffffffffffffffffffffffff\n      and\n      dup2\n      mstore\n      0x20\n      add\n      swap1\n      dup2\n      mstore\n      0x20\n      add\n      0x00\n      keccak256\n      sload\n        /* \"Campaign.sol\":5099:5127  participants[msg.sender] > 0 */\n      gt\n        /* \"Campaign.sol\":5091:5157  require(participants[msg.sender] > 0, \"You are not a participant\") */\n      tag_154\n      jumpi\n      mload(0x40)\n      0x08c379a000000000000000000000000000000000000000000000000000000000\n      dup2\n      mstore\n      0x04\n      add\n      tag_155\n      swap1\n      tag_156\n      jump\t// in\n    tag_155:\n      mload(0x40)\n      dup1\n      swap2\n      sub\n      swap1\n      revert\n    tag_154:\n        /* \"Campaign.sol\":5205:5230  address payable recipient */\n      0x00\n        /* \"Campaign.sol\":5241:5251  msg.sender */\n      caller\n        /* \"Campaign.sol\":5205:5252  address payable recipient = payable(msg.sender) */\n      swap1\n      pop\n        /* \"Campaign.sol\":5262:5272  uint value */\n      0x00\n        /* \"Campaign.sol\":5275:5287  participants */\n      0x07\n        /* \"Campaign.sol\":5275:5299  participants[msg.sender] */\n      0x00\n        /* \"Campaign.sol\":5288:5298  msg.sender */\n      caller\n        /* \"Campaign.sol\":5275:5299  participants[msg.sender] */\n      0xffffffffffffffffffffffffffffffffffffffff\n      and\n      0xffffffffffffffffffffffffffffffffffffffff\n      and\n      dup2\n      mstore\n      0x20\n      add\n      swap1\n      dup2\n      mstore\n      0x20\n      add\n      0x00\n      keccak256\n      sload\n        /* \"Campaign.sol\":5262:5299  uint value = participants[msg.sender] */\n      swap1\n      pop\n        /* \"Campaign.sol\":5341:5350  recipient */\n      dup2\n        /* \"Campaign.sol\":5341:5359  recipient.transfer */\n      0xffffffffffffffffffffffffffffffffffffffff\n      and\n        /* \"Campaign.sol\":5341:5366  recipient.transfer(value) */\n      0x08fc\n        /* \"Campaign.sol\":5360:5365  value */\n      dup3\n        /* \"Campaign.sol\":5341:5366  recipient.transfer(value) */\n      swap1\n      dup2\n      iszero\n      mul\n      swap1\n      mload(0x40)\n      0x00\n      mload(0x40)\n      dup1\n      dup4\n      sub\n      dup2\n      dup6\n      dup9\n      dup9\n      call\n      swap4\n      pop\n      pop\n      pop\n      pop\n      iszero\n      dup1\n      iszero\n      tag_158\n      jumpi\n      returndatasize\n      0x00\n      dup1\n      returndatacopy\n      revert(0x00, returndatasize)\n    tag_158:\n      pop\n        /* \"Campaign.sol\":5437:5438  0 */\n      0x00\n        /* \"Campaign.sol\":5410:5422  participants */\n      0x07\n        /* \"Campaign.sol\":5410:5434  participants[msg.sender] */\n      0x00\n        /* \"Campaign.sol\":5423:5433  msg.sender */\n      caller\n        /* \"Campaign.sol\":5410:5434  participants[msg.sender] */\n      0xffffffffffffffffffffffffffffffffffffffff\n      and\n      0xffffffffffffffffffffffffffffffffffffffff\n      and\n      dup2\n      mstore\n      0x20\n      add\n      swap1\n      dup2\n      mstore\n      0x20\n      add\n      0x00\n      keccak256\n        /* \"Campaign.sol\":5410:5438  participants[msg.sender] = 0 */\n      dup2\n      swap1\n      sstore\n      pop\n        /* \"Campaign.sol\":4942:5445  {... */\n      pop\n      pop\n        /* \"Campaign.sol\":4899:5445  function getRefund() public deadlinePassed {... */\n      jump\t// out\n        /* \"Campaign.sol\":1065:1089  uint public raisedAmount */\n    tag_88:\n      sload(0x03)\n      dup2\n      jump\t// out\n        /* \"Campaign.sol\":3363:4029  function approveRequest(uint _requestNumber) public {... */\n    tag_94:\n        /* \"Campaign.sol\":3460:3461  0 */\n      0x00\n        /* \"Campaign.sol\":3433:3445  participants */\n      0x07\n        /* \"Campaign.sol\":3433:3457  participants[msg.sender] */\n      0x00\n        /* \"Campaign.sol\":3446:3456  msg.sender */\n      caller\n        /* \"Campaign.sol\":3433:3457  participants[msg.sender] */\n      0xffffffffffffffffffffffffffffffffffffffff\n      and\n      0xffffffffffffffffffffffffffffffffffffffff\n      and\n      dup2\n      mstore\n      0x20\n      add\n      swap1\n      dup2\n      mstore\n      0x20\n      add\n      0x00\n      keccak256\n      sload\n        /* \"Campaign.sol\":3433:3461  participants[msg.sender] > 0 */\n      gt\n        /* \"Campaign.sol\":3425:3510  require(participants[msg.sender] > 0, \"You must be a participant to be able to vote\") */\n      tag_160\n      jumpi\n      mload(0x40)\n      0x08c379a000000000000000000000000000000000000000000000000000000000\n      dup2\n      mstore\n      0x04\n      add\n      tag_161\n      swap1\n      tag_162\n      jump\t// in\n    tag_161:\n      mload(0x40)\n      dup1\n      swap2\n      sub\n      swap1\n      revert\n    tag_160:\n        /* \"Campaign.sol\":3593:3620  Request storage thisRequest */\n      0x00\n        /* \"Campaign.sol\":3623:3631  requests */\n      0x08\n        /* \"Campaign.sol\":3623:3647  requests[_requestNumber] */\n      0x00\n        /* \"Campaign.sol\":3632:3646  _requestNumber */\n      dup4\n        /* \"Campaign.sol\":3623:3647  requests[_requestNumber] */\n      dup2\n      mstore\n      0x20\n      add\n      swap1\n      dup2\n      mstore\n      0x20\n      add\n      0x00\n      keccak256\n        /* \"Campaign.sol\":3593:3647  Request storage thisRequest = requests[_requestNumber] */\n      swap1\n      pop\n        /* \"Campaign.sol\":3793:3798  false */\n      0x00\n        /* \"Campaign.sol\":3758:3798  thisRequest.voters[msg.sender] ==  false */\n      iszero\n      iszero\n        /* \"Campaign.sol\":3758:3769  thisRequest */\n      dup2\n        /* \"Campaign.sol\":3758:3776  thisRequest.voters */\n      0x04\n      add\n        /* \"Campaign.sol\":3758:3788  thisRequest.voters[msg.sender] */\n      0x00\n        /* \"Campaign.sol\":3777:3787  msg.sender */\n      caller\n        /* \"Campaign.sol\":3758:3788  thisRequest.voters[msg.sender] */\n      0xffffffffffffffffffffffffffffffffffffffff\n      and\n      0xffffffffffffffffffffffffffffffffffffffff\n      and\n      dup2\n      mstore\n      0x20\n      add\n      swap1\n      dup2\n      mstore\n      0x20\n      add\n      0x00\n      keccak256\n      0x00\n      swap1\n      sload\n      swap1\n      0x0100\n      exp\n      swap1\n      div\n      0xff\n      and\n        /* \"Campaign.sol\":3758:3798  thisRequest.voters[msg.sender] ==  false */\n      iszero\n      iszero\n      eq\n        /* \"Campaign.sol\":3750:3821  require(thisRequest.voters[msg.sender] ==  false, \"You already voted!\") */\n      tag_163\n      jumpi\n      mload(0x40)\n      0x08c379a000000000000000000000000000000000000000000000000000000000\n      dup2\n      mstore\n      0x04\n      add\n      tag_164\n      swap1\n      tag_165\n      jump\t// in\n    tag_164:\n      mload(0x40)\n      dup1\n      swap2\n      sub\n      swap1\n      revert\n    tag_163:\n        /* \"Campaign.sol\":3895:3899  true */\n      0x01\n        /* \"Campaign.sol\":3862:3873  thisRequest */\n      dup2\n        /* \"Campaign.sol\":3862:3880  thisRequest.voters */\n      0x04\n      add\n        /* \"Campaign.sol\":3862:3892  thisRequest.voters[msg.sender] */\n      0x00\n        /* \"Campaign.sol\":3881:3891  msg.sender */\n      caller\n        /* \"Campaign.sol\":3862:3892  thisRequest.voters[msg.sender] */\n      0xffffffffffffffffffffffffffffffffffffffff\n      and\n      0xffffffffffffffffffffffffffffffffffffffff\n      and\n      dup2\n      mstore\n      0x20\n      add\n      swap1\n      dup2\n      mstore\n      0x20\n      add\n      0x00\n      keccak256\n      0x00\n        /* \"Campaign.sol\":3862:3899  thisRequest.voters[msg.sender] = true */\n      0x0100\n      exp\n      dup2\n      sload\n      dup2\n      0xff\n      mul\n      not\n      and\n      swap1\n      dup4\n      iszero\n      iszero\n      mul\n      or\n      swap1\n      sstore\n      pop\n        /* \"Campaign.sol\":3994:4005  thisRequest */\n      dup1\n        /* \"Campaign.sol\":3994:4020  thisRequest.numberOfVoters */\n      0x03\n      add\n      0x00\n        /* \"Campaign.sol\":3994:4022  thisRequest.numberOfVoters++ */\n      dup2\n      sload\n      dup1\n      swap3\n      swap2\n      swap1\n      tag_166\n      swap1\n      tag_102\n      jump\t// in\n    tag_166:\n      swap2\n      swap1\n      pop\n      sstore\n      pop\n        /* \"Campaign.sol\":3415:4029  {... */\n      pop\n        /* \"Campaign.sol\":3363:4029  function approveRequest(uint _requestNumber) public {... */\n      pop\n      jump\t// out\n    tag_143:\n      dup3\n      dup1\n      sload\n      tag_167\n      swap1\n      tag_132\n      jump\t// in\n    tag_167:\n      swap1\n      0x00\n      mstore\n      keccak256(0x00, 0x20)\n      swap1\n      0x1f\n      add\n      0x20\n      swap1\n      div\n      dup2\n      add\n      swap3\n      dup3\n      tag_169\n      jumpi\n      0x00\n      dup6\n      sstore\n      jump(tag_168)\n    tag_169:\n      dup3\n      0x1f\n      lt\n      tag_170\n      jumpi\n      dup1\n      mload\n      not(0xff)\n      and\n      dup4\n      dup1\n      add\n      or\n      dup6\n      sstore\n      jump(tag_168)\n    tag_170:\n      dup3\n      dup1\n      add\n      0x01\n      add\n      dup6\n      sstore\n      dup3\n      iszero\n      tag_168\n      jumpi\n      swap2\n      dup3\n      add\n    tag_171:\n      dup3\n      dup2\n      gt\n      iszero\n      tag_172\n      jumpi\n      dup3\n      mload\n      dup3\n      sstore\n      swap2\n      0x20\n      add\n      swap2\n      swap1\n      0x01\n      add\n      swap1\n      jump(tag_171)\n    tag_172:\n    tag_168:\n      pop\n      swap1\n      pop\n      tag_173\n      swap2\n      swap1\n      tag_174\n      jump\t// in\n    tag_173:\n      pop\n      swap1\n      jump\t// out\n    tag_174:\n    tag_175:\n      dup1\n      dup3\n      gt\n      iszero\n      tag_176\n      jumpi\n      0x00\n      dup2\n      0x00\n      swap1\n      sstore\n      pop\n      0x01\n      add\n      jump(tag_175)\n    tag_176:\n      pop\n      swap1\n      jump\t// out\n        /* \"#utility.yul\":7:82   */\n    tag_177:\n        /* \"#utility.yul\":40:46   */\n      0x00\n        /* \"#utility.yul\":73:75   */\n      0x40\n        /* \"#utility.yul\":67:76   */\n      mload\n        /* \"#utility.yul\":57:76   */\n      swap1\n      pop\n        /* \"#utility.yul\":7:82   */\n      swap1\n      jump\t// out\n        /* \"#utility.yul\":88:205   */\n    tag_178:\n        /* \"#utility.yul\":197:198   */\n      0x00\n        /* \"#utility.yul\":194:195   */\n      dup1\n        /* \"#utility.yul\":187:199   */\n      revert\n        /* \"#utility.yul\":211:328   */\n    tag_179:\n        /* \"#utility.yul\":320:321   */\n      0x00\n        /* \"#utility.yul\":317:318   */\n      dup1\n        /* \"#utility.yul\":310:322   */\n      revert\n        /* \"#utility.yul\":334:411   */\n    tag_180:\n        /* \"#utility.yul\":371:378   */\n      0x00\n        /* \"#utility.yul\":400:405   */\n      dup2\n        /* \"#utility.yul\":389:405   */\n      swap1\n      pop\n        /* \"#utility.yul\":334:411   */\n      swap2\n      swap1\n      pop\n      jump\t// out\n        /* \"#utility.yul\":417:539   */\n    tag_181:\n        /* \"#utility.yul\":490:514   */\n      tag_243\n        /* \"#utility.yul\":508:513   */\n      dup2\n        /* \"#utility.yul\":490:514   */\n      tag_180\n      jump\t// in\n    tag_243:\n        /* \"#utility.yul\":483:488   */\n      dup2\n        /* \"#utility.yul\":480:515   */\n      eq\n        /* \"#utility.yul\":470:533   */\n      tag_244\n      jumpi\n        /* \"#utility.yul\":529:530   */\n      0x00\n        /* \"#utility.yul\":526:527   */\n      dup1\n        /* \"#utility.yul\":519:531   */\n      revert\n        /* \"#utility.yul\":470:533   */\n    tag_244:\n        /* \"#utility.yul\":417:539   */\n      pop\n      jump\t// out\n        /* \"#utility.yul\":545:684   */\n    tag_182:\n        /* \"#utility.yul\":591:596   */\n      0x00\n        /* \"#utility.yul\":629:635   */\n      dup2\n        /* \"#utility.yul\":616:636   */\n      calldataload\n        /* \"#utility.yul\":607:636   */\n      swap1\n      pop\n        /* \"#utility.yul\":645:678   */\n      tag_246\n        /* \"#utility.yul\":672:677   */\n      dup2\n        /* \"#utility.yul\":645:678   */\n      tag_181\n      jump\t// in\n    tag_246:\n        /* \"#utility.yul\":545:684   */\n      swap3\n      swap2\n      pop\n      pop\n      jump\t// out\n        /* \"#utility.yul\":690:1019   */\n    tag_29:\n        /* \"#utility.yul\":749:755   */\n      0x00\n        /* \"#utility.yul\":798:800   */\n      0x20\n        /* \"#utility.yul\":786:795   */\n      dup3\n        /* \"#utility.yul\":777:784   */\n      dup5\n        /* \"#utility.yul\":773:796   */\n      sub\n        /* \"#utility.yul\":769:801   */\n      slt\n        /* \"#utility.yul\":766:885   */\n      iszero\n      tag_248\n      jumpi\n        /* \"#utility.yul\":804:883   */\n      tag_249\n      tag_178\n      jump\t// in\n    tag_249:\n        /* \"#utility.yul\":766:885   */\n    tag_248:\n        /* \"#utility.yul\":924:925   */\n      0x00\n        /* \"#utility.yul\":949:1002   */\n      tag_250\n        /* \"#utility.yul\":994:1001   */\n      dup5\n        /* \"#utility.yul\":985:991   */\n      dup3\n        /* \"#utility.yul\":974:983   */\n      dup6\n        /* \"#utility.yul\":970:992   */\n      add\n        /* \"#utility.yul\":949:1002   */\n      tag_182\n      jump\t// in\n    tag_250:\n        /* \"#utility.yul\":939:1002   */\n      swap2\n      pop\n        /* \"#utility.yul\":895:1012   */\n      pop\n        /* \"#utility.yul\":690:1019   */\n      swap3\n      swap2\n      pop\n      pop\n      jump\t// out\n        /* \"#utility.yul\":1025:1151   */\n    tag_183:\n        /* \"#utility.yul\":1062:1069   */\n      0x00\n        /* \"#utility.yul\":1102:1144   */\n      0xffffffffffffffffffffffffffffffffffffffff\n        /* \"#utility.yul\":1095:1100   */\n      dup3\n        /* \"#utility.yul\":1091:1145   */\n      and\n        /* \"#utility.yul\":1080:1145   */\n      swap1\n      pop\n        /* \"#utility.yul\":1025:1151   */\n      swap2\n      swap1\n      pop\n      jump\t// out\n        /* \"#utility.yul\":1157:1253   */\n    tag_184:\n        /* \"#utility.yul\":1194:1201   */\n      0x00\n        /* \"#utility.yul\":1223:1247   */\n      tag_253\n        /* \"#utility.yul\":1241:1246   */\n      dup3\n        /* \"#utility.yul\":1223:1247   */\n      tag_183\n      jump\t// in\n    tag_253:\n        /* \"#utility.yul\":1212:1247   */\n      swap1\n      pop\n        /* \"#utility.yul\":1157:1253   */\n      swap2\n      swap1\n      pop\n      jump\t// out\n        /* \"#utility.yul\":1259:1381   */\n    tag_185:\n        /* \"#utility.yul\":1332:1356   */\n      tag_255\n        /* \"#utility.yul\":1350:1355   */\n      dup2\n        /* \"#utility.yul\":1332:1356   */\n      tag_184\n      jump\t// in\n    tag_255:\n        /* \"#utility.yul\":1325:1330   */\n      dup2\n        /* \"#utility.yul\":1322:1357   */\n      eq\n        /* \"#utility.yul\":1312:1375   */\n      tag_256\n      jumpi\n        /* \"#utility.yul\":1371:1372   */\n      0x00\n        /* \"#utility.yul\":1368:1369   */\n      dup1\n        /* \"#utility.yul\":1361:1373   */\n      revert\n        /* \"#utility.yul\":1312:1375   */\n    tag_256:\n        /* \"#utility.yul\":1259:1381   */\n      pop\n      jump\t// out\n        /* \"#utility.yul\":1387:1526   */\n    tag_186:\n        /* \"#utility.yul\":1433:1438   */\n      0x00\n        /* \"#utility.yul\":1471:1477   */\n      dup2\n        /* \"#utility.yul\":1458:1478   */\n      calldataload\n        /* \"#utility.yul\":1449:1478   */\n      swap1\n      pop\n        /* \"#utility.yul\":1487:1520   */\n      tag_258\n        /* \"#utility.yul\":1514:1519   */\n      dup2\n        /* \"#utility.yul\":1487:1520   */\n      tag_185\n      jump\t// in\n    tag_258:\n        /* \"#utility.yul\":1387:1526   */\n      swap3\n      swap2\n      pop\n      pop\n      jump\t// out\n        /* \"#utility.yul\":1532:1861   */\n    tag_34:\n        /* \"#utility.yul\":1591:1597   */\n      0x00\n        /* \"#utility.yul\":1640:1642   */\n      0x20\n        /* \"#utility.yul\":1628:1637   */\n      dup3\n        /* \"#utility.yul\":1619:1626   */\n      dup5\n        /* \"#utility.yul\":1615:1638   */\n      sub\n        /* \"#utility.yul\":1611:1643   */\n      slt\n        /* \"#utility.yul\":1608:1727   */\n      iszero\n      tag_260\n      jumpi\n        /* \"#utility.yul\":1646:1725   */\n      tag_261\n      tag_178\n      jump\t// in\n    tag_261:\n        /* \"#utility.yul\":1608:1727   */\n    tag_260:\n        /* \"#utility.yul\":1766:1767   */\n      0x00\n        /* \"#utility.yul\":1791:1844   */\n      tag_262\n        /* \"#utility.yul\":1836:1843   */\n      dup5\n        /* \"#utility.yul\":1827:1833   */\n      dup3\n        /* \"#utility.yul\":1816:1825   */\n      dup6\n        /* \"#utility.yul\":1812:1834   */\n      add\n        /* \"#utility.yul\":1791:1844   */\n      tag_186\n      jump\t// in\n    tag_262:\n        /* \"#utility.yul\":1781:1844   */\n      swap2\n      pop\n        /* \"#utility.yul\":1737:1854   */\n      pop\n        /* \"#utility.yul\":1532:1861   */\n      swap3\n      swap2\n      pop\n      pop\n      jump\t// out\n        /* \"#utility.yul\":1867:1985   */\n    tag_187:\n        /* \"#utility.yul\":1954:1978   */\n      tag_264\n        /* \"#utility.yul\":1972:1977   */\n      dup2\n        /* \"#utility.yul\":1954:1978   */\n      tag_180\n      jump\t// in\n    tag_264:\n        /* \"#utility.yul\":1949:1952   */\n      dup3\n        /* \"#utility.yul\":1942:1979   */\n      mstore\n        /* \"#utility.yul\":1867:1985   */\n      pop\n      pop\n      jump\t// out\n        /* \"#utility.yul\":1991:2213   */\n    tag_37:\n        /* \"#utility.yul\":2084:2088   */\n      0x00\n        /* \"#utility.yul\":2122:2124   */\n      0x20\n        /* \"#utility.yul\":2111:2120   */\n      dup3\n        /* \"#utility.yul\":2107:2125   */\n      add\n        /* \"#utility.yul\":2099:2125   */\n      swap1\n      pop\n        /* \"#utility.yul\":2135:2206   */\n      tag_266\n        /* \"#utility.yul\":2203:2204   */\n      0x00\n        /* \"#utility.yul\":2192:2201   */\n      dup4\n        /* \"#utility.yul\":2188:2205   */\n      add\n        /* \"#utility.yul\":2179:2185   */\n      dup5\n        /* \"#utility.yul\":2135:2206   */\n      tag_187\n      jump\t// in\n    tag_266:\n        /* \"#utility.yul\":1991:2213   */\n      swap3\n      swap2\n      pop\n      pop\n      jump\t// out\n        /* \"#utility.yul\":2219:2337   */\n    tag_188:\n        /* \"#utility.yul\":2306:2330   */\n      tag_268\n        /* \"#utility.yul\":2324:2329   */\n      dup2\n        /* \"#utility.yul\":2306:2330   */\n      tag_184\n      jump\t// in\n    tag_268:\n        /* \"#utility.yul\":2301:2304   */\n      dup3\n        /* \"#utility.yul\":2294:2331   */\n      mstore\n        /* \"#utility.yul\":2219:2337   */\n      pop\n      pop\n      jump\t// out\n        /* \"#utility.yul\":2343:3007   */\n    tag_54:\n        /* \"#utility.yul\":2548:2552   */\n      0x00\n        /* \"#utility.yul\":2586:2589   */\n      0xa0\n        /* \"#utility.yul\":2575:2584   */\n      dup3\n        /* \"#utility.yul\":2571:2590   */\n      add\n        /* \"#utility.yul\":2563:2590   */\n      swap1\n      pop\n        /* \"#utility.yul\":2600:2671   */\n      tag_270\n        /* \"#utility.yul\":2668:2669   */\n      0x00\n        /* \"#utility.yul\":2657:2666   */\n      dup4\n        /* \"#utility.yul\":2653:2670   */\n      add\n        /* \"#utility.yul\":2644:2650   */\n      dup9\n        /* \"#utility.yul\":2600:2671   */\n      tag_187\n      jump\t// in\n    tag_270:\n        /* \"#utility.yul\":2681:2753   */\n      tag_271\n        /* \"#utility.yul\":2749:2751   */\n      0x20\n        /* \"#utility.yul\":2738:2747   */\n      dup4\n        /* \"#utility.yul\":2734:2752   */\n      add\n        /* \"#utility.yul\":2725:2731   */\n      dup8\n        /* \"#utility.yul\":2681:2753   */\n      tag_187\n      jump\t// in\n    tag_271:\n        /* \"#utility.yul\":2763:2835   */\n      tag_272\n        /* \"#utility.yul\":2831:2833   */\n      0x40\n        /* \"#utility.yul\":2820:2829   */\n      dup4\n        /* \"#utility.yul\":2816:2834   */\n      add\n        /* \"#utility.yul\":2807:2813   */\n      dup7\n        /* \"#utility.yul\":2763:2835   */\n      tag_187\n      jump\t// in\n    tag_272:\n        /* \"#utility.yul\":2845:2917   */\n      tag_273\n        /* \"#utility.yul\":2913:2915   */\n      0x60\n        /* \"#utility.yul\":2902:2911   */\n      dup4\n        /* \"#utility.yul\":2898:2916   */\n      add\n        /* \"#utility.yul\":2889:2895   */\n      dup6\n        /* \"#utility.yul\":2845:2917   */\n      tag_187\n      jump\t// in\n    tag_273:\n        /* \"#utility.yul\":2927:3000   */\n      tag_274\n        /* \"#utility.yul\":2995:2998   */\n      0x80\n        /* \"#utility.yul\":2984:2993   */\n      dup4\n        /* \"#utility.yul\":2980:2999   */\n      add\n        /* \"#utility.yul\":2971:2977   */\n      dup5\n        /* \"#utility.yul\":2927:3000   */\n      tag_188\n      jump\t// in\n    tag_274:\n        /* \"#utility.yul\":2343:3007   */\n      swap7\n      swap6\n      pop\n      pop\n      pop\n      pop\n      pop\n      pop\n      jump\t// out\n        /* \"#utility.yul\":3013:3235   */\n    tag_63:\n        /* \"#utility.yul\":3106:3110   */\n      0x00\n        /* \"#utility.yul\":3144:3146   */\n      0x20\n        /* \"#utility.yul\":3133:3142   */\n      dup3\n        /* \"#utility.yul\":3129:3147   */\n      add\n        /* \"#utility.yul\":3121:3147   */\n      swap1\n      pop\n        /* \"#utility.yul\":3157:3228   */\n      tag_276\n        /* \"#utility.yul\":3225:3226   */\n      0x00\n        /* \"#utility.yul\":3214:3223   */\n      dup4\n        /* \"#utility.yul\":3210:3227   */\n      add\n        /* \"#utility.yul\":3201:3207   */\n      dup5\n        /* \"#utility.yul\":3157:3228   */\n      tag_188\n      jump\t// in\n    tag_276:\n        /* \"#utility.yul\":3013:3235   */\n      swap3\n      swap2\n      pop\n      pop\n      jump\t// out\n        /* \"#utility.yul\":3241:3340   */\n    tag_189:\n        /* \"#utility.yul\":3293:3299   */\n      0x00\n        /* \"#utility.yul\":3327:3332   */\n      dup2\n        /* \"#utility.yul\":3321:3333   */\n      mload\n        /* \"#utility.yul\":3311:3333   */\n      swap1\n      pop\n        /* \"#utility.yul\":3241:3340   */\n      swap2\n      swap1\n      pop\n      jump\t// out\n        /* \"#utility.yul\":3346:3515   */\n    tag_190:\n        /* \"#utility.yul\":3430:3441   */\n      0x00\n        /* \"#utility.yul\":3464:3470   */\n      dup3\n        /* \"#utility.yul\":3459:3462   */\n      dup3\n        /* \"#utility.yul\":3452:3471   */\n      mstore\n        /* \"#utility.yul\":3504:3508   */\n      0x20\n        /* \"#utility.yul\":3499:3502   */\n      dup3\n        /* \"#utility.yul\":3495:3509   */\n      add\n        /* \"#utility.yul\":3480:3509   */\n      swap1\n      pop\n        /* \"#utility.yul\":3346:3515   */\n      swap3\n      swap2\n      pop\n      pop\n      jump\t// out\n        /* \"#utility.yul\":3521:3828   */\n    tag_191:\n        /* \"#utility.yul\":3589:3590   */\n      0x00\n        /* \"#utility.yul\":3599:3712   */\n    tag_280:\n        /* \"#utility.yul\":3613:3619   */\n      dup4\n        /* \"#utility.yul\":3610:3611   */\n      dup2\n        /* \"#utility.yul\":3607:3620   */\n      lt\n        /* \"#utility.yul\":3599:3712   */\n      iszero\n      tag_282\n      jumpi\n        /* \"#utility.yul\":3698:3699   */\n      dup1\n        /* \"#utility.yul\":3693:3696   */\n      dup3\n        /* \"#utility.yul\":3689:3700   */\n      add\n        /* \"#utility.yul\":3683:3701   */\n      mload\n        /* \"#utility.yul\":3679:3680   */\n      dup2\n        /* \"#utility.yul\":3674:3677   */\n      dup5\n        /* \"#utility.yul\":3670:3681   */\n      add\n        /* \"#utility.yul\":3663:3702   */\n      mstore\n        /* \"#utility.yul\":3635:3637   */\n      0x20\n        /* \"#utility.yul\":3632:3633   */\n      dup2\n        /* \"#utility.yul\":3628:3638   */\n      add\n        /* \"#utility.yul\":3623:3638   */\n      swap1\n      pop\n        /* \"#utility.yul\":3599:3712   */\n      jump(tag_280)\n    tag_282:\n        /* \"#utility.yul\":3730:3736   */\n      dup4\n        /* \"#utility.yul\":3727:3728   */\n      dup2\n        /* \"#utility.yul\":3724:3737   */\n      gt\n        /* \"#utility.yul\":3721:3822   */\n      iszero\n      tag_283\n      jumpi\n        /* \"#utility.yul\":3810:3811   */\n      0x00\n        /* \"#utility.yul\":3801:3807   */\n      dup5\n        /* \"#utility.yul\":3796:3799   */\n      dup5\n        /* \"#utility.yul\":3792:3808   */\n      add\n        /* \"#utility.yul\":3785:3812   */\n      mstore\n        /* \"#utility.yul\":3721:3822   */\n    tag_283:\n        /* \"#utility.yul\":3570:3828   */\n      pop\n        /* \"#utility.yul\":3521:3828   */\n      pop\n      pop\n      pop\n      jump\t// out\n        /* \"#utility.yul\":3834:3936   */\n    tag_192:\n        /* \"#utility.yul\":3875:3881   */\n      0x00\n        /* \"#utility.yul\":3926:3928   */\n      0x1f\n        /* \"#utility.yul\":3922:3929   */\n      not\n        /* \"#utility.yul\":3917:3919   */\n      0x1f\n        /* \"#utility.yul\":3910:3915   */\n      dup4\n        /* \"#utility.yul\":3906:3920   */\n      add\n        /* \"#utility.yul\":3902:3930   */\n      and\n        /* \"#utility.yul\":3892:3930   */\n      swap1\n      pop\n        /* \"#utility.yul\":3834:3936   */\n      swap2\n      swap1\n      pop\n      jump\t// out\n        /* \"#utility.yul\":3942:4306   */\n    tag_193:\n        /* \"#utility.yul\":4030:4033   */\n      0x00\n        /* \"#utility.yul\":4058:4097   */\n      tag_286\n        /* \"#utility.yul\":4091:4096   */\n      dup3\n        /* \"#utility.yul\":4058:4097   */\n      tag_189\n      jump\t// in\n    tag_286:\n        /* \"#utility.yul\":4113:4184   */\n      tag_287\n        /* \"#utility.yul\":4177:4183   */\n      dup2\n        /* \"#utility.yul\":4172:4175   */\n      dup6\n        /* \"#utility.yul\":4113:4184   */\n      tag_190\n      jump\t// in\n    tag_287:\n        /* \"#utility.yul\":4106:4184   */\n      swap4\n      pop\n        /* \"#utility.yul\":4193:4245   */\n      tag_288\n        /* \"#utility.yul\":4238:4244   */\n      dup2\n        /* \"#utility.yul\":4233:4236   */\n      dup6\n        /* \"#utility.yul\":4226:4230   */\n      0x20\n        /* \"#utility.yul\":4219:4224   */\n      dup7\n        /* \"#utility.yul\":4215:4231   */\n      add\n        /* \"#utility.yul\":4193:4245   */\n      tag_191\n      jump\t// in\n    tag_288:\n        /* \"#utility.yul\":4270:4299   */\n      tag_289\n        /* \"#utility.yul\":4292:4298   */\n      dup2\n        /* \"#utility.yul\":4270:4299   */\n      tag_192\n      jump\t// in\n    tag_289:\n        /* \"#utility.yul\":4265:4268   */\n      dup5\n        /* \"#utility.yul\":4261:4300   */\n      add\n        /* \"#utility.yul\":4254:4300   */\n      swap2\n      pop\n        /* \"#utility.yul\":4034:4306   */\n      pop\n        /* \"#utility.yul\":3942:4306   */\n      swap3\n      swap2\n      pop\n      pop\n      jump\t// out\n        /* \"#utility.yul\":4312:4416   */\n    tag_194:\n        /* \"#utility.yul\":4357:4364   */\n      0x00\n        /* \"#utility.yul\":4386:4410   */\n      tag_291\n        /* \"#utility.yul\":4404:4409   */\n      dup3\n        /* \"#utility.yul\":4386:4410   */\n      tag_183\n      jump\t// in\n    tag_291:\n        /* \"#utility.yul\":4375:4410   */\n      swap1\n      pop\n        /* \"#utility.yul\":4312:4416   */\n      swap2\n      swap1\n      pop\n      jump\t// out\n        /* \"#utility.yul\":4422:4564   */\n    tag_195:\n        /* \"#utility.yul\":4525:4557   */\n      tag_293\n        /* \"#utility.yul\":4551:4556   */\n      dup2\n        /* \"#utility.yul\":4525:4557   */\n      tag_194\n      jump\t// in\n    tag_293:\n        /* \"#utility.yul\":4520:4523   */\n      dup3\n        /* \"#utility.yul\":4513:4558   */\n      mstore\n        /* \"#utility.yul\":4422:4564   */\n      pop\n      pop\n      jump\t// out\n        /* \"#utility.yul\":4570:4660   */\n    tag_196:\n        /* \"#utility.yul\":4604:4611   */\n      0x00\n        /* \"#utility.yul\":4647:4652   */\n      dup2\n        /* \"#utility.yul\":4640:4653   */\n      iszero\n        /* \"#utility.yul\":4633:4654   */\n      iszero\n        /* \"#utility.yul\":4622:4654   */\n      swap1\n      pop\n        /* \"#utility.yul\":4570:4660   */\n      swap2\n      swap1\n      pop\n      jump\t// out\n        /* \"#utility.yul\":4666:4775   */\n    tag_197:\n        /* \"#utility.yul\":4747:4768   */\n      tag_296\n        /* \"#utility.yul\":4762:4767   */\n      dup2\n        /* \"#utility.yul\":4747:4768   */\n      tag_196\n      jump\t// in\n    tag_296:\n        /* \"#utility.yul\":4742:4745   */\n      dup3\n        /* \"#utility.yul\":4735:4769   */\n      mstore\n        /* \"#utility.yul\":4666:4775   */\n      pop\n      pop\n      jump\t// out\n        /* \"#utility.yul\":4781:5556   */\n    tag_69:\n        /* \"#utility.yul\":5016:5020   */\n      0x00\n        /* \"#utility.yul\":5054:5057   */\n      0xa0\n        /* \"#utility.yul\":5043:5052   */\n      dup3\n        /* \"#utility.yul\":5039:5058   */\n      add\n        /* \"#utility.yul\":5031:5058   */\n      swap1\n      pop\n        /* \"#utility.yul\":5104:5113   */\n      dup2\n        /* \"#utility.yul\":5098:5102   */\n      dup2\n        /* \"#utility.yul\":5094:5114   */\n      sub\n        /* \"#utility.yul\":5090:5091   */\n      0x00\n        /* \"#utility.yul\":5079:5088   */\n      dup4\n        /* \"#utility.yul\":5075:5092   */\n      add\n        /* \"#utility.yul\":5068:5115   */\n      mstore\n        /* \"#utility.yul\":5132:5210   */\n      tag_298\n        /* \"#utility.yul\":5205:5209   */\n      dup2\n        /* \"#utility.yul\":5196:5202   */\n      dup9\n        /* \"#utility.yul\":5132:5210   */\n      tag_193\n      jump\t// in\n    tag_298:\n        /* \"#utility.yul\":5124:5210   */\n      swap1\n      pop\n        /* \"#utility.yul\":5220:5292   */\n      tag_299\n        /* \"#utility.yul\":5288:5290   */\n      0x20\n        /* \"#utility.yul\":5277:5286   */\n      dup4\n        /* \"#utility.yul\":5273:5291   */\n      add\n        /* \"#utility.yul\":5264:5270   */\n      dup8\n        /* \"#utility.yul\":5220:5292   */\n      tag_187\n      jump\t// in\n    tag_299:\n        /* \"#utility.yul\":5302:5390   */\n      tag_300\n        /* \"#utility.yul\":5386:5388   */\n      0x40\n        /* \"#utility.yul\":5375:5384   */\n      dup4\n        /* \"#utility.yul\":5371:5389   */\n      add\n        /* \"#utility.yul\":5362:5368   */\n      dup7\n        /* \"#utility.yul\":5302:5390   */\n      tag_195\n      jump\t// in\n    tag_300:\n        /* \"#utility.yul\":5400:5466   */\n      tag_301\n        /* \"#utility.yul\":5462:5464   */\n      0x60\n        /* \"#utility.yul\":5451:5460   */\n      dup4\n        /* \"#utility.yul\":5447:5465   */\n      add\n        /* \"#utility.yul\":5438:5444   */\n      dup6\n        /* \"#utility.yul\":5400:5466   */\n      tag_197\n      jump\t// in\n    tag_301:\n        /* \"#utility.yul\":5476:5549   */\n      tag_302\n        /* \"#utility.yul\":5544:5547   */\n      0x80\n        /* \"#utility.yul\":5533:5542   */\n      dup4\n        /* \"#utility.yul\":5529:5548   */\n      add\n        /* \"#utility.yul\":5520:5526   */\n      dup5\n        /* \"#utility.yul\":5476:5549   */\n      tag_187\n      jump\t// in\n    tag_302:\n        /* \"#utility.yul\":4781:5556   */\n      swap7\n      swap6\n      pop\n      pop\n      pop\n      pop\n      pop\n      pop\n      jump\t// out\n        /* \"#utility.yul\":5562:5679   */\n    tag_198:\n        /* \"#utility.yul\":5671:5672   */\n      0x00\n        /* \"#utility.yul\":5668:5669   */\n      dup1\n        /* \"#utility.yul\":5661:5673   */\n      revert\n        /* \"#utility.yul\":5685:5802   */\n    tag_199:\n        /* \"#utility.yul\":5794:5795   */\n      0x00\n        /* \"#utility.yul\":5791:5792   */\n      dup1\n        /* \"#utility.yul\":5784:5796   */\n      revert\n        /* \"#utility.yul\":5808:5988   */\n    tag_200:\n        /* \"#utility.yul\":5856:5933   */\n      0x4e487b7100000000000000000000000000000000000000000000000000000000\n        /* \"#utility.yul\":5853:5854   */\n      0x00\n        /* \"#utility.yul\":5846:5934   */\n      mstore\n        /* \"#utility.yul\":5953:5957   */\n      0x41\n        /* \"#utility.yul\":5950:5951   */\n      0x04\n        /* \"#utility.yul\":5943:5958   */\n      mstore\n        /* \"#utility.yul\":5977:5981   */\n      0x24\n        /* \"#utility.yul\":5974:5975   */\n      0x00\n        /* \"#utility.yul\":5967:5982   */\n      revert\n        /* \"#utility.yul\":5994:6275   */\n    tag_201:\n        /* \"#utility.yul\":6077:6104   */\n      tag_307\n        /* \"#utility.yul\":6099:6103   */\n      dup3\n        /* \"#utility.yul\":6077:6104   */\n      tag_192\n      jump\t// in\n    tag_307:\n        /* \"#utility.yul\":6069:6075   */\n      dup2\n        /* \"#utility.yul\":6065:6105   */\n      add\n        /* \"#utility.yul\":6207:6213   */\n      dup2\n        /* \"#utility.yul\":6195:6205   */\n      dup2\n        /* \"#utility.yul\":6192:6214   */\n      lt\n        /* \"#utility.yul\":6171:6189   */\n      0xffffffffffffffff\n        /* \"#utility.yul\":6159:6169   */\n      dup3\n        /* \"#utility.yul\":6156:6190   */\n      gt\n        /* \"#utility.yul\":6153:6215   */\n      or\n        /* \"#utility.yul\":6150:6238   */\n      iszero\n      tag_308\n      jumpi\n        /* \"#utility.yul\":6218:6236   */\n      tag_309\n      tag_200\n      jump\t// in\n    tag_309:\n        /* \"#utility.yul\":6150:6238   */\n    tag_308:\n        /* \"#utility.yul\":6258:6268   */\n      dup1\n        /* \"#utility.yul\":6254:6256   */\n      0x40\n        /* \"#utility.yul\":6247:6269   */\n      mstore\n        /* \"#utility.yul\":6037:6275   */\n      pop\n        /* \"#utility.yul\":5994:6275   */\n      pop\n      pop\n      jump\t// out\n        /* \"#utility.yul\":6281:6410   */\n    tag_202:\n        /* \"#utility.yul\":6315:6321   */\n      0x00\n        /* \"#utility.yul\":6342:6362   */\n      tag_311\n      tag_177\n      jump\t// in\n    tag_311:\n        /* \"#utility.yul\":6332:6362   */\n      swap1\n      pop\n        /* \"#utility.yul\":6371:6404   */\n      tag_312\n        /* \"#utility.yul\":6399:6403   */\n      dup3\n        /* \"#utility.yul\":6391:6397   */\n      dup3\n        /* \"#utility.yul\":6371:6404   */\n      tag_201\n      jump\t// in\n    tag_312:\n        /* \"#utility.yul\":6281:6410   */\n      swap2\n      swap1\n      pop\n      jump\t// out\n        /* \"#utility.yul\":6416:6724   */\n    tag_203:\n        /* \"#utility.yul\":6478:6482   */\n      0x00\n        /* \"#utility.yul\":6568:6586   */\n      0xffffffffffffffff\n        /* \"#utility.yul\":6560:6566   */\n      dup3\n        /* \"#utility.yul\":6557:6587   */\n      gt\n        /* \"#utility.yul\":6554:6610   */\n      iszero\n      tag_314\n      jumpi\n        /* \"#utility.yul\":6590:6608   */\n      tag_315\n      tag_200\n      jump\t// in\n    tag_315:\n        /* \"#utility.yul\":6554:6610   */\n    tag_314:\n        /* \"#utility.yul\":6628:6657   */\n      tag_316\n        /* \"#utility.yul\":6650:6656   */\n      dup3\n        /* \"#utility.yul\":6628:6657   */\n      tag_192\n      jump\t// in\n    tag_316:\n        /* \"#utility.yul\":6620:6657   */\n      swap1\n      pop\n        /* \"#utility.yul\":6712:6716   */\n      0x20\n        /* \"#utility.yul\":6706:6710   */\n      dup2\n        /* \"#utility.yul\":6702:6717   */\n      add\n        /* \"#utility.yul\":6694:6717   */\n      swap1\n      pop\n        /* \"#utility.yul\":6416:6724   */\n      swap2\n      swap1\n      pop\n      jump\t// out\n        /* \"#utility.yul\":6730:6884   */\n    tag_204:\n        /* \"#utility.yul\":6814:6820   */\n      dup3\n        /* \"#utility.yul\":6809:6812   */\n      dup2\n        /* \"#utility.yul\":6804:6807   */\n      dup4\n        /* \"#utility.yul\":6791:6821   */\n      calldatacopy\n        /* \"#utility.yul\":6876:6877   */\n      0x00\n        /* \"#utility.yul\":6867:6873   */\n      dup4\n        /* \"#utility.yul\":6862:6865   */\n      dup4\n        /* \"#utility.yul\":6858:6874   */\n      add\n        /* \"#utility.yul\":6851:6878   */\n      mstore\n        /* \"#utility.yul\":6730:6884   */\n      pop\n      pop\n      pop\n      jump\t// out\n        /* \"#utility.yul\":6890:7302   */\n    tag_205:\n        /* \"#utility.yul\":6968:6973   */\n      0x00\n        /* \"#utility.yul\":6993:7059   */\n      tag_319\n        /* \"#utility.yul\":7009:7058   */\n      tag_320\n        /* \"#utility.yul\":7051:7057   */\n      dup5\n        /* \"#utility.yul\":7009:7058   */\n      tag_203\n      jump\t// in\n    tag_320:\n        /* \"#utility.yul\":6993:7059   */\n      tag_202\n      jump\t// in\n    tag_319:\n        /* \"#utility.yul\":6984:7059   */\n      swap1\n      pop\n        /* \"#utility.yul\":7082:7088   */\n      dup3\n        /* \"#utility.yul\":7075:7080   */\n      dup2\n        /* \"#utility.yul\":7068:7089   */\n      mstore\n        /* \"#utility.yul\":7120:7124   */\n      0x20\n        /* \"#utility.yul\":7113:7118   */\n      dup2\n        /* \"#utility.yul\":7109:7125   */\n      add\n        /* \"#utility.yul\":7158:7161   */\n      dup5\n        /* \"#utility.yul\":7149:7155   */\n      dup5\n        /* \"#utility.yul\":7144:7147   */\n      dup5\n        /* \"#utility.yul\":7140:7156   */\n      add\n        /* \"#utility.yul\":7137:7162   */\n      gt\n        /* \"#utility.yul\":7134:7246   */\n      iszero\n      tag_321\n      jumpi\n        /* \"#utility.yul\":7165:7244   */\n      tag_322\n      tag_199\n      jump\t// in\n    tag_322:\n        /* \"#utility.yul\":7134:7246   */\n    tag_321:\n        /* \"#utility.yul\":7255:7296   */\n      tag_323\n        /* \"#utility.yul\":7289:7295   */\n      dup5\n        /* \"#utility.yul\":7284:7287   */\n      dup3\n        /* \"#utility.yul\":7279:7282   */\n      dup6\n        /* \"#utility.yul\":7255:7296   */\n      tag_204\n      jump\t// in\n    tag_323:\n        /* \"#utility.yul\":6974:7302   */\n      pop\n        /* \"#utility.yul\":6890:7302   */\n      swap4\n      swap3\n      pop\n      pop\n      pop\n      jump\t// out\n        /* \"#utility.yul\":7322:7662   */\n    tag_206:\n        /* \"#utility.yul\":7378:7383   */\n      0x00\n        /* \"#utility.yul\":7427:7430   */\n      dup3\n        /* \"#utility.yul\":7420:7424   */\n      0x1f\n        /* \"#utility.yul\":7412:7418   */\n      dup4\n        /* \"#utility.yul\":7408:7425   */\n      add\n        /* \"#utility.yul\":7404:7431   */\n      slt\n        /* \"#utility.yul\":7394:7516   */\n      tag_325\n      jumpi\n        /* \"#utility.yul\":7435:7514   */\n      tag_326\n      tag_198\n      jump\t// in\n    tag_326:\n        /* \"#utility.yul\":7394:7516   */\n    tag_325:\n        /* \"#utility.yul\":7552:7558   */\n      dup2\n        /* \"#utility.yul\":7539:7559   */\n      calldataload\n        /* \"#utility.yul\":7577:7656   */\n      tag_327\n        /* \"#utility.yul\":7652:7655   */\n      dup5\n        /* \"#utility.yul\":7644:7650   */\n      dup3\n        /* \"#utility.yul\":7637:7641   */\n      0x20\n        /* \"#utility.yul\":7629:7635   */\n      dup7\n        /* \"#utility.yul\":7625:7642   */\n      add\n        /* \"#utility.yul\":7577:7656   */\n      tag_205\n      jump\t// in\n    tag_327:\n        /* \"#utility.yul\":7568:7656   */\n      swap2\n      pop\n        /* \"#utility.yul\":7384:7662   */\n      pop\n        /* \"#utility.yul\":7322:7662   */\n      swap3\n      swap2\n      pop\n      pop\n      jump\t// out\n        /* \"#utility.yul\":7668:7806   */\n    tag_207:\n        /* \"#utility.yul\":7749:7781   */\n      tag_329\n        /* \"#utility.yul\":7775:7780   */\n      dup2\n        /* \"#utility.yul\":7749:7781   */\n      tag_194\n      jump\t// in\n    tag_329:\n        /* \"#utility.yul\":7742:7747   */\n      dup2\n        /* \"#utility.yul\":7739:7782   */\n      eq\n        /* \"#utility.yul\":7729:7800   */\n      tag_330\n      jumpi\n        /* \"#utility.yul\":7796:7797   */\n      0x00\n        /* \"#utility.yul\":7793:7794   */\n      dup1\n        /* \"#utility.yul\":7786:7798   */\n      revert\n        /* \"#utility.yul\":7729:7800   */\n    tag_330:\n        /* \"#utility.yul\":7668:7806   */\n      pop\n      jump\t// out\n        /* \"#utility.yul\":7812:7967   */\n    tag_208:\n        /* \"#utility.yul\":7866:7871   */\n      0x00\n        /* \"#utility.yul\":7904:7910   */\n      dup2\n        /* \"#utility.yul\":7891:7911   */\n      calldataload\n        /* \"#utility.yul\":7882:7911   */\n      swap1\n      pop\n        /* \"#utility.yul\":7920:7961   */\n      tag_332\n        /* \"#utility.yul\":7955:7960   */\n      dup2\n        /* \"#utility.yul\":7920:7961   */\n      tag_207\n      jump\t// in\n    tag_332:\n        /* \"#utility.yul\":7812:7967   */\n      swap3\n      swap2\n      pop\n      pop\n      jump\t// out\n        /* \"#utility.yul\":7973:8788   */\n    tag_73:\n        /* \"#utility.yul\":8068:8074   */\n      0x00\n        /* \"#utility.yul\":8076:8082   */\n      dup1\n        /* \"#utility.yul\":8084:8090   */\n      0x00\n        /* \"#utility.yul\":8133:8135   */\n      0x60\n        /* \"#utility.yul\":8121:8130   */\n      dup5\n        /* \"#utility.yul\":8112:8119   */\n      dup7\n        /* \"#utility.yul\":8108:8131   */\n      sub\n        /* \"#utility.yul\":8104:8136   */\n      slt\n        /* \"#utility.yul\":8101:8220   */\n      iszero\n      tag_334\n      jumpi\n        /* \"#utility.yul\":8139:8218   */\n      tag_335\n      tag_178\n      jump\t// in\n    tag_335:\n        /* \"#utility.yul\":8101:8220   */\n    tag_334:\n        /* \"#utility.yul\":8287:8288   */\n      0x00\n        /* \"#utility.yul\":8276:8285   */\n      dup5\n        /* \"#utility.yul\":8272:8289   */\n      add\n        /* \"#utility.yul\":8259:8290   */\n      calldataload\n        /* \"#utility.yul\":8317:8335   */\n      0xffffffffffffffff\n        /* \"#utility.yul\":8309:8315   */\n      dup2\n        /* \"#utility.yul\":8306:8336   */\n      gt\n        /* \"#utility.yul\":8303:8420   */\n      iszero\n      tag_336\n      jumpi\n        /* \"#utility.yul\":8339:8418   */\n      tag_337\n      tag_179\n      jump\t// in\n    tag_337:\n        /* \"#utility.yul\":8303:8420   */\n    tag_336:\n        /* \"#utility.yul\":8444:8507   */\n      tag_338\n        /* \"#utility.yul\":8499:8506   */\n      dup7\n        /* \"#utility.yul\":8490:8496   */\n      dup3\n        /* \"#utility.yul\":8479:8488   */\n      dup8\n        /* \"#utility.yul\":8475:8497   */\n      add\n        /* \"#utility.yul\":8444:8507   */\n      tag_206\n      jump\t// in\n    tag_338:\n        /* \"#utility.yul\":8434:8507   */\n      swap4\n      pop\n        /* \"#utility.yul\":8230:8517   */\n      pop\n        /* \"#utility.yul\":8556:8558   */\n      0x20\n        /* \"#utility.yul\":8582:8635   */\n      tag_339\n        /* \"#utility.yul\":8627:8634   */\n      dup7\n        /* \"#utility.yul\":8618:8624   */\n      dup3\n        /* \"#utility.yul\":8607:8616   */\n      dup8\n        /* \"#utility.yul\":8603:8625   */\n      add\n        /* \"#utility.yul\":8582:8635   */\n      tag_182\n      jump\t// in\n    tag_339:\n        /* \"#utility.yul\":8572:8635   */\n      swap3\n      pop\n        /* \"#utility.yul\":8527:8645   */\n      pop\n        /* \"#utility.yul\":8684:8686   */\n      0x40\n        /* \"#utility.yul\":8710:8771   */\n      tag_340\n        /* \"#utility.yul\":8763:8770   */\n      dup7\n        /* \"#utility.yul\":8754:8760   */\n      dup3\n        /* \"#utility.yul\":8743:8752   */\n      dup8\n        /* \"#utility.yul\":8739:8761   */\n      add\n        /* \"#utility.yul\":8710:8771   */\n      tag_208\n      jump\t// in\n    tag_340:\n        /* \"#utility.yul\":8700:8771   */\n      swap2\n      pop\n        /* \"#utility.yul\":8655:8781   */\n      pop\n        /* \"#utility.yul\":7973:8788   */\n      swap3\n      pop\n      swap3\n      pop\n      swap3\n      jump\t// out\n        /* \"#utility.yul\":8794:8975   */\n    tag_209:\n        /* \"#utility.yul\":8934:8967   */\n      0x596f752073686f756c6420656e74657220746865206d696e2076616c75652100\n        /* \"#utility.yul\":8930:8931   */\n      0x00\n        /* \"#utility.yul\":8922:8928   */\n      dup3\n        /* \"#utility.yul\":8918:8932   */\n      add\n        /* \"#utility.yul\":8911:8968   */\n      mstore\n        /* \"#utility.yul\":8794:8975   */\n      pop\n      jump\t// out\n        /* \"#utility.yul\":8981:9347   */\n    tag_210:\n        /* \"#utility.yul\":9123:9126   */\n      0x00\n        /* \"#utility.yul\":9144:9211   */\n      tag_343\n        /* \"#utility.yul\":9208:9210   */\n      0x1f\n        /* \"#utility.yul\":9203:9206   */\n      dup4\n        /* \"#utility.yul\":9144:9211   */\n      tag_190\n      jump\t// in\n    tag_343:\n        /* \"#utility.yul\":9137:9211   */\n      swap2\n      pop\n        /* \"#utility.yul\":9220:9313   */\n      tag_344\n        /* \"#utility.yul\":9309:9312   */\n      dup3\n        /* \"#utility.yul\":9220:9313   */\n      tag_209\n      jump\t// in\n    tag_344:\n        /* \"#utility.yul\":9338:9340   */\n      0x20\n        /* \"#utility.yul\":9333:9336   */\n      dup3\n        /* \"#utility.yul\":9329:9341   */\n      add\n        /* \"#utility.yul\":9322:9341   */\n      swap1\n      pop\n        /* \"#utility.yul\":8981:9347   */\n      swap2\n      swap1\n      pop\n      jump\t// out\n        /* \"#utility.yul\":9353:9772   */\n    tag_98:\n        /* \"#utility.yul\":9519:9523   */\n      0x00\n        /* \"#utility.yul\":9557:9559   */\n      0x20\n        /* \"#utility.yul\":9546:9555   */\n      dup3\n        /* \"#utility.yul\":9542:9560   */\n      add\n        /* \"#utility.yul\":9534:9560   */\n      swap1\n      pop\n        /* \"#utility.yul\":9606:9615   */\n      dup2\n        /* \"#utility.yul\":9600:9604   */\n      dup2\n        /* \"#utility.yul\":9596:9616   */\n      sub\n        /* \"#utility.yul\":9592:9593   */\n      0x00\n        /* \"#utility.yul\":9581:9590   */\n      dup4\n        /* \"#utility.yul\":9577:9594   */\n      add\n        /* \"#utility.yul\":9570:9617   */\n      mstore\n        /* \"#utility.yul\":9634:9765   */\n      tag_346\n        /* \"#utility.yul\":9760:9764   */\n      dup2\n        /* \"#utility.yul\":9634:9765   */\n      tag_210\n      jump\t// in\n    tag_346:\n        /* \"#utility.yul\":9626:9765   */\n      swap1\n      pop\n        /* \"#utility.yul\":9353:9772   */\n      swap2\n      swap1\n      pop\n      jump\t// out\n        /* \"#utility.yul\":9778:9958   */\n    tag_211:\n        /* \"#utility.yul\":9826:9903   */\n      0x4e487b7100000000000000000000000000000000000000000000000000000000\n        /* \"#utility.yul\":9823:9824   */\n      0x00\n        /* \"#utility.yul\":9816:9904   */\n      mstore\n        /* \"#utility.yul\":9923:9927   */\n      0x11\n        /* \"#utility.yul\":9920:9921   */\n      0x04\n        /* \"#utility.yul\":9913:9928   */\n      mstore\n        /* \"#utility.yul\":9947:9951   */\n      0x24\n        /* \"#utility.yul\":9944:9945   */\n      0x00\n        /* \"#utility.yul\":9937:9952   */\n      revert\n        /* \"#utility.yul\":9964:10197   */\n    tag_102:\n        /* \"#utility.yul\":10003:10006   */\n      0x00\n        /* \"#utility.yul\":10026:10050   */\n      tag_349\n        /* \"#utility.yul\":10044:10049   */\n      dup3\n        /* \"#utility.yul\":10026:10050   */\n      tag_180\n      jump\t// in\n    tag_349:\n        /* \"#utility.yul\":10017:10050   */\n      swap2\n      pop\n        /* \"#utility.yul\":10072:10138   */\n      0xffffffffffffffffffffffffffffffffffffffffffffffffffffffffffffffff\n        /* \"#utility.yul\":10065:10070   */\n      dup3\n        /* \"#utility.yul\":10062:10139   */\n      sub\n        /* \"#utility.yul\":10059:10162   */\n      tag_350\n      jumpi\n        /* \"#utility.yul\":10142:10160   */\n      tag_351\n      tag_211\n      jump\t// in\n    tag_351:\n        /* \"#utility.yul\":10059:10162   */\n    tag_350:\n        /* \"#utility.yul\":10189:10190   */\n      0x01\n        /* \"#utility.yul\":10182:10187   */\n      dup3\n        /* \"#utility.yul\":10178:10191   */\n      add\n        /* \"#utility.yul\":10171:10191   */\n      swap1\n      pop\n        /* \"#utility.yul\":9964:10197   */\n      swap2\n      swap1\n      pop\n      jump\t// out\n        /* \"#utility.yul\":10203:10508   */\n    tag_104:\n        /* \"#utility.yul\":10243:10246   */\n      0x00\n        /* \"#utility.yul\":10262:10282   */\n      tag_353\n        /* \"#utility.yul\":10280:10281   */\n      dup3\n        /* \"#utility.yul\":10262:10282   */\n      tag_180\n      jump\t// in\n    tag_353:\n        /* \"#utility.yul\":10257:10282   */\n      swap2\n      pop\n        /* \"#utility.yul\":10296:10316   */\n      tag_354\n        /* \"#utility.yul\":10314:10315   */\n      dup4\n        /* \"#utility.yul\":10296:10316   */\n      tag_180\n      jump\t// in\n    tag_354:\n        /* \"#utility.yul\":10291:10316   */\n      swap3\n      pop\n        /* \"#utility.yul\":10450:10451   */\n      dup3\n        /* \"#utility.yul\":10382:10448   */\n      0xffffffffffffffffffffffffffffffffffffffffffffffffffffffffffffffff\n        /* \"#utility.yul\":10378:10452   */\n      sub\n        /* \"#utility.yul\":10375:10376   */\n      dup3\n        /* \"#utility.yul\":10372:10453   */\n      gt\n        /* \"#utility.yul\":10369:10476   */\n      iszero\n      tag_355\n      jumpi\n        /* \"#utility.yul\":10456:10474   */\n      tag_356\n      tag_211\n      jump\t// in\n    tag_356:\n        /* \"#utility.yul\":10369:10476   */\n    tag_355:\n        /* \"#utility.yul\":10500:10501   */\n      dup3\n        /* \"#utility.yul\":10497:10498   */\n      dup3\n        /* \"#utility.yul\":10493:10502   */\n      add\n        /* \"#utility.yul\":10486:10502   */\n      swap1\n      pop\n        /* \"#utility.yul\":10203:10508   */\n      swap3\n      swap2\n      pop\n      pop\n      jump\t// out\n        /* \"#utility.yul\":10514:10846   */\n    tag_107:\n        /* \"#utility.yul\":10635:10639   */\n      0x00\n        /* \"#utility.yul\":10673:10675   */\n      0x40\n        /* \"#utility.yul\":10662:10671   */\n      dup3\n        /* \"#utility.yul\":10658:10676   */\n      add\n        /* \"#utility.yul\":10650:10676   */\n      swap1\n      pop\n        /* \"#utility.yul\":10686:10757   */\n      tag_358\n        /* \"#utility.yul\":10754:10755   */\n      0x00\n        /* \"#utility.yul\":10743:10752   */\n      dup4\n        /* \"#utility.yul\":10739:10756   */\n      add\n        /* \"#utility.yul\":10730:10736   */\n      dup6\n        /* \"#utility.yul\":10686:10757   */\n      tag_188\n      jump\t// in\n    tag_358:\n        /* \"#utility.yul\":10767:10839   */\n      tag_359\n        /* \"#utility.yul\":10835:10837   */\n      0x20\n        /* \"#utility.yul\":10824:10833   */\n      dup4\n        /* \"#utility.yul\":10820:10838   */\n      add\n        /* \"#utility.yul\":10811:10817   */\n      dup5\n        /* \"#utility.yul\":10767:10839   */\n      tag_187\n      jump\t// in\n    tag_359:\n        /* \"#utility.yul\":10514:10846   */\n      swap4\n      swap3\n      pop\n      pop\n      pop\n      jump\t// out\n        /* \"#utility.yul\":10852:11026   */\n    tag_212:\n        /* \"#utility.yul\":10992:11018   */\n      0x596f7520617265206e6f7420746865206d616e616765722e0000000000000000\n        /* \"#utility.yul\":10988:10989   */\n      0x00\n        /* \"#utility.yul\":10980:10986   */\n      dup3\n        /* \"#utility.yul\":10976:10990   */\n      add\n        /* \"#utility.yul\":10969:11019   */\n      mstore\n        /* \"#utility.yul\":10852:11026   */\n      pop\n      jump\t// out\n        /* \"#utility.yul\":11032:11398   */\n    tag_213:\n        /* \"#utility.yul\":11174:11177   */\n      0x00\n        /* \"#utility.yul\":11195:11262   */\n      tag_362\n        /* \"#utility.yul\":11259:11261   */\n      0x18\n        /* \"#utility.yul\":11254:11257   */\n      dup4\n        /* \"#utility.yul\":11195:11262   */\n      tag_190\n      jump\t// in\n    tag_362:\n        /* \"#utility.yul\":11188:11262   */\n      swap2\n      pop\n        /* \"#utility.yul\":11271:11364   */\n      tag_363\n        /* \"#utility.yul\":11360:11363   */\n      dup3\n        /* \"#utility.yul\":11271:11364   */\n      tag_212\n      jump\t// in\n    tag_363:\n        /* \"#utility.yul\":11389:11391   */\n      0x20\n        /* \"#utility.yul\":11384:11387   */\n      dup3\n        /* \"#utility.yul\":11380:11392   */\n      add\n        /* \"#utility.yul\":11373:11392   */\n      swap1\n      pop\n        /* \"#utility.yul\":11032:11398   */\n      swap2\n      swap1\n      pop\n      jump\t// out\n        /* \"#utility.yul\":11404:11823   */\n    tag_111:\n        /* \"#utility.yul\":11570:11574   */\n      0x00\n        /* \"#utility.yul\":11608:11610   */\n      0x20\n        /* \"#utility.yul\":11597:11606   */\n      dup3\n        /* \"#utility.yul\":11593:11611   */\n      add\n        /* \"#utility.yul\":11585:11611   */\n      swap1\n      pop\n        /* \"#utility.yul\":11657:11666   */\n      dup2\n        /* \"#utility.yul\":11651:11655   */\n      dup2\n        /* \"#utility.yul\":11647:11667   */\n      sub\n        /* \"#utility.yul\":11643:11644   */\n      0x00\n        /* \"#utility.yul\":11632:11641   */\n      dup4\n        /* \"#utility.yul\":11628:11645   */\n      add\n        /* \"#utility.yul\":11621:11668   */\n      mstore\n        /* \"#utility.yul\":11685:11816   */\n      tag_365\n        /* \"#utility.yul\":11811:11815   */\n      dup2\n        /* \"#utility.yul\":11685:11816   */\n      tag_213\n      jump\t// in\n    tag_365:\n        /* \"#utility.yul\":11677:11816   */\n      swap1\n      pop\n        /* \"#utility.yul\":11404:11823   */\n      swap2\n      swap1\n      pop\n      jump\t// out\n        /* \"#utility.yul\":11829:12002   */\n    tag_214:\n        /* \"#utility.yul\":11969:11994   */\n      0x576520646f6e27742072656163682074686520676f616c000000000000000000\n        /* \"#utility.yul\":11965:11966   */\n      0x00\n        /* \"#utility.yul\":11957:11963   */\n      dup3\n        /* \"#utility.yul\":11953:11967   */\n      add\n        /* \"#utility.yul\":11946:11995   */\n      mstore\n        /* \"#utility.yul\":11829:12002   */\n      pop\n      jump\t// out\n        /* \"#utility.yul\":12008:12374   */\n    tag_215:\n        /* \"#utility.yul\":12150:12153   */\n      0x00\n        /* \"#utility.yul\":12171:12238   */\n      tag_368\n        /* \"#utility.yul\":12235:12237   */\n      0x17\n        /* \"#utility.yul\":12230:12233   */\n      dup4\n        /* \"#utility.yul\":12171:12238   */\n      tag_190\n      jump\t// in\n    tag_368:\n        /* \"#utility.yul\":12164:12238   */\n      swap2\n      pop\n        /* \"#utility.yul\":12247:12340   */\n      tag_369\n        /* \"#utility.yul\":12336:12339   */\n      dup3\n        /* \"#utility.yul\":12247:12340   */\n      tag_214\n      jump\t// in\n    tag_369:\n        /* \"#utility.yul\":12365:12367   */\n      0x20\n        /* \"#utility.yul\":12360:12363   */\n      dup3\n        /* \"#utility.yul\":12356:12368   */\n      add\n        /* \"#utility.yul\":12349:12368   */\n      swap1\n      pop\n        /* \"#utility.yul\":12008:12374   */\n      swap2\n      swap1\n      pop\n      jump\t// out\n        /* \"#utility.yul\":12380:12799   */\n    tag_115:\n        /* \"#utility.yul\":12546:12550   */\n      0x00\n        /* \"#utility.yul\":12584:12586   */\n      0x20\n        /* \"#utility.yul\":12573:12582   */\n      dup3\n        /* \"#utility.yul\":12569:12587   */\n      add\n        /* \"#utility.yul\":12561:12587   */\n      swap1\n      pop\n        /* \"#utility.yul\":12633:12642   */\n      dup2\n        /* \"#utility.yul\":12627:12631   */\n      dup2\n        /* \"#utility.yul\":12623:12643   */\n      sub\n        /* \"#utility.yul\":12619:12620   */\n      0x00\n        /* \"#utility.yul\":12608:12617   */\n      dup4\n        /* \"#utility.yul\":12604:12621   */\n      add\n        /* \"#utility.yul\":12597:12644   */\n      mstore\n        /* \"#utility.yul\":12661:12792   */\n      tag_371\n        /* \"#utility.yul\":12787:12791   */\n      dup2\n        /* \"#utility.yul\":12661:12792   */\n      tag_215\n      jump\t// in\n    tag_371:\n        /* \"#utility.yul\":12653:12792   */\n      swap1\n      pop\n        /* \"#utility.yul\":12380:12799   */\n      swap2\n      swap1\n      pop\n      jump\t// out\n        /* \"#utility.yul\":12805:12987   */\n    tag_216:\n        /* \"#utility.yul\":12945:12979   */\n      0x54686973207265717565737420697320616c726561647920636f6d706c657465\n        /* \"#utility.yul\":12941:12942   */\n      0x00\n        /* \"#utility.yul\":12933:12939   */\n      dup3\n        /* \"#utility.yul\":12929:12943   */\n      add\n        /* \"#utility.yul\":12922:12980   */\n      mstore\n        /* \"#utility.yul\":12805:12987   */\n      pop\n      jump\t// out\n        /* \"#utility.yul\":12993:13359   */\n    tag_217:\n        /* \"#utility.yul\":13135:13138   */\n      0x00\n        /* \"#utility.yul\":13156:13223   */\n      tag_374\n        /* \"#utility.yul\":13220:13222   */\n      0x20\n        /* \"#utility.yul\":13215:13218   */\n      dup4\n        /* \"#utility.yul\":13156:13223   */\n      tag_190\n      jump\t// in\n    tag_374:\n        /* \"#utility.yul\":13149:13223   */\n      swap2\n      pop\n        /* \"#utility.yul\":13232:13325   */\n      tag_375\n        /* \"#utility.yul\":13321:13324   */\n      dup3\n        /* \"#utility.yul\":13232:13325   */\n      tag_216\n      jump\t// in\n    tag_375:\n        /* \"#utility.yul\":13350:13352   */\n      0x20\n        /* \"#utility.yul\":13345:13348   */\n      dup3\n        /* \"#utility.yul\":13341:13353   */\n      add\n        /* \"#utility.yul\":13334:13353   */\n      swap1\n      pop\n        /* \"#utility.yul\":12993:13359   */\n      swap2\n      swap1\n      pop\n      jump\t// out\n        /* \"#utility.yul\":13365:13784   */\n    tag_118:\n        /* \"#utility.yul\":13531:13535   */\n      0x00\n        /* \"#utility.yul\":13569:13571   */\n      0x20\n        /* \"#utility.yul\":13558:13567   */\n      dup3\n        /* \"#utility.yul\":13554:13572   */\n      add\n        /* \"#utility.yul\":13546:13572   */\n      swap1\n      pop\n        /* \"#utility.yul\":13618:13627   */\n      dup2\n        /* \"#utility.yul\":13612:13616   */\n      dup2\n        /* \"#utility.yul\":13608:13628   */\n      sub\n        /* \"#utility.yul\":13604:13605   */\n      0x00\n        /* \"#utility.yul\":13593:13602   */\n      dup4\n        /* \"#utility.yul\":13589:13606   */\n      add\n        /* \"#utility.yul\":13582:13629   */\n      mstore\n        /* \"#utility.yul\":13646:13777   */\n      tag_377\n        /* \"#utility.yul\":13772:13776   */\n      dup2\n        /* \"#utility.yul\":13646:13777   */\n      tag_217\n      jump\t// in\n    tag_377:\n        /* \"#utility.yul\":13638:13777   */\n      swap1\n      pop\n        /* \"#utility.yul\":13365:13784   */\n      swap2\n      swap1\n      pop\n      jump\t// out\n        /* \"#utility.yul\":13790:13970   */\n    tag_218:\n        /* \"#utility.yul\":13838:13915   */\n      0x4e487b7100000000000000000000000000000000000000000000000000000000\n        /* \"#utility.yul\":13835:13836   */\n      0x00\n        /* \"#utility.yul\":13828:13916   */\n      mstore\n        /* \"#utility.yul\":13935:13939   */\n      0x12\n        /* \"#utility.yul\":13932:13933   */\n      0x04\n        /* \"#utility.yul\":13925:13940   */\n      mstore\n        /* \"#utility.yul\":13959:13963   */\n      0x24\n        /* \"#utility.yul\":13956:13957   */\n      0x00\n        /* \"#utility.yul\":13949:13964   */\n      revert\n        /* \"#utility.yul\":13976:14161   */\n    tag_120:\n        /* \"#utility.yul\":14016:14017   */\n      0x00\n        /* \"#utility.yul\":14033:14053   */\n      tag_380\n        /* \"#utility.yul\":14051:14052   */\n      dup3\n        /* \"#utility.yul\":14033:14053   */\n      tag_180\n      jump\t// in\n    tag_380:\n        /* \"#utility.yul\":14028:14053   */\n      swap2\n      pop\n        /* \"#utility.yul\":14067:14087   */\n      tag_381\n        /* \"#utility.yul\":14085:14086   */\n      dup4\n        /* \"#utility.yul\":14067:14087   */\n      tag_180\n      jump\t// in\n    tag_381:\n        /* \"#utility.yul\":14062:14087   */\n      swap3\n      pop\n        /* \"#utility.yul\":14106:14107   */\n      dup3\n        /* \"#utility.yul\":14096:14131   */\n      tag_382\n      jumpi\n        /* \"#utility.yul\":14111:14129   */\n      tag_383\n      tag_218\n      jump\t// in\n    tag_383:\n        /* \"#utility.yul\":14096:14131   */\n    tag_382:\n        /* \"#utility.yul\":14153:14154   */\n      dup3\n        /* \"#utility.yul\":14150:14151   */\n      dup3\n        /* \"#utility.yul\":14146:14155   */\n      div\n        /* \"#utility.yul\":14141:14155   */\n      swap1\n      pop\n        /* \"#utility.yul\":13976:14161   */\n      swap3\n      swap2\n      pop\n      pop\n      jump\t// out\n        /* \"#utility.yul\":14167:14348   */\n    tag_219:\n        /* \"#utility.yul\":14307:14340   */\n      0x4e6f7420737566696369656e74206e756d626572206f6620766f746572732100\n        /* \"#utility.yul\":14303:14304   */\n      0x00\n        /* \"#utility.yul\":14295:14301   */\n      dup3\n        /* \"#utility.yul\":14291:14305   */\n      add\n        /* \"#utility.yul\":14284:14341   */\n      mstore\n        /* \"#utility.yul\":14167:14348   */\n      pop\n      jump\t// out\n        /* \"#utility.yul\":14354:14720   */\n    tag_220:\n        /* \"#utility.yul\":14496:14499   */\n      0x00\n        /* \"#utility.yul\":14517:14584   */\n      tag_386\n        /* \"#utility.yul\":14581:14583   */\n      0x1f\n        /* \"#utility.yul\":14576:14579   */\n      dup4\n        /* \"#utility.yul\":14517:14584   */\n      tag_190\n      jump\t// in\n    tag_386:\n        /* \"#utility.yul\":14510:14584   */\n      swap2\n      pop\n        /* \"#utility.yul\":14593:14686   */\n      tag_387\n        /* \"#utility.yul\":14682:14685   */\n      dup3\n        /* \"#utility.yul\":14593:14686   */\n      tag_219\n      jump\t// in\n    tag_387:\n        /* \"#utility.yul\":14711:14713   */\n      0x20\n        /* \"#utility.yul\":14706:14709   */\n      dup3\n        /* \"#utility.yul\":14702:14714   */\n      add\n        /* \"#utility.yul\":14695:14714   */\n      swap1\n      pop\n        /* \"#utility.yul\":14354:14720   */\n      swap2\n      swap1\n      pop\n      jump\t// out\n        /* \"#utility.yul\":14726:15145   */\n    tag_123:\n        /* \"#utility.yul\":14892:14896   */\n      0x00\n        /* \"#utility.yul\":14930:14932   */\n      0x20\n        /* \"#utility.yul\":14919:14928   */\n      dup3\n        /* \"#utility.yul\":14915:14933   */\n      add\n        /* \"#utility.yul\":14907:14933   */\n      swap1\n      pop\n        /* \"#utility.yul\":14979:14988   */\n      dup2\n        /* \"#utility.yul\":14973:14977   */\n      dup2\n        /* \"#utility.yul\":14969:14989   */\n      sub\n        /* \"#utility.yul\":14965:14966   */\n      0x00\n        /* \"#utility.yul\":14954:14963   */\n      dup4\n        /* \"#utility.yul\":14950:14967   */\n      add\n        /* \"#utility.yul\":14943:14990   */\n      mstore\n        /* \"#utility.yul\":15007:15138   */\n      tag_389\n        /* \"#utility.yul\":15133:15137   */\n      dup2\n        /* \"#utility.yul\":15007:15138   */\n      tag_220\n      jump\t// in\n    tag_389:\n        /* \"#utility.yul\":14999:15138   */\n      swap1\n      pop\n        /* \"#utility.yul\":14726:15145   */\n      swap2\n      swap1\n      pop\n      jump\t// out\n        /* \"#utility.yul\":15151:15211   */\n    tag_221:\n        /* \"#utility.yul\":15179:15182   */\n      0x00\n        /* \"#utility.yul\":15200:15205   */\n      dup2\n        /* \"#utility.yul\":15193:15205   */\n      swap1\n      pop\n        /* \"#utility.yul\":15151:15211   */\n      swap2\n      swap1\n      pop\n      jump\t// out\n        /* \"#utility.yul\":15217:15359   */\n    tag_222:\n        /* \"#utility.yul\":15267:15276   */\n      0x00\n        /* \"#utility.yul\":15300:15353   */\n      tag_392\n        /* \"#utility.yul\":15318:15352   */\n      tag_393\n        /* \"#utility.yul\":15327:15351   */\n      tag_394\n        /* \"#utility.yul\":15345:15350   */\n      dup5\n        /* \"#utility.yul\":15327:15351   */\n      tag_183\n      jump\t// in\n    tag_394:\n        /* \"#utility.yul\":15318:15352   */\n      tag_221\n      jump\t// in\n    tag_393:\n        /* \"#utility.yul\":15300:15353   */\n      tag_183\n      jump\t// in\n    tag_392:\n        /* \"#utility.yul\":15287:15353   */\n      swap1\n      pop\n        /* \"#utility.yul\":15217:15359   */\n      swap2\n      swap1\n      pop\n      jump\t// out\n        /* \"#utility.yul\":15365:15491   */\n    tag_223:\n        /* \"#utility.yul\":15415:15424   */\n      0x00\n        /* \"#utility.yul\":15448:15485   */\n      tag_396\n        /* \"#utility.yul\":15479:15484   */\n      dup3\n        /* \"#utility.yul\":15448:15485   */\n      tag_222\n      jump\t// in\n    tag_396:\n        /* \"#utility.yul\":15435:15485   */\n      swap1\n      pop\n        /* \"#utility.yul\":15365:15491   */\n      swap2\n      swap1\n      pop\n      jump\t// out\n        /* \"#utility.yul\":15497:15631   */\n    tag_224:\n        /* \"#utility.yul\":15555:15564   */\n      0x00\n        /* \"#utility.yul\":15588:15625   */\n      tag_398\n        /* \"#utility.yul\":15619:15624   */\n      dup3\n        /* \"#utility.yul\":15588:15625   */\n      tag_223\n      jump\t// in\n    tag_398:\n        /* \"#utility.yul\":15575:15625   */\n      swap1\n      pop\n        /* \"#utility.yul\":15497:15631   */\n      swap2\n      swap1\n      pop\n      jump\t// out\n        /* \"#utility.yul\":15637:15784   */\n    tag_225:\n        /* \"#utility.yul\":15732:15777   */\n      tag_400\n        /* \"#utility.yul\":15771:15776   */\n      dup2\n        /* \"#utility.yul\":15732:15777   */\n      tag_224\n      jump\t// in\n    tag_400:\n        /* \"#utility.yul\":15727:15730   */\n      dup3\n        /* \"#utility.yul\":15720:15778   */\n      mstore\n        /* \"#utility.yul\":15637:15784   */\n      pop\n      pop\n      jump\t// out\n        /* \"#utility.yul\":15790:16138   */\n    tag_127:\n        /* \"#utility.yul\":15919:15923   */\n      0x00\n        /* \"#utility.yul\":15957:15959   */\n      0x40\n        /* \"#utility.yul\":15946:15955   */\n      dup3\n        /* \"#utility.yul\":15942:15960   */\n      add\n        /* \"#utility.yul\":15934:15960   */\n      swap1\n      pop\n        /* \"#utility.yul\":15970:16049   */\n      tag_402\n        /* \"#utility.yul\":16046:16047   */\n      0x00\n        /* \"#utility.yul\":16035:16044   */\n      dup4\n        /* \"#utility.yul\":16031:16048   */\n      add\n        /* \"#utility.yul\":16022:16028   */\n      dup6\n        /* \"#utility.yul\":15970:16049   */\n      tag_225\n      jump\t// in\n    tag_402:\n        /* \"#utility.yul\":16059:16131   */\n      tag_403\n        /* \"#utility.yul\":16127:16129   */\n      0x20\n        /* \"#utility.yul\":16116:16125   */\n      dup4\n        /* \"#utility.yul\":16112:16130   */\n      add\n        /* \"#utility.yul\":16103:16109   */\n      dup5\n        /* \"#utility.yul\":16059:16131   */\n      tag_187\n      jump\t// in\n    tag_403:\n        /* \"#utility.yul\":15790:16138   */\n      swap4\n      swap3\n      pop\n      pop\n      pop\n      jump\t// out\n        /* \"#utility.yul\":16144:16324   */\n    tag_226:\n        /* \"#utility.yul\":16192:16269   */\n      0x4e487b7100000000000000000000000000000000000000000000000000000000\n        /* \"#utility.yul\":16189:16190   */\n      0x00\n        /* \"#utility.yul\":16182:16270   */\n      mstore\n        /* \"#utility.yul\":16289:16293   */\n      0x22\n        /* \"#utility.yul\":16286:16287   */\n      0x04\n        /* \"#utility.yul\":16279:16294   */\n      mstore\n        /* \"#utility.yul\":16313:16317   */\n      0x24\n        /* \"#utility.yul\":16310:16311   */\n      0x00\n        /* \"#utility.yul\":16303:16318   */\n      revert\n        /* \"#utility.yul\":16330:16650   */\n    tag_132:\n        /* \"#utility.yul\":16374:16380   */\n      0x00\n        /* \"#utility.yul\":16411:16412   */\n      0x02\n        /* \"#utility.yul\":16405:16409   */\n      dup3\n        /* \"#utility.yul\":16401:16413   */\n      div\n        /* \"#utility.yul\":16391:16413   */\n      swap1\n      pop\n        /* \"#utility.yul\":16458:16459   */\n      0x01\n        /* \"#utility.yul\":16452:16456   */\n      dup3\n        /* \"#utility.yul\":16448:16460   */\n      and\n        /* \"#utility.yul\":16479:16497   */\n      dup1\n        /* \"#utility.yul\":16469:16550   */\n      tag_406\n      jumpi\n        /* \"#utility.yul\":16535:16539   */\n      0x7f\n        /* \"#utility.yul\":16527:16533   */\n      dup3\n        /* \"#utility.yul\":16523:16540   */\n      and\n        /* \"#utility.yul\":16513:16540   */\n      swap2\n      pop\n        /* \"#utility.yul\":16469:16550   */\n    tag_406:\n        /* \"#utility.yul\":16597:16599   */\n      0x20\n        /* \"#utility.yul\":16589:16595   */\n      dup3\n        /* \"#utility.yul\":16586:16600   */\n      lt\n        /* \"#utility.yul\":16566:16584   */\n      dup2\n        /* \"#utility.yul\":16563:16601   */\n      sub\n        /* \"#utility.yul\":16560:16644   */\n      tag_407\n      jumpi\n        /* \"#utility.yul\":16616:16634   */\n      tag_408\n      tag_226\n      jump\t// in\n    tag_408:\n        /* \"#utility.yul\":16560:16644   */\n    tag_407:\n        /* \"#utility.yul\":16381:16650   */\n      pop\n        /* \"#utility.yul\":16330:16650   */\n      swap2\n      swap1\n      pop\n      jump\t// out\n        /* \"#utility.yul\":16656:17205   */\n    tag_145:\n        /* \"#utility.yul\":16833:16837   */\n      0x00\n        /* \"#utility.yul\":16871:16873   */\n      0x60\n        /* \"#utility.yul\":16860:16869   */\n      dup3\n        /* \"#utility.yul\":16856:16874   */\n      add\n        /* \"#utility.yul\":16848:16874   */\n      swap1\n      pop\n        /* \"#utility.yul\":16920:16929   */\n      dup2\n        /* \"#utility.yul\":16914:16918   */\n      dup2\n        /* \"#utility.yul\":16910:16930   */\n      sub\n        /* \"#utility.yul\":16906:16907   */\n      0x00\n        /* \"#utility.yul\":16895:16904   */\n      dup4\n        /* \"#utility.yul\":16891:16908   */\n      add\n        /* \"#utility.yul\":16884:16931   */\n      mstore\n        /* \"#utility.yul\":16948:17026   */\n      tag_410\n        /* \"#utility.yul\":17021:17025   */\n      dup2\n        /* \"#utility.yul\":17012:17018   */\n      dup7\n        /* \"#utility.yul\":16948:17026   */\n      tag_193\n      jump\t// in\n    tag_410:\n        /* \"#utility.yul\":16940:17026   */\n      swap1\n      pop\n        /* \"#utility.yul\":17036:17116   */\n      tag_411\n        /* \"#utility.yul\":17112:17114   */\n      0x20\n        /* \"#utility.yul\":17101:17110   */\n      dup4\n        /* \"#utility.yul\":17097:17115   */\n      add\n        /* \"#utility.yul\":17088:17094   */\n      dup6\n        /* \"#utility.yul\":17036:17116   */\n      tag_225\n      jump\t// in\n    tag_411:\n        /* \"#utility.yul\":17126:17198   */\n      tag_412\n        /* \"#utility.yul\":17194:17196   */\n      0x40\n        /* \"#utility.yul\":17183:17192   */\n      dup4\n        /* \"#utility.yul\":17179:17197   */\n      add\n        /* \"#utility.yul\":17170:17176   */\n      dup5\n        /* \"#utility.yul\":17126:17198   */\n      tag_187\n      jump\t// in\n    tag_412:\n        /* \"#utility.yul\":16656:17205   */\n      swap5\n      swap4\n      pop\n      pop\n      pop\n      pop\n      jump\t// out\n        /* \"#utility.yul\":17211:17381   */\n    tag_227:\n        /* \"#utility.yul\":17351:17373   */\n      0x446561646c696e6520686173207061737365642e000000000000000000000000\n        /* \"#utility.yul\":17347:17348   */\n      0x00\n        /* \"#utility.yul\":17339:17345   */\n      dup3\n        /* \"#utility.yul\":17335:17349   */\n      add\n        /* \"#utility.yul\":17328:17374   */\n      mstore\n        /* \"#utility.yul\":17211:17381   */\n      pop\n      jump\t// out\n        /* \"#utility.yul\":17387:17753   */\n    tag_228:\n        /* \"#utility.yul\":17529:17532   */\n      0x00\n        /* \"#utility.yul\":17550:17617   */\n      tag_415\n        /* \"#utility.yul\":17614:17616   */\n      0x14\n        /* \"#utility.yul\":17609:17612   */\n      dup4\n        /* \"#utility.yul\":17550:17617   */\n      tag_190\n      jump\t// in\n    tag_415:\n        /* \"#utility.yul\":17543:17617   */\n      swap2\n      pop\n        /* \"#utility.yul\":17626:17719   */\n      tag_416\n        /* \"#utility.yul\":17715:17718   */\n      dup3\n        /* \"#utility.yul\":17626:17719   */\n      tag_227\n      jump\t// in\n    tag_416:\n        /* \"#utility.yul\":17744:17746   */\n      0x20\n        /* \"#utility.yul\":17739:17742   */\n      dup3\n        /* \"#utility.yul\":17735:17747   */\n      add\n        /* \"#utility.yul\":17728:17747   */\n      swap1\n      pop\n        /* \"#utility.yul\":17387:17753   */\n      swap2\n      swap1\n      pop\n      jump\t// out\n        /* \"#utility.yul\":17759:18178   */\n    tag_149:\n        /* \"#utility.yul\":17925:17929   */\n      0x00\n        /* \"#utility.yul\":17963:17965   */\n      0x20\n        /* \"#utility.yul\":17952:17961   */\n      dup3\n        /* \"#utility.yul\":17948:17966   */\n      add\n        /* \"#utility.yul\":17940:17966   */\n      swap1\n      pop\n        /* \"#utility.yul\":18012:18021   */\n      dup2\n        /* \"#utility.yul\":18006:18010   */\n      dup2\n        /* \"#utility.yul\":18002:18022   */\n      sub\n        /* \"#utility.yul\":17998:17999   */\n      0x00\n        /* \"#utility.yul\":17987:17996   */\n      dup4\n        /* \"#utility.yul\":17983:18000   */\n      add\n        /* \"#utility.yul\":17976:18023   */\n      mstore\n        /* \"#utility.yul\":18040:18171   */\n      tag_418\n        /* \"#utility.yul\":18166:18170   */\n      dup2\n        /* \"#utility.yul\":18040:18171   */\n      tag_228\n      jump\t// in\n    tag_418:\n        /* \"#utility.yul\":18032:18171   */\n      swap1\n      pop\n        /* \"#utility.yul\":17759:18178   */\n      swap2\n      swap1\n      pop\n      jump\t// out\n        /* \"#utility.yul\":18184:18357   */\n    tag_229:\n        /* \"#utility.yul\":18324:18349   */\n      0x54686520676f616c20776173206e6f7420726561636821000000000000000000\n        /* \"#utility.yul\":18320:18321   */\n      0x00\n        /* \"#utility.yul\":18312:18318   */\n      dup3\n        /* \"#utility.yul\":18308:18322   */\n      add\n        /* \"#utility.yul\":18301:18350   */\n      mstore\n        /* \"#utility.yul\":18184:18357   */\n      pop\n      jump\t// out\n        /* \"#utility.yul\":18363:18729   */\n    tag_230:\n        /* \"#utility.yul\":18505:18508   */\n      0x00\n        /* \"#utility.yul\":18526:18593   */\n      tag_421\n        /* \"#utility.yul\":18590:18592   */\n      0x17\n        /* \"#utility.yul\":18585:18588   */\n      dup4\n        /* \"#utility.yul\":18526:18593   */\n      tag_190\n      jump\t// in\n    tag_421:\n        /* \"#utility.yul\":18519:18593   */\n      swap2\n      pop\n        /* \"#utility.yul\":18602:18695   */\n      tag_422\n        /* \"#utility.yul\":18691:18694   */\n      dup3\n        /* \"#utility.yul\":18602:18695   */\n      tag_229\n      jump\t// in\n    tag_422:\n        /* \"#utility.yul\":18720:18722   */\n      0x20\n        /* \"#utility.yul\":18715:18718   */\n      dup3\n        /* \"#utility.yul\":18711:18723   */\n      add\n        /* \"#utility.yul\":18704:18723   */\n      swap1\n      pop\n        /* \"#utility.yul\":18363:18729   */\n      swap2\n      swap1\n      pop\n      jump\t// out\n        /* \"#utility.yul\":18735:19154   */\n    tag_153:\n        /* \"#utility.yul\":18901:18905   */\n      0x00\n        /* \"#utility.yul\":18939:18941   */\n      0x20\n        /* \"#utility.yul\":18928:18937   */\n      dup3\n        /* \"#utility.yul\":18924:18942   */\n      add\n        /* \"#utility.yul\":18916:18942   */\n      swap1\n      pop\n        /* \"#utility.yul\":18988:18997   */\n      dup2\n        /* \"#utility.yul\":18982:18986   */\n      dup2\n        /* \"#utility.yul\":18978:18998   */\n      sub\n        /* \"#utility.yul\":18974:18975   */\n      0x00\n        /* \"#utility.yul\":18963:18972   */\n      dup4\n        /* \"#utility.yul\":18959:18976   */\n      add\n        /* \"#utility.yul\":18952:18999   */\n      mstore\n        /* \"#utility.yul\":19016:19147   */\n      tag_424\n        /* \"#utility.yul\":19142:19146   */\n      dup2\n        /* \"#utility.yul\":19016:19147   */\n      tag_230\n      jump\t// in\n    tag_424:\n        /* \"#utility.yul\":19008:19147   */\n      swap1\n      pop\n        /* \"#utility.yul\":18735:19154   */\n      swap2\n      swap1\n      pop\n      jump\t// out\n        /* \"#utility.yul\":19160:19335   */\n    tag_231:\n        /* \"#utility.yul\":19300:19327   */\n      0x596f7520617265206e6f742061207061727469636970616e7400000000000000\n        /* \"#utility.yul\":19296:19297   */\n      0x00\n        /* \"#utility.yul\":19288:19294   */\n      dup3\n        /* \"#utility.yul\":19284:19298   */\n      add\n        /* \"#utility.yul\":19277:19328   */\n      mstore\n        /* \"#utility.yul\":19160:19335   */\n      pop\n      jump\t// out\n        /* \"#utility.yul\":19341:19707   */\n    tag_232:\n        /* \"#utility.yul\":19483:19486   */\n      0x00\n        /* \"#utility.yul\":19504:19571   */\n      tag_427\n        /* \"#utility.yul\":19568:19570   */\n      0x19\n        /* \"#utility.yul\":19563:19566   */\n      dup4\n        /* \"#utility.yul\":19504:19571   */\n      tag_190\n      jump\t// in\n    tag_427:\n        /* \"#utility.yul\":19497:19571   */\n      swap2\n      pop\n        /* \"#utility.yul\":19580:19673   */\n      tag_428\n        /* \"#utility.yul\":19669:19672   */\n      dup3\n        /* \"#utility.yul\":19580:19673   */\n      tag_231\n      jump\t// in\n    tag_428:\n        /* \"#utility.yul\":19698:19700   */\n      0x20\n        /* \"#utility.yul\":19693:19696   */\n      dup3\n        /* \"#utility.yul\":19689:19701   */\n      add\n        /* \"#utility.yul\":19682:19701   */\n      swap1\n      pop\n        /* \"#utility.yul\":19341:19707   */\n      swap2\n      swap1\n      pop\n      jump\t// out\n        /* \"#utility.yul\":19713:20132   */\n    tag_156:\n        /* \"#utility.yul\":19879:19883   */\n      0x00\n        /* \"#utility.yul\":19917:19919   */\n      0x20\n        /* \"#utility.yul\":19906:19915   */\n      dup3\n        /* \"#utility.yul\":19902:19920   */\n      add\n        /* \"#utility.yul\":19894:19920   */\n      swap1\n      pop\n        /* \"#utility.yul\":19966:19975   */\n      dup2\n        /* \"#utility.yul\":19960:19964   */\n      dup2\n        /* \"#utility.yul\":19956:19976   */\n      sub\n        /* \"#utility.yul\":19952:19953   */\n      0x00\n        /* \"#utility.yul\":19941:19950   */\n      dup4\n        /* \"#utility.yul\":19937:19954   */\n      add\n        /* \"#utility.yul\":19930:19977   */\n      mstore\n        /* \"#utility.yul\":19994:20125   */\n      tag_430\n        /* \"#utility.yul\":20120:20124   */\n      dup2\n        /* \"#utility.yul\":19994:20125   */\n      tag_232\n      jump\t// in\n    tag_430:\n        /* \"#utility.yul\":19986:20125   */\n      swap1\n      pop\n        /* \"#utility.yul\":19713:20132   */\n      swap2\n      swap1\n      pop\n      jump\t// out\n        /* \"#utility.yul\":20138:20369   */\n    tag_233:\n        /* \"#utility.yul\":20278:20312   */\n      0x596f75206d7573742062652061207061727469636970616e7420746f20626520\n        /* \"#utility.yul\":20274:20275   */\n      0x00\n        /* \"#utility.yul\":20266:20272   */\n      dup3\n        /* \"#utility.yul\":20262:20276   */\n      add\n        /* \"#utility.yul\":20255:20313   */\n      mstore\n        /* \"#utility.yul\":20347:20361   */\n      0x61626c6520746f20766f74650000000000000000000000000000000000000000\n        /* \"#utility.yul\":20342:20344   */\n      0x20\n        /* \"#utility.yul\":20334:20340   */\n      dup3\n        /* \"#utility.yul\":20330:20345   */\n      add\n        /* \"#utility.yul\":20323:20362   */\n      mstore\n        /* \"#utility.yul\":20138:20369   */\n      pop\n      jump\t// out\n        /* \"#utility.yul\":20375:20741   */\n    tag_234:\n        /* \"#utility.yul\":20517:20520   */\n      0x00\n        /* \"#utility.yul\":20538:20605   */\n      tag_433\n        /* \"#utility.yul\":20602:20604   */\n      0x2c\n        /* \"#utility.yul\":20597:20600   */\n      dup4\n        /* \"#utility.yul\":20538:20605   */\n      tag_190\n      jump\t// in\n    tag_433:\n        /* \"#utility.yul\":20531:20605   */\n      swap2\n      pop\n        /* \"#utility.yul\":20614:20707   */\n      tag_434\n        /* \"#utility.yul\":20703:20706   */\n      dup3\n        /* \"#utility.yul\":20614:20707   */\n      tag_233\n      jump\t// in\n    tag_434:\n        /* \"#utility.yul\":20732:20734   */\n      0x40\n        /* \"#utility.yul\":20727:20730   */\n      dup3\n        /* \"#utility.yul\":20723:20735   */\n      add\n        /* \"#utility.yul\":20716:20735   */\n      swap1\n      pop\n        /* \"#utility.yul\":20375:20741   */\n      swap2\n      swap1\n      pop\n      jump\t// out\n        /* \"#utility.yul\":20747:21166   */\n    tag_162:\n        /* \"#utility.yul\":20913:20917   */\n      0x00\n        /* \"#utility.yul\":20951:20953   */\n      0x20\n        /* \"#utility.yul\":20940:20949   */\n      dup3\n        /* \"#utility.yul\":20936:20954   */\n      add\n        /* \"#utility.yul\":20928:20954   */\n      swap1\n      pop\n        /* \"#utility.yul\":21000:21009   */\n      dup2\n        /* \"#utility.yul\":20994:20998   */\n      dup2\n        /* \"#utility.yul\":20990:21010   */\n      sub\n        /* \"#utility.yul\":20986:20987   */\n      0x00\n        /* \"#utility.yul\":20975:20984   */\n      dup4\n        /* \"#utility.yul\":20971:20988   */\n      add\n        /* \"#utility.yul\":20964:21011   */\n      mstore\n        /* \"#utility.yul\":21028:21159   */\n      tag_436\n        /* \"#utility.yul\":21154:21158   */\n      dup2\n        /* \"#utility.yul\":21028:21159   */\n      tag_234\n      jump\t// in\n    tag_436:\n        /* \"#utility.yul\":21020:21159   */\n      swap1\n      pop\n        /* \"#utility.yul\":20747:21166   */\n      swap2\n      swap1\n      pop\n      jump\t// out\n        /* \"#utility.yul\":21172:21340   */\n    tag_235:\n        /* \"#utility.yul\":21312:21332   */\n      0x596f7520616c726561647920766f746564210000000000000000000000000000\n        /* \"#utility.yul\":21308:21309   */\n      0x00\n        /* \"#utility.yul\":21300:21306   */\n      dup3\n        /* \"#utility.yul\":21296:21310   */\n      add\n        /* \"#utility.yul\":21289:21333   */\n      mstore\n        /* \"#utility.yul\":21172:21340   */\n      pop\n      jump\t// out\n        /* \"#utility.yul\":21346:21712   */\n    tag_236:\n        /* \"#utility.yul\":21488:21491   */\n      0x00\n        /* \"#utility.yul\":21509:21576   */\n      tag_439\n        /* \"#utility.yul\":21573:21575   */\n      0x12\n        /* \"#utility.yul\":21568:21571   */\n      dup4\n        /* \"#utility.yul\":21509:21576   */\n      tag_190\n      jump\t// in\n    tag_439:\n        /* \"#utility.yul\":21502:21576   */\n      swap2\n      pop\n        /* \"#utility.yul\":21585:21678   */\n      tag_440\n        /* \"#utility.yul\":21674:21677   */\n      dup3\n        /* \"#utility.yul\":21585:21678   */\n      tag_235\n      jump\t// in\n    tag_440:\n        /* \"#utility.yul\":21703:21705   */\n      0x20\n        /* \"#utility.yul\":21698:21701   */\n      dup3\n        /* \"#utility.yul\":21694:21706   */\n      add\n        /* \"#utility.yul\":21687:21706   */\n      swap1\n      pop\n        /* \"#utility.yul\":21346:21712   */\n      swap2\n      swap1\n      pop\n      jump\t// out\n        /* \"#utility.yul\":21718:22137   */\n    tag_165:\n        /* \"#utility.yul\":21884:21888   */\n      0x00\n        /* \"#utility.yul\":21922:21924   */\n      0x20\n        /* \"#utility.yul\":21911:21920   */\n      dup3\n        /* \"#utility.yul\":21907:21925   */\n      add\n        /* \"#utility.yul\":21899:21925   */\n      swap1\n      pop\n        /* \"#utility.yul\":21971:21980   */\n      dup2\n        /* \"#utility.yul\":21965:21969   */\n      dup2\n        /* \"#utility.yul\":21961:21981   */\n      sub\n        /* \"#utility.yul\":21957:21958   */\n      0x00\n        /* \"#utility.yul\":21946:21955   */\n      dup4\n        /* \"#utility.yul\":21942:21959   */\n      add\n        /* \"#utility.yul\":21935:21982   */\n      mstore\n        /* \"#utility.yul\":21999:22130   */\n      tag_442\n        /* \"#utility.yul\":22125:22129   */\n      dup2\n        /* \"#utility.yul\":21999:22130   */\n      tag_236\n      jump\t// in\n    tag_442:\n        /* \"#utility.yul\":21991:22130   */\n      swap1\n      pop\n        /* \"#utility.yul\":21718:22137   */\n      swap2\n      swap1\n      pop\n      jump\t// out\n\n    auxdata: 0xa264697066735822122067ec27b694fa9c24ee653c6060de75a8cb2e97a2feba219fac18cf3e4278415564736f6c634300080d0033\n}\n","bytecode":{"linkReferences":{},"object":"60806040523480156200001157600080fd5b5060405162001c4a38038062001c4a83398181016040528101906200003791906200013b565b806000806101000a81548173ffffffffffffffffffffffffffffffffffffffff021916908373ffffffffffffffffffffffffffffffffffffffff16021790555083600181905550816002819055508260058190555050505050620001ad565b600080fd5b6000819050919050565b620000b0816200009b565b8114620000bc57600080fd5b50565b600081519050620000d081620000a5565b92915050565b600073ffffffffffffffffffffffffffffffffffffffff82169050919050565b60006200010382620000d6565b9050919050565b6200011581620000f6565b81146200012157600080fd5b50565b60008151905062000135816200010a565b92915050565b6000806000806080858703121562000158576200015762000096565b5b60006200016887828801620000bf565b94505060206200017b87828801620000bf565b93505060406200018e87828801620000bf565b9250506060620001a18782880162000124565b91505092959194509250565b611a8d80620001bd6000396000f3fe6080604052600436106100f75760003560e01c806381d12c581161008a578063b2d5ae4411610059578063b2d5ae4414610337578063c59ee1dc1461034e578063d7bb99ba14610379578063d7d1bbdb1461038357610106565b806381d12c58146102775780638a9cfd55146102b8578063937e09b1146102e15780639fb42b1f1461030c57610106565b806340193883116100c657806340193883146101c75780634051ddac146101f25780634377cf6514610221578063481c6a751461024c57610106565b8063034410061461010b57806309e69ede1461013457806312065fe01461017157806329dcb0cf1461019c57610106565b36610106576101046103ac565b005b600080fd5b34801561011757600080fd5b50610132600480360381019061012d9190610f1f565b6104fa565b005b34801561014057600080fd5b5061015b60048036038101906101569190610faa565b61077d565b6040516101689190610fe6565b60405180910390f35b34801561017d57600080fd5b50610186610795565b6040516101939190610fe6565b60405180910390f35b3480156101a857600080fd5b506101b161079d565b6040516101be9190610fe6565b60405180910390f35b3480156101d357600080fd5b506101dc6107a3565b6040516101e99190610fe6565b60405180910390f35b3480156101fe57600080fd5b506102076107a9565b604051610218959493929190611010565b60405180910390f35b34801561022d57600080fd5b506102366107f4565b6040516102439190610fe6565b60405180910390f35b34801561025857600080fd5b506102616107fa565b60405161026e9190611063565b60405180910390f35b34801561028357600080fd5b5061029e60048036038101906102999190610f1f565b61081e565b6040516102af959493929190611153565b60405180910390f35b3480156102c457600080fd5b506102df60048036038101906102da919061130e565b610909565b005b3480156102ed57600080fd5b506102f6610a95565b6040516103039190610fe6565b60405180910390f35b34801561031857600080fd5b50610321610a9b565b60405161032e9190610fe6565b60405180910390f35b34801561034357600080fd5b5061034c610aa1565b005b34801561035a57600080fd5b50610363610c86565b6040516103709190610fe6565b60405180910390f35b6103816103ac565b005b34801561038f57600080fd5b506103aa60048036038101906103a59190610f1f565b610c8c565b005b60015434116103f0576040517f08c379a00000000000000000000000000000000000000000000000000000000081526004016103e7906113c9565b60405180910390fd5b6000600760003373ffffffffffffffffffffffffffffffffffffffff1673ffffffffffffffffffffffffffffffffffffffff1681526020019081526020016000205403610450576004600081548092919061044a90611418565b91905055505b34600760003373ffffffffffffffffffffffffffffffffffffffff1673ffffffffffffffffffffffffffffffffffffffff168152602001908152602001600020600082825461049f9190611460565b9250508190555034600360008282546104b89190611460565b925050819055507f2daf61dec57a2c194e9e87958b1a40a5c236b5e8c6041655d664ddbd16c2932033346040516104f09291906114b6565b60405180910390a1565b3373ffffffffffffffffffffffffffffffffffffffff1660008054906101000a900473ffffffffffffffffffffffffffffffffffffffff1673ffffffffffffffffffffffffffffffffffffffff1614610588576040517f08c379a000000000000000000000000000000000000000000000000000000000815260040161057f9061152b565b60405180910390fd5b60025460035410156105cf576040517f08c379a00000000000000000000000000000000000000000000000000000000081526004016105c690611597565b60405180910390fd5b60006008600083815260200190815260200160002090508060020160149054906101000a900460ff1615610638576040517f08c379a000000000000000000000000000000000000000000000000000000000815260040161062f90611603565b60405180910390fd5b60026004546106479190611652565b81600301541161068c576040517f08c379a0000000000000000000000000000000000000000000000000000000008152600401610683906116cf565b60405180910390fd5b8060020160009054906101000a900473ffffffffffffffffffffffffffffffffffffffff1673ffffffffffffffffffffffffffffffffffffffff166108fc82600101549081150290604051600060405180830381858888f193505050501580156106fa573d6000803e3d6000fd5b5060018160020160146101000a81548160ff0219169083151502179055507f516e1673e5e85c44620165259173329adda2ad25e7bb15020c732be060b5b7908160020160009054906101000a900473ffffffffffffffffffffffffffffffffffffffff16826001015460405161077192919061174e565b60405180910390a15050565b60076020528060005260406000206000915090505481565b600047905090565b60055481565b60025481565b60008060008060006001546107bc610795565b60045460065460008054906101000a900473ffffffffffffffffffffffffffffffffffffffff16945094509450945094509091929394565b60045481565b60008054906101000a900473ffffffffffffffffffffffffffffffffffffffff1681565b6008602052806000526040600020600091509050806000018054610841906117a6565b80601f016020809104026020016040519081016040528092919081815260200182805461086d906117a6565b80156108ba5780601f1061088f576101008083540402835291602001916108ba565b820191906000526020600020905b81548152906001019060200180831161089d57829003601f168201915b5050505050908060010154908060020160009054906101000a900473ffffffffffffffffffffffffffffffffffffffff16908060020160149054906101000a900460ff16908060030154905085565b3373ffffffffffffffffffffffffffffffffffffffff1660008054906101000a900473ffffffffffffffffffffffffffffffffffffffff1673ffffffffffffffffffffffffffffffffffffffff1614610997576040517f08c379a000000000000000000000000000000000000000000000000000000000815260040161098e9061152b565b60405180910390fd5b60006008600060065481526020019081526020016000209050600660008154809291906109c390611418565b9190505550838160000190805190602001906109e0929190610e32565b50818160020160006101000a81548173ffffffffffffffffffffffffffffffffffffffff021916908373ffffffffffffffffffffffffffffffffffffffff16021790555082816001018190555060008160020160146101000a81548160ff021916908315150217905550600081600301819055507f5392bd80651676ccaaedec1afbe841d47e369223df0ba1586110b6426ee87a3a848385604051610a87939291906117d7565b60405180910390a150505050565b60015481565b60065481565b6005544210610ae5576040517f08c379a0000000000000000000000000000000000000000000000000000000008152600401610adc90611861565b60405180910390fd5b60025460035410610b2b576040517f08c379a0000000000000000000000000000000000000000000000000000000008152600401610b22906118cd565b60405180910390fd5b6000600760003373ffffffffffffffffffffffffffffffffffffffff1673ffffffffffffffffffffffffffffffffffffffff1681526020019081526020016000205411610bad576040517f08c379a0000000000000000000000000000000000000000000000000000000008152600401610ba490611939565b60405180910390fd5b60003390506000600760003373ffffffffffffffffffffffffffffffffffffffff1673ffffffffffffffffffffffffffffffffffffffff1681526020019081526020016000205490508173ffffffffffffffffffffffffffffffffffffffff166108fc829081150290604051600060405180830381858888f19350505050158015610c3c573d6000803e3d6000fd5b506000600760003373ffffffffffffffffffffffffffffffffffffffff1673ffffffffffffffffffffffffffffffffffffffff168152602001908152602001600020819055505050565b60035481565b6000600760003373ffffffffffffffffffffffffffffffffffffffff1673ffffffffffffffffffffffffffffffffffffffff1681526020019081526020016000205411610d0e576040517f08c379a0000000000000000000000000000000000000000000000000000000008152600401610d05906119cb565b60405180910390fd5b6000600860008381526020019081526020016000209050600015158160040160003373ffffffffffffffffffffffffffffffffffffffff1673ffffffffffffffffffffffffffffffffffffffff16815260200190815260200160002060009054906101000a900460ff16151514610dba576040517f08c379a0000000000000000000000000000000000000000000000000000000008152600401610db190611a37565b60405180910390fd5b60018160040160003373ffffffffffffffffffffffffffffffffffffffff1673ffffffffffffffffffffffffffffffffffffffff16815260200190815260200160002060006101000a81548160ff021916908315150217905550806003016000815480929190610e2990611418565b91905055505050565b828054610e3e906117a6565b90600052602060002090601f016020900481019282610e605760008555610ea7565b82601f10610e7957805160ff1916838001178555610ea7565b82800160010185558215610ea7579182015b82811115610ea6578251825591602001919060010190610e8b565b5b509050610eb49190610eb8565b5090565b5b80821115610ed1576000816000905550600101610eb9565b5090565b6000604051905090565b600080fd5b600080fd5b6000819050919050565b610efc81610ee9565b8114610f0757600080fd5b50565b600081359050610f1981610ef3565b92915050565b600060208284031215610f3557610f34610edf565b5b6000610f4384828501610f0a565b91505092915050565b600073ffffffffffffffffffffffffffffffffffffffff82169050919050565b6000610f7782610f4c565b9050919050565b610f8781610f6c565b8114610f9257600080fd5b50565b600081359050610fa481610f7e565b92915050565b600060208284031215610fc057610fbf610edf565b5b6000610fce84828501610f95565b91505092915050565b610fe081610ee9565b82525050565b6000602082019050610ffb6000830184610fd7565b92915050565b61100a81610f6c565b82525050565b600060a0820190506110256000830188610fd7565b6110326020830187610fd7565b61103f6040830186610fd7565b61104c6060830185610fd7565b6110596080830184611001565b9695505050505050565b60006020820190506110786000830184611001565b92915050565b600081519050919050565b600082825260208201905092915050565b60005b838110156110b857808201518184015260208101905061109d565b838111156110c7576000848401525b50505050565b6000601f19601f8301169050919050565b60006110e98261107e565b6110f38185611089565b935061110381856020860161109a565b61110c816110cd565b840191505092915050565b600061112282610f4c565b9050919050565b61113281611117565b82525050565b60008115159050919050565b61114d81611138565b82525050565b600060a082019050818103600083015261116d81886110de565b905061117c6020830187610fd7565b6111896040830186611129565b6111966060830185611144565b6111a36080830184610fd7565b9695505050505050565b600080fd5b600080fd5b7f4e487b7100000000000000000000000000000000000000000000000000000000600052604160045260246000fd5b6111ef826110cd565b810181811067ffffffffffffffff8211171561120e5761120d6111b7565b5b80604052505050565b6000611221610ed5565b905061122d82826111e6565b919050565b600067ffffffffffffffff82111561124d5761124c6111b7565b5b611256826110cd565b9050602081019050919050565b82818337600083830152505050565b600061128561128084611232565b611217565b9050828152602081018484840111156112a1576112a06111b2565b5b6112ac848285611263565b509392505050565b600082601f8301126112c9576112c86111ad565b5b81356112d9848260208601611272565b91505092915050565b6112eb81611117565b81146112f657600080fd5b50565b600081359050611308816112e2565b92915050565b60008060006060848603121561132757611326610edf565b5b600084013567ffffffffffffffff81111561134557611344610ee4565b5b611351868287016112b4565b935050602061136286828701610f0a565b9250506040611373868287016112f9565b9150509250925092565b7f596f752073686f756c6420656e74657220746865206d696e2076616c75652100600082015250565b60006113b3601f83611089565b91506113be8261137d565b602082019050919050565b600060208201905081810360008301526113e2816113a6565b9050919050565b7f4e487b7100000000000000000000000000000000000000000000000000000000600052601160045260246000fd5b600061142382610ee9565b91507fffffffffffffffffffffffffffffffffffffffffffffffffffffffffffffffff8203611455576114546113e9565b5b600182019050919050565b600061146b82610ee9565b915061147683610ee9565b9250827fffffffffffffffffffffffffffffffffffffffffffffffffffffffffffffffff038211156114ab576114aa6113e9565b5b828201905092915050565b60006040820190506114cb6000830185611001565b6114d86020830184610fd7565b9392505050565b7f596f7520617265206e6f7420746865206d616e616765722e0000000000000000600082015250565b6000611515601883611089565b9150611520826114df565b602082019050919050565b6000602082019050818103600083015261154481611508565b9050919050565b7f576520646f6e27742072656163682074686520676f616c000000000000000000600082015250565b6000611581601783611089565b915061158c8261154b565b602082019050919050565b600060208201905081810360008301526115b081611574565b9050919050565b7f54686973207265717565737420697320616c726561647920636f6d706c657465600082015250565b60006115ed602083611089565b91506115f8826115b7565b602082019050919050565b6000602082019050818103600083015261161c816115e0565b9050919050565b7f4e487b7100000000000000000000000000000000000000000000000000000000600052601260045260246000fd5b600061165d82610ee9565b915061166883610ee9565b92508261167857611677611623565b5b828204905092915050565b7f4e6f7420737566696369656e74206e756d626572206f6620766f746572732100600082015250565b60006116b9601f83611089565b91506116c482611683565b602082019050919050565b600060208201905081810360008301526116e8816116ac565b9050919050565b6000819050919050565b600061171461170f61170a84610f4c565b6116ef565b610f4c565b9050919050565b6000611726826116f9565b9050919050565b60006117388261171b565b9050919050565b6117488161172d565b82525050565b6000604082019050611763600083018561173f565b6117706020830184610fd7565b9392505050565b7f4e487b7100000000000000000000000000000000000000000000000000000000600052602260045260246000fd5b600060028204905060018216806117be57607f821691505b6020821081036117d1576117d0611777565b5b50919050565b600060608201905081810360008301526117f181866110de565b9050611800602083018561173f565b61180d6040830184610fd7565b949350505050565b7f446561646c696e6520686173207061737365642e000000000000000000000000600082015250565b600061184b601483611089565b915061185682611815565b602082019050919050565b6000602082019050818103600083015261187a8161183e565b9050919050565b7f54686520676f616c20776173206e6f7420726561636821000000000000000000600082015250565b60006118b7601783611089565b91506118c282611881565b602082019050919050565b600060208201905081810360008301526118e6816118aa565b9050919050565b7f596f7520617265206e6f742061207061727469636970616e7400000000000000600082015250565b6000611923601983611089565b915061192e826118ed565b602082019050919050565b6000602082019050818103600083015261195281611916565b9050919050565b7f596f75206d7573742062652061207061727469636970616e7420746f2062652060008201527f61626c6520746f20766f74650000000000000000000000000000000000000000602082015250565b60006119b5602c83611089565b91506119c082611959565b604082019050919050565b600060208201905081810360008301526119e4816119a8565b9050919050565b7f596f7520616c726561647920766f746564210000000000000000000000000000600082015250565b6000611a21601283611089565b9150611a2c826119eb565b602082019050919050565b60006020820190508181036000830152611a5081611a14565b905091905056fea264697066735822122067ec27b694fa9c24ee653c6060de75a8cb2e97a2feba219fac18cf3e4278415564736f6c634300080d0033","opcodes":"PUSH1 0x80 PUSH1 0x40 MSTORE CALLVALUE DUP1 ISZERO PUSH3 0x11 JUMPI PUSH1 0x0 DUP1 REVERT JUMPDEST POP PUSH1 0x40 MLOAD PUSH3 0x1C4A CODESIZE SUB DUP1 PUSH3 0x1C4A DUP4 CODECOPY DUP2 DUP2 ADD PUSH1 0x40 MSTORE DUP2 ADD SWAP1 PUSH3 0x37 SWAP2 SWAP1 PUSH3 0x13B JUMP JUMPDEST DUP1 PUSH1 0x0 DUP1 PUSH2 0x100 EXP DUP2 SLOAD DUP2 PUSH20 0xFFFFFFFFFFFFFFFFFFFFFFFFFFFFFFFFFFFFFFFF MUL NOT AND SWAP1 DUP4 PUSH20 0xFFFFFFFFFFFFFFFFFFFFFFFFFFFFFFFFFFFFFFFF AND MUL OR SWAP1 SSTORE POP DUP4 PUSH1 0x1 DUP2 SWAP1 SSTORE POP DUP2 PUSH1 0x2 DUP2 SWAP1 SSTORE POP DUP3 PUSH1 0x5 DUP2 SWAP1 SSTORE POP POP POP POP POP PUSH3 0x1AD JUMP JUMPDEST PUSH1 0x0 DUP1 REVERT JUMPDEST PUSH1 0x0 DUP2 SWAP1 POP SWAP2 SWAP1 POP JUMP JUMPDEST PUSH3 0xB0 DUP2 PUSH3 0x9B JUMP JUMPDEST DUP2 EQ PUSH3 0xBC JUMPI PUSH1 0x0 DUP1 REVERT JUMPDEST POP JUMP JUMPDEST PUSH1 0x0 DUP2 MLOAD SWAP1 POP PUSH3 0xD0 DUP2 PUSH3 0xA5 JUMP JUMPDEST SWAP3 SWAP2 POP POP JUMP JUMPDEST PUSH1 0x0 PUSH20 0xFFFFFFFFFFFFFFFFFFFFFFFFFFFFFFFFFFFFFFFF DUP3 AND SWAP1 POP SWAP2 SWAP1 POP JUMP JUMPDEST PUSH1 0x0 PUSH3 0x103 DUP3 PUSH3 0xD6 JUMP JUMPDEST SWAP1 POP SWAP2 SWAP1 POP JUMP JUMPDEST PUSH3 0x115 DUP2 PUSH3 0xF6 JUMP JUMPDEST DUP2 EQ PUSH3 0x121 JUMPI PUSH1 0x0 DUP1 REVERT JUMPDEST POP JUMP JUMPDEST PUSH1 0x0 DUP2 MLOAD SWAP1 POP PUSH3 0x135 DUP2 PUSH3 0x10A JUMP JUMPDEST SWAP3 SWAP2 POP POP JUMP JUMPDEST PUSH1 0x0 DUP1 PUSH1 0x0 DUP1 PUSH1 0x80 DUP6 DUP8 SUB SLT ISZERO PUSH3 0x158 JUMPI PUSH3 0x157 PUSH3 0x96 JUMP JUMPDEST JUMPDEST PUSH1 0x0 PUSH3 0x168 DUP8 DUP3 DUP9 ADD PUSH3 0xBF JUMP JUMPDEST SWAP5 POP POP PUSH1 0x20 PUSH3 0x17B DUP8 DUP3 DUP9 ADD PUSH3 0xBF JUMP JUMPDEST SWAP4 POP POP PUSH1 0x40 PUSH3 0x18E DUP8 DUP3 DUP9 ADD PUSH3 0xBF JUMP JUMPDEST SWAP3 POP POP PUSH1 0x60 PUSH3 0x1A1 DUP8 DUP3 DUP9 ADD PUSH3 0x124 JUMP JUMPDEST SWAP2 POP POP SWAP3 SWAP6 SWAP2 SWAP5 POP SWAP3 POP JUMP JUMPDEST PUSH2 0x1A8D DUP1 PUSH3 0x1BD PUSH1 0x0 CODECOPY PUSH1 0x0 RETURN INVALID PUSH1 0x80 PUSH1 0x40 MSTORE PUSH1 0x4 CALLDATASIZE LT PUSH2 0xF7 JUMPI PUSH1 0x0 CALLDATALOAD PUSH1 0xE0 SHR DUP1 PUSH4 0x81D12C58 GT PUSH2 0x8A JUMPI DUP1 PUSH4 0xB2D5AE44 GT PUSH2 0x59 JUMPI DUP1 PUSH4 0xB2D5AE44 EQ PUSH2 0x337 JUMPI DUP1 PUSH4 0xC59EE1DC EQ PUSH2 0x34E JUMPI DUP1 PUSH4 0xD7BB99BA EQ PUSH2 0x379 JUMPI DUP1 PUSH4 0xD7D1BBDB EQ PUSH2 0x383 JUMPI PUSH2 0x106 JUMP JUMPDEST DUP1 PUSH4 0x81D12C58 EQ PUSH2 0x277 JUMPI DUP1 PUSH4 0x8A9CFD55 EQ PUSH2 0x2B8 JUMPI DUP1 PUSH4 0x937E09B1 EQ PUSH2 0x2E1 JUMPI DUP1 PUSH4 0x9FB42B1F EQ PUSH2 0x30C JUMPI PUSH2 0x106 JUMP JUMPDEST DUP1 PUSH4 0x40193883 GT PUSH2 0xC6 JUMPI DUP1 PUSH4 0x40193883 EQ PUSH2 0x1C7 JUMPI DUP1 PUSH4 0x4051DDAC EQ PUSH2 0x1F2 JUMPI DUP1 PUSH4 0x4377CF65 EQ PUSH2 0x221 JUMPI DUP1 PUSH4 0x481C6A75 EQ PUSH2 0x24C JUMPI PUSH2 0x106 JUMP JUMPDEST DUP1 PUSH4 0x3441006 EQ PUSH2 0x10B JUMPI DUP1 PUSH4 0x9E69EDE EQ PUSH2 0x134 JUMPI DUP1 PUSH4 0x12065FE0 EQ PUSH2 0x171 JUMPI DUP1 PUSH4 0x29DCB0CF EQ PUSH2 0x19C JUMPI PUSH2 0x106 JUMP JUMPDEST CALLDATASIZE PUSH2 0x106 JUMPI PUSH2 0x104 PUSH2 0x3AC JUMP JUMPDEST STOP JUMPDEST PUSH1 0x0 DUP1 REVERT JUMPDEST CALLVALUE DUP1 ISZERO PUSH2 0x117 JUMPI PUSH1 0x0 DUP1 REVERT JUMPDEST POP PUSH2 0x132 PUSH1 0x4 DUP1 CALLDATASIZE SUB DUP2 ADD SWAP1 PUSH2 0x12D SWAP2 SWAP1 PUSH2 0xF1F JUMP JUMPDEST PUSH2 0x4FA JUMP JUMPDEST STOP JUMPDEST CALLVALUE DUP1 ISZERO PUSH2 0x140 JUMPI PUSH1 0x0 DUP1 REVERT JUMPDEST POP PUSH2 0x15B PUSH1 0x4 DUP1 CALLDATASIZE SUB DUP2 ADD SWAP1 PUSH2 0x156 SWAP2 SWAP1 PUSH2 0xFAA JUMP JUMPDEST PUSH2 0x77D JUMP JUMPDEST PUSH1 0x40 MLOAD PUSH2 0x168 SWAP2 SWAP1 PUSH2 0xFE6 JUMP JUMPDEST PUSH1 0x40 MLOAD DUP1 SWAP2 SUB SWAP1 RETURN JUMPDEST CALLVALUE DUP1 ISZERO PUSH2 0x17D JUMPI PUSH1 0x0 DUP1 REVERT JUMPDEST POP PUSH2 0x186 PUSH2 0x795 JUMP JUMPDEST PUSH1 0x40 MLOAD PUSH2 0x193 SWAP2 SWAP1 PUSH2 0xFE6 JUMP JUMPDEST PUSH1 0x40 MLOAD DUP1 SWAP2 SUB SWAP1 RETURN JUMPDEST CALLVALUE DUP1 ISZERO PUSH2 0x1A8 JUMPI PUSH1 0x0 DUP1 REVERT JUMPDEST POP PUSH2 0x1B1 PUSH2 0x79D JUMP JUMPDEST PUSH1 0x40 MLOAD PUSH2 0x1BE SWAP2 SWAP1 PUSH2 0xFE6 JUMP JUMPDEST PUSH1 0x40 MLOAD DUP1 SWAP2 SUB SWAP1 RETURN JUMPDEST CALLVALUE DUP1 ISZERO PUSH2 0x1D3 JUMPI PUSH1 0x0 DUP1 REVERT JUMPDEST POP PUSH2 0x1DC PUSH2 0x7A3 JUMP JUMPDEST PUSH1 0x40 MLOAD PUSH2 0x1E9 SWAP2 SWAP1 PUSH2 0xFE6 JUMP JUMPDEST PUSH1 0x40 MLOAD DUP1 SWAP2 SUB SWAP1 RETURN JUMPDEST CALLVALUE DUP1 ISZERO PUSH2 0x1FE JUMPI PUSH1 0x0 DUP1 REVERT JUMPDEST POP PUSH2 0x207 PUSH2 0x7A9 JUMP JUMPDEST PUSH1 0x40 MLOAD PUSH2 0x218 SWAP6 SWAP5 SWAP4 SWAP3 SWAP2 SWAP1 PUSH2 0x1010 JUMP JUMPDEST PUSH1 0x40 MLOAD DUP1 SWAP2 SUB SWAP1 RETURN JUMPDEST CALLVALUE DUP1 ISZERO PUSH2 0x22D JUMPI PUSH1 0x0 DUP1 REVERT JUMPDEST POP PUSH2 0x236 PUSH2 0x7F4 JUMP JUMPDEST PUSH1 0x40 MLOAD PUSH2 0x243 SWAP2 SWAP1 PUSH2 0xFE6 JUMP JUMPDEST PUSH1 0x40 MLOAD DUP1 SWAP2 SUB SWAP1 RETURN JUMPDEST CALLVALUE DUP1 ISZERO PUSH2 0x258 JUMPI PUSH1 0x0 DUP1 REVERT JUMPDEST POP PUSH2 0x261 PUSH2 0x7FA JUMP JUMPDEST PUSH1 0x40 MLOAD PUSH2 0x26E SWAP2 SWAP1 PUSH2 0x1063 JUMP JUMPDEST PUSH1 0x40 MLOAD DUP1 SWAP2 SUB SWAP1 RETURN JUMPDEST CALLVALUE DUP1 ISZERO PUSH2 0x283 JUMPI PUSH1 0x0 DUP1 REVERT JUMPDEST POP PUSH2 0x29E PUSH1 0x4 DUP1 CALLDATASIZE SUB DUP2 ADD SWAP1 PUSH2 0x299 SWAP2 SWAP1 PUSH2 0xF1F JUMP JUMPDEST PUSH2 0x81E JUMP JUMPDEST PUSH1 0x40 MLOAD PUSH2 0x2AF SWAP6 SWAP5 SWAP4 SWAP3 SWAP2 SWAP1 PUSH2 0x1153 JUMP JUMPDEST PUSH1 0x40 MLOAD DUP1 SWAP2 SUB SWAP1 RETURN JUMPDEST CALLVALUE DUP1 ISZERO PUSH2 0x2C4 JUMPI PUSH1 0x0 DUP1 REVERT JUMPDEST POP PUSH2 0x2DF PUSH1 0x4 DUP1 CALLDATASIZE SUB DUP2 ADD SWAP1 PUSH2 0x2DA SWAP2 SWAP1 PUSH2 0x130E JUMP JUMPDEST PUSH2 0x909 JUMP JUMPDEST STOP JUMPDEST CALLVALUE DUP1 ISZERO PUSH2 0x2ED JUMPI PUSH1 0x0 DUP1 REVERT JUMPDEST POP PUSH2 0x2F6 PUSH2 0xA95 JUMP JUMPDEST PUSH1 0x40 MLOAD PUSH2 0x303 SWAP2 SWAP1 PUSH2 0xFE6 JUMP JUMPDEST PUSH1 0x40 MLOAD DUP1 SWAP2 SUB SWAP1 RETURN JUMPDEST CALLVALUE DUP1 ISZERO PUSH2 0x318 JUMPI PUSH1 0x0 DUP1 REVERT JUMPDEST POP PUSH2 0x321 PUSH2 0xA9B JUMP JUMPDEST PUSH1 0x40 MLOAD PUSH2 0x32E SWAP2 SWAP1 PUSH2 0xFE6 JUMP JUMPDEST PUSH1 0x40 MLOAD DUP1 SWAP2 SUB SWAP1 RETURN JUMPDEST CALLVALUE DUP1 ISZERO PUSH2 0x343 JUMPI PUSH1 0x0 DUP1 REVERT JUMPDEST POP PUSH2 0x34C PUSH2 0xAA1 JUMP JUMPDEST STOP JUMPDEST CALLVALUE DUP1 ISZERO PUSH2 0x35A JUMPI PUSH1 0x0 DUP1 REVERT JUMPDEST POP PUSH2 0x363 PUSH2 0xC86 JUMP JUMPDEST PUSH1 0x40 MLOAD PUSH2 0x370 SWAP2 SWAP1 PUSH2 0xFE6 JUMP JUMPDEST PUSH1 0x40 MLOAD DUP1 SWAP2 SUB SWAP1 RETURN JUMPDEST PUSH2 0x381 PUSH2 0x3AC JUMP JUMPDEST STOP JUMPDEST CALLVALUE DUP1 ISZERO PUSH2 0x38F JUMPI PUSH1 0x0 DUP1 REVERT JUMPDEST POP PUSH2 0x3AA PUSH1 0x4 DUP1 CALLDATASIZE SUB DUP2 ADD SWAP1 PUSH2 0x3A5 SWAP2 SWAP1 PUSH2 0xF1F JUMP JUMPDEST PUSH2 0xC8C JUMP JUMPDEST STOP JUMPDEST PUSH1 0x1 SLOAD CALLVALUE GT PUSH2 0x3F0 JUMPI PUSH1 0x40 MLOAD PUSH32 0x8C379A000000000000000000000000000000000000000000000000000000000 DUP2 MSTORE PUSH1 0x4 ADD PUSH2 0x3E7 SWAP1 PUSH2 0x13C9 JUMP JUMPDEST PUSH1 0x40 MLOAD DUP1 SWAP2 SUB SWAP1 REVERT JUMPDEST PUSH1 0x0 PUSH1 0x7 PUSH1 0x0 CALLER PUSH20 0xFFFFFFFFFFFFFFFFFFFFFFFFFFFFFFFFFFFFFFFF AND PUSH20 0xFFFFFFFFFFFFFFFFFFFFFFFFFFFFFFFFFFFFFFFF AND DUP2 MSTORE PUSH1 0x20 ADD SWAP1 DUP2 MSTORE PUSH1 0x20 ADD PUSH1 0x0 KECCAK256 SLOAD SUB PUSH2 0x450 JUMPI PUSH1 0x4 PUSH1 0x0 DUP2 SLOAD DUP1 SWAP3 SWAP2 SWAP1 PUSH2 0x44A SWAP1 PUSH2 0x1418 JUMP JUMPDEST SWAP2 SWAP1 POP SSTORE POP JUMPDEST CALLVALUE PUSH1 0x7 PUSH1 0x0 CALLER PUSH20 0xFFFFFFFFFFFFFFFFFFFFFFFFFFFFFFFFFFFFFFFF AND PUSH20 0xFFFFFFFFFFFFFFFFFFFFFFFFFFFFFFFFFFFFFFFF AND DUP2 MSTORE PUSH1 0x20 ADD SWAP1 DUP2 MSTORE PUSH1 0x20 ADD PUSH1 0x0 KECCAK256 PUSH1 0x0 DUP3 DUP3 SLOAD PUSH2 0x49F SWAP2 SWAP1 PUSH2 0x1460 JUMP JUMPDEST SWAP3 POP POP DUP2 SWAP1 SSTORE POP CALLVALUE PUSH1 0x3 PUSH1 0x0 DUP3 DUP3 SLOAD PUSH2 0x4B8 SWAP2 SWAP1 PUSH2 0x1460 JUMP JUMPDEST SWAP3 POP POP DUP2 SWAP1 SSTORE POP PUSH32 0x2DAF61DEC57A2C194E9E87958B1A40A5C236B5E8C6041655D664DDBD16C29320 CALLER CALLVALUE PUSH1 0x40 MLOAD PUSH2 0x4F0 SWAP3 SWAP2 SWAP1 PUSH2 0x14B6 JUMP JUMPDEST PUSH1 0x40 MLOAD DUP1 SWAP2 SUB SWAP1 LOG1 JUMP JUMPDEST CALLER PUSH20 0xFFFFFFFFFFFFFFFFFFFFFFFFFFFFFFFFFFFFFFFF AND PUSH1 0x0 DUP1 SLOAD SWAP1 PUSH2 0x100 EXP SWAP1 DIV PUSH20 0xFFFFFFFFFFFFFFFFFFFFFFFFFFFFFFFFFFFFFFFF AND PUSH20 0xFFFFFFFFFFFFFFFFFFFFFFFFFFFFFFFFFFFFFFFF AND EQ PUSH2 0x588 JUMPI PUSH1 0x40 MLOAD PUSH32 0x8C379A000000000000000000000000000000000000000000000000000000000 DUP2 MSTORE PUSH1 0x4 ADD PUSH2 0x57F SWAP1 PUSH2 0x152B JUMP JUMPDEST PUSH1 0x40 MLOAD DUP1 SWAP2 SUB SWAP1 REVERT JUMPDEST PUSH1 0x2 SLOAD PUSH1 0x3 SLOAD LT ISZERO PUSH2 0x5CF JUMPI PUSH1 0x40 MLOAD PUSH32 0x8C379A000000000000000000000000000000000000000000000000000000000 DUP2 MSTORE PUSH1 0x4 ADD PUSH2 0x5C6 SWAP1 PUSH2 0x1597 JUMP JUMPDEST PUSH1 0x40 MLOAD DUP1 SWAP2 SUB SWAP1 REVERT JUMPDEST PUSH1 0x0 PUSH1 0x8 PUSH1 0x0 DUP4 DUP2 MSTORE PUSH1 0x20 ADD SWAP1 DUP2 MSTORE PUSH1 0x20 ADD PUSH1 0x0 KECCAK256 SWAP1 POP DUP1 PUSH1 0x2 ADD PUSH1 0x14 SWAP1 SLOAD SWAP1 PUSH2 0x100 EXP SWAP1 DIV PUSH1 0xFF AND ISZERO PUSH2 0x638 JUMPI PUSH1 0x40 MLOAD PUSH32 0x8C379A000000000000000000000000000000000000000000000000000000000 DUP2 MSTORE PUSH1 0x4 ADD PUSH2 0x62F SWAP1 PUSH2 0x1603 JUMP JUMPDEST PUSH1 0x40 MLOAD DUP1 SWAP2 SUB SWAP1 REVERT JUMPDEST PUSH1 0x2 PUSH1 0x4 SLOAD PUSH2 0x647 SWAP2 SWAP1 PUSH2 0x1652 JUMP JUMPDEST DUP2 PUSH1 0x3 ADD SLOAD GT PUSH2 0x68C JUMPI PUSH1 0x40 MLOAD PUSH32 0x8C379A000000000000000000000000000000000000000000000000000000000 DUP2 MSTORE PUSH1 0x4 ADD PUSH2 0x683 SWAP1 PUSH2 0x16CF JUMP JUMPDEST PUSH1 0x40 MLOAD DUP1 SWAP2 SUB SWAP1 REVERT JUMPDEST DUP1 PUSH1 0x2 ADD PUSH1 0x0 SWAP1 SLOAD SWAP1 PUSH2 0x100 EXP SWAP1 DIV PUSH20 0xFFFFFFFFFFFFFFFFFFFFFFFFFFFFFFFFFFFFFFFF AND PUSH20 0xFFFFFFFFFFFFFFFFFFFFFFFFFFFFFFFFFFFFFFFF AND PUSH2 0x8FC DUP3 PUSH1 0x1 ADD SLOAD SWAP1 DUP2 ISZERO MUL SWAP1 PUSH1 0x40 MLOAD PUSH1 0x0 PUSH1 0x40 MLOAD DUP1 DUP4 SUB DUP2 DUP6 DUP9 DUP9 CALL SWAP4 POP POP POP POP ISZERO DUP1 ISZERO PUSH2 0x6FA JUMPI RETURNDATASIZE PUSH1 0x0 DUP1 RETURNDATACOPY RETURNDATASIZE PUSH1 0x0 REVERT JUMPDEST POP PUSH1 0x1 DUP2 PUSH1 0x2 ADD PUSH1 0x14 PUSH2 0x100 EXP DUP2 SLOAD DUP2 PUSH1 0xFF MUL NOT AND SWAP1 DUP4 ISZERO ISZERO MUL OR SWAP1 SSTORE POP PUSH32 0x516E1673E5E85C44620165259173329ADDA2AD25E7BB15020C732BE060B5B790 DUP2 PUSH1 0x2 ADD PUSH1 0x0 SWAP1 SLOAD SWAP1 PUSH2 0x100 EXP SWAP1 DIV PUSH20 0xFFFFFFFFFFFFFFFFFFFFFFFFFFFFFFFFFFFFFFFF AND DUP3 PUSH1 0x1 ADD SLOAD PUSH1 0x40 MLOAD PUSH2 0x771 SWAP3 SWAP2 SWAP1 PUSH2 0x174E JUMP JUMPDEST PUSH1 0x40 MLOAD DUP1 SWAP2 SUB SWAP1 LOG1 POP POP JUMP JUMPDEST PUSH1 0x7 PUSH1 0x20 MSTORE DUP1 PUSH1 0x0 MSTORE PUSH1 0x40 PUSH1 0x0 KECCAK256 PUSH1 0x0 SWAP2 POP SWAP1 POP SLOAD DUP2 JUMP JUMPDEST PUSH1 0x0 SELFBALANCE SWAP1 POP SWAP1 JUMP JUMPDEST PUSH1 0x5 SLOAD DUP2 JUMP JUMPDEST PUSH1 0x2 SLOAD DUP2 JUMP JUMPDEST PUSH1 0x0 DUP1 PUSH1 0x0 DUP1 PUSH1 0x0 PUSH1 0x1 SLOAD PUSH2 0x7BC PUSH2 0x795 JUMP JUMPDEST PUSH1 0x4 SLOAD PUSH1 0x6 SLOAD PUSH1 0x0 DUP1 SLOAD SWAP1 PUSH2 0x100 EXP SWAP1 DIV PUSH20 0xFFFFFFFFFFFFFFFFFFFFFFFFFFFFFFFFFFFFFFFF AND SWAP5 POP SWAP5 POP SWAP5 POP SWAP5 POP SWAP5 POP SWAP1 SWAP2 SWAP3 SWAP4 SWAP5 JUMP JUMPDEST PUSH1 0x4 SLOAD DUP2 JUMP JUMPDEST PUSH1 0x0 DUP1 SLOAD SWAP1 PUSH2 0x100 EXP SWAP1 DIV PUSH20 0xFFFFFFFFFFFFFFFFFFFFFFFFFFFFFFFFFFFFFFFF AND DUP2 JUMP JUMPDEST PUSH1 0x8 PUSH1 0x20 MSTORE DUP1 PUSH1 0x0 MSTORE PUSH1 0x40 PUSH1 0x0 KECCAK256 PUSH1 0x0 SWAP2 POP SWAP1 POP DUP1 PUSH1 0x0 ADD DUP1 SLOAD PUSH2 0x841 SWAP1 PUSH2 0x17A6 JUMP JUMPDEST DUP1 PUSH1 0x1F ADD PUSH1 0x20 DUP1 SWAP2 DIV MUL PUSH1 0x20 ADD PUSH1 0x40 MLOAD SWAP1 DUP2 ADD PUSH1 0x40 MSTORE DUP1 SWAP3 SWAP2 SWAP1 DUP2 DUP2 MSTORE PUSH1 0x20 ADD DUP3 DUP1 SLOAD PUSH2 0x86D SWAP1 PUSH2 0x17A6 JUMP JUMPDEST DUP1 ISZERO PUSH2 0x8BA JUMPI DUP1 PUSH1 0x1F LT PUSH2 0x88F JUMPI PUSH2 0x100 DUP1 DUP4 SLOAD DIV MUL DUP4 MSTORE SWAP2 PUSH1 0x20 ADD SWAP2 PUSH2 0x8BA JUMP JUMPDEST DUP3 ADD SWAP2 SWAP1 PUSH1 0x0 MSTORE PUSH1 0x20 PUSH1 0x0 KECCAK256 SWAP1 JUMPDEST DUP2 SLOAD DUP2 MSTORE SWAP1 PUSH1 0x1 ADD SWAP1 PUSH1 0x20 ADD DUP1 DUP4 GT PUSH2 0x89D JUMPI DUP3 SWAP1 SUB PUSH1 0x1F AND DUP3 ADD SWAP2 JUMPDEST POP POP POP POP POP SWAP1 DUP1 PUSH1 0x1 ADD SLOAD SWAP1 DUP1 PUSH1 0x2 ADD PUSH1 0x0 SWAP1 SLOAD SWAP1 PUSH2 0x100 EXP SWAP1 DIV PUSH20 0xFFFFFFFFFFFFFFFFFFFFFFFFFFFFFFFFFFFFFFFF AND SWAP1 DUP1 PUSH1 0x2 ADD PUSH1 0x14 SWAP1 SLOAD SWAP1 PUSH2 0x100 EXP SWAP1 DIV PUSH1 0xFF AND SWAP1 DUP1 PUSH1 0x3 ADD SLOAD SWAP1 POP DUP6 JUMP JUMPDEST CALLER PUSH20 0xFFFFFFFFFFFFFFFFFFFFFFFFFFFFFFFFFFFFFFFF AND PUSH1 0x0 DUP1 SLOAD SWAP1 PUSH2 0x100 EXP SWAP1 DIV PUSH20 0xFFFFFFFFFFFFFFFFFFFFFFFFFFFFFFFFFFFFFFFF AND PUSH20 0xFFFFFFFFFFFFFFFFFFFFFFFFFFFFFFFFFFFFFFFF AND EQ PUSH2 0x997 JUMPI PUSH1 0x40 MLOAD PUSH32 0x8C379A000000000000000000000000000000000000000000000000000000000 DUP2 MSTORE PUSH1 0x4 ADD PUSH2 0x98E SWAP1 PUSH2 0x152B JUMP JUMPDEST PUSH1 0x40 MLOAD DUP1 SWAP2 SUB SWAP1 REVERT JUMPDEST PUSH1 0x0 PUSH1 0x8 PUSH1 0x0 PUSH1 0x6 SLOAD DUP2 MSTORE PUSH1 0x20 ADD SWAP1 DUP2 MSTORE PUSH1 0x20 ADD PUSH1 0x0 KECCAK256 SWAP1 POP PUSH1 0x6 PUSH1 0x0 DUP2 SLOAD DUP1 SWAP3 SWAP2 SWAP1 PUSH2 0x9C3 SWAP1 PUSH2 0x1418 JUMP JUMPDEST SWAP2 SWAP1 POP SSTORE POP DUP4 DUP2 PUSH1 0x0 ADD SWAP1 DUP1 MLOAD SWAP1 PUSH1 0x20 ADD SWAP1 PUSH2 0x9E0 SWAP3 SWAP2 SWAP1 PUSH2 0xE32 JUMP JUMPDEST POP DUP2 DUP2 PUSH1 0x2 ADD PUSH1 0x0 PUSH2 0x100 EXP DUP2 SLOAD DUP2 PUSH20 0xFFFFFFFFFFFFFFFFFFFFFFFFFFFFFFFFFFFFFFFF MUL NOT AND SWAP1 DUP4 PUSH20 0xFFFFFFFFFFFFFFFFFFFFFFFFFFFFFFFFFFFFFFFF AND MUL OR SWAP1 SSTORE POP DUP3 DUP2 PUSH1 0x1 ADD DUP2 SWAP1 SSTORE POP PUSH1 0x0 DUP2 PUSH1 0x2 ADD PUSH1 0x14 PUSH2 0x100 EXP DUP2 SLOAD DUP2 PUSH1 0xFF MUL NOT AND SWAP1 DUP4 ISZERO ISZERO MUL OR SWAP1 SSTORE POP PUSH1 0x0 DUP2 PUSH1 0x3 ADD DUP2 SWAP1 SSTORE POP PUSH32 0x5392BD80651676CCAAEDEC1AFBE841D47E369223DF0BA1586110B6426EE87A3A DUP5 DUP4 DUP6 PUSH1 0x40 MLOAD PUSH2 0xA87 SWAP4 SWAP3 SWAP2 SWAP1 PUSH2 0x17D7 JUMP JUMPDEST PUSH1 0x40 MLOAD DUP1 SWAP2 SUB SWAP1 LOG1 POP POP POP POP JUMP JUMPDEST PUSH1 0x1 SLOAD DUP2 JUMP JUMPDEST PUSH1 0x6 SLOAD DUP2 JUMP JUMPDEST PUSH1 0x5 SLOAD TIMESTAMP LT PUSH2 0xAE5 JUMPI PUSH1 0x40 MLOAD PUSH32 0x8C379A000000000000000000000000000000000000000000000000000000000 DUP2 MSTORE PUSH1 0x4 ADD PUSH2 0xADC SWAP1 PUSH2 0x1861 JUMP JUMPDEST PUSH1 0x40 MLOAD DUP1 SWAP2 SUB SWAP1 REVERT JUMPDEST PUSH1 0x2 SLOAD PUSH1 0x3 SLOAD LT PUSH2 0xB2B JUMPI PUSH1 0x40 MLOAD PUSH32 0x8C379A000000000000000000000000000000000000000000000000000000000 DUP2 MSTORE PUSH1 0x4 ADD PUSH2 0xB22 SWAP1 PUSH2 0x18CD JUMP JUMPDEST PUSH1 0x40 MLOAD DUP1 SWAP2 SUB SWAP1 REVERT JUMPDEST PUSH1 0x0 PUSH1 0x7 PUSH1 0x0 CALLER PUSH20 0xFFFFFFFFFFFFFFFFFFFFFFFFFFFFFFFFFFFFFFFF AND PUSH20 0xFFFFFFFFFFFFFFFFFFFFFFFFFFFFFFFFFFFFFFFF AND DUP2 MSTORE PUSH1 0x20 ADD SWAP1 DUP2 MSTORE PUSH1 0x20 ADD PUSH1 0x0 KECCAK256 SLOAD GT PUSH2 0xBAD JUMPI PUSH1 0x40 MLOAD PUSH32 0x8C379A000000000000000000000000000000000000000000000000000000000 DUP2 MSTORE PUSH1 0x4 ADD PUSH2 0xBA4 SWAP1 PUSH2 0x1939 JUMP JUMPDEST PUSH1 0x40 MLOAD DUP1 SWAP2 SUB SWAP1 REVERT JUMPDEST PUSH1 0x0 CALLER SWAP1 POP PUSH1 0x0 PUSH1 0x7 PUSH1 0x0 CALLER PUSH20 0xFFFFFFFFFFFFFFFFFFFFFFFFFFFFFFFFFFFFFFFF AND PUSH20 0xFFFFFFFFFFFFFFFFFFFFFFFFFFFFFFFFFFFFFFFF AND DUP2 MSTORE PUSH1 0x20 ADD SWAP1 DUP2 MSTORE PUSH1 0x20 ADD PUSH1 0x0 KECCAK256 SLOAD SWAP1 POP DUP2 PUSH20 0xFFFFFFFFFFFFFFFFFFFFFFFFFFFFFFFFFFFFFFFF AND PUSH2 0x8FC DUP3 SWAP1 DUP2 ISZERO MUL SWAP1 PUSH1 0x40 MLOAD PUSH1 0x0 PUSH1 0x40 MLOAD DUP1 DUP4 SUB DUP2 DUP6 DUP9 DUP9 CALL SWAP4 POP POP POP POP ISZERO DUP1 ISZERO PUSH2 0xC3C JUMPI RETURNDATASIZE PUSH1 0x0 DUP1 RETURNDATACOPY RETURNDATASIZE PUSH1 0x0 REVERT JUMPDEST POP PUSH1 0x0 PUSH1 0x7 PUSH1 0x0 CALLER PUSH20 0xFFFFFFFFFFFFFFFFFFFFFFFFFFFFFFFFFFFFFFFF AND PUSH20 0xFFFFFFFFFFFFFFFFFFFFFFFFFFFFFFFFFFFFFFFF AND DUP2 MSTORE PUSH1 0x20 ADD SWAP1 DUP2 MSTORE PUSH1 0x20 ADD PUSH1 0x0 KECCAK256 DUP2 SWAP1 SSTORE POP POP POP JUMP JUMPDEST PUSH1 0x3 SLOAD DUP2 JUMP JUMPDEST PUSH1 0x0 PUSH1 0x7 PUSH1 0x0 CALLER PUSH20 0xFFFFFFFFFFFFFFFFFFFFFFFFFFFFFFFFFFFFFFFF AND PUSH20 0xFFFFFFFFFFFFFFFFFFFFFFFFFFFFFFFFFFFFFFFF AND DUP2 MSTORE PUSH1 0x20 ADD SWAP1 DUP2 MSTORE PUSH1 0x20 ADD PUSH1 0x0 KECCAK256 SLOAD GT PUSH2 0xD0E JUMPI PUSH1 0x40 MLOAD PUSH32 0x8C379A000000000000000000000000000000000000000000000000000000000 DUP2 MSTORE PUSH1 0x4 ADD PUSH2 0xD05 SWAP1 PUSH2 0x19CB JUMP JUMPDEST PUSH1 0x40 MLOAD DUP1 SWAP2 SUB SWAP1 REVERT JUMPDEST PUSH1 0x0 PUSH1 0x8 PUSH1 0x0 DUP4 DUP2 MSTORE PUSH1 0x20 ADD SWAP1 DUP2 MSTORE PUSH1 0x20 ADD PUSH1 0x0 KECCAK256 SWAP1 POP PUSH1 0x0 ISZERO ISZERO DUP2 PUSH1 0x4 ADD PUSH1 0x0 CALLER PUSH20 0xFFFFFFFFFFFFFFFFFFFFFFFFFFFFFFFFFFFFFFFF AND PUSH20 0xFFFFFFFFFFFFFFFFFFFFFFFFFFFFFFFFFFFFFFFF AND DUP2 MSTORE PUSH1 0x20 ADD SWAP1 DUP2 MSTORE PUSH1 0x20 ADD PUSH1 0x0 KECCAK256 PUSH1 0x0 SWAP1 SLOAD SWAP1 PUSH2 0x100 EXP SWAP1 DIV PUSH1 0xFF AND ISZERO ISZERO EQ PUSH2 0xDBA JUMPI PUSH1 0x40 MLOAD PUSH32 0x8C379A000000000000000000000000000000000000000000000000000000000 DUP2 MSTORE PUSH1 0x4 ADD PUSH2 0xDB1 SWAP1 PUSH2 0x1A37 JUMP JUMPDEST PUSH1 0x40 MLOAD DUP1 SWAP2 SUB SWAP1 REVERT JUMPDEST PUSH1 0x1 DUP2 PUSH1 0x4 ADD PUSH1 0x0 CALLER PUSH20 0xFFFFFFFFFFFFFFFFFFFFFFFFFFFFFFFFFFFFFFFF AND PUSH20 0xFFFFFFFFFFFFFFFFFFFFFFFFFFFFFFFFFFFFFFFF AND DUP2 MSTORE PUSH1 0x20 ADD SWAP1 DUP2 MSTORE PUSH1 0x20 ADD PUSH1 0x0 KECCAK256 PUSH1 0x0 PUSH2 0x100 EXP DUP2 SLOAD DUP2 PUSH1 0xFF MUL NOT AND SWAP1 DUP4 ISZERO ISZERO MUL OR SWAP1 SSTORE POP DUP1 PUSH1 0x3 ADD PUSH1 0x0 DUP2 SLOAD DUP1 SWAP3 SWAP2 SWAP1 PUSH2 0xE29 SWAP1 PUSH2 0x1418 JUMP JUMPDEST SWAP2 SWAP1 POP SSTORE POP POP POP JUMP JUMPDEST DUP3 DUP1 SLOAD PUSH2 0xE3E SWAP1 PUSH2 0x17A6 JUMP JUMPDEST SWAP1 PUSH1 0x0 MSTORE PUSH1 0x20 PUSH1 0x0 KECCAK256 SWAP1 PUSH1 0x1F ADD PUSH1 0x20 SWAP1 DIV DUP2 ADD SWAP3 DUP3 PUSH2 0xE60 JUMPI PUSH1 0x0 DUP6 SSTORE PUSH2 0xEA7 JUMP JUMPDEST DUP3 PUSH1 0x1F LT PUSH2 0xE79 JUMPI DUP1 MLOAD PUSH1 0xFF NOT AND DUP4 DUP1 ADD OR DUP6 SSTORE PUSH2 0xEA7 JUMP JUMPDEST DUP3 DUP1 ADD PUSH1 0x1 ADD DUP6 SSTORE DUP3 ISZERO PUSH2 0xEA7 JUMPI SWAP2 DUP3 ADD JUMPDEST DUP3 DUP2 GT ISZERO PUSH2 0xEA6 JUMPI DUP3 MLOAD DUP3 SSTORE SWAP2 PUSH1 0x20 ADD SWAP2 SWAP1 PUSH1 0x1 ADD SWAP1 PUSH2 0xE8B JUMP JUMPDEST JUMPDEST POP SWAP1 POP PUSH2 0xEB4 SWAP2 SWAP1 PUSH2 0xEB8 JUMP JUMPDEST POP SWAP1 JUMP JUMPDEST JUMPDEST DUP1 DUP3 GT ISZERO PUSH2 0xED1 JUMPI PUSH1 0x0 DUP2 PUSH1 0x0 SWAP1 SSTORE POP PUSH1 0x1 ADD PUSH2 0xEB9 JUMP JUMPDEST POP SWAP1 JUMP JUMPDEST PUSH1 0x0 PUSH1 0x40 MLOAD SWAP1 POP SWAP1 JUMP JUMPDEST PUSH1 0x0 DUP1 REVERT JUMPDEST PUSH1 0x0 DUP1 REVERT JUMPDEST PUSH1 0x0 DUP2 SWAP1 POP SWAP2 SWAP1 POP JUMP JUMPDEST PUSH2 0xEFC DUP2 PUSH2 0xEE9 JUMP JUMPDEST DUP2 EQ PUSH2 0xF07 JUMPI PUSH1 0x0 DUP1 REVERT JUMPDEST POP JUMP JUMPDEST PUSH1 0x0 DUP2 CALLDATALOAD SWAP1 POP PUSH2 0xF19 DUP2 PUSH2 0xEF3 JUMP JUMPDEST SWAP3 SWAP2 POP POP JUMP JUMPDEST PUSH1 0x0 PUSH1 0x20 DUP3 DUP5 SUB SLT ISZERO PUSH2 0xF35 JUMPI PUSH2 0xF34 PUSH2 0xEDF JUMP JUMPDEST JUMPDEST PUSH1 0x0 PUSH2 0xF43 DUP5 DUP3 DUP6 ADD PUSH2 0xF0A JUMP JUMPDEST SWAP2 POP POP SWAP3 SWAP2 POP POP JUMP JUMPDEST PUSH1 0x0 PUSH20 0xFFFFFFFFFFFFFFFFFFFFFFFFFFFFFFFFFFFFFFFF DUP3 AND SWAP1 POP SWAP2 SWAP1 POP JUMP JUMPDEST PUSH1 0x0 PUSH2 0xF77 DUP3 PUSH2 0xF4C JUMP JUMPDEST SWAP1 POP SWAP2 SWAP1 POP JUMP JUMPDEST PUSH2 0xF87 DUP2 PUSH2 0xF6C JUMP JUMPDEST DUP2 EQ PUSH2 0xF92 JUMPI PUSH1 0x0 DUP1 REVERT JUMPDEST POP JUMP JUMPDEST PUSH1 0x0 DUP2 CALLDATALOAD SWAP1 POP PUSH2 0xFA4 DUP2 PUSH2 0xF7E JUMP JUMPDEST SWAP3 SWAP2 POP POP JUMP JUMPDEST PUSH1 0x0 PUSH1 0x20 DUP3 DUP5 SUB SLT ISZERO PUSH2 0xFC0 JUMPI PUSH2 0xFBF PUSH2 0xEDF JUMP JUMPDEST JUMPDEST PUSH1 0x0 PUSH2 0xFCE DUP5 DUP3 DUP6 ADD PUSH2 0xF95 JUMP JUMPDEST SWAP2 POP POP SWAP3 SWAP2 POP POP JUMP JUMPDEST PUSH2 0xFE0 DUP2 PUSH2 0xEE9 JUMP JUMPDEST DUP3 MSTORE POP POP JUMP JUMPDEST PUSH1 0x0 PUSH1 0x20 DUP3 ADD SWAP1 POP PUSH2 0xFFB PUSH1 0x0 DUP4 ADD DUP5 PUSH2 0xFD7 JUMP JUMPDEST SWAP3 SWAP2 POP POP JUMP JUMPDEST PUSH2 0x100A DUP2 PUSH2 0xF6C JUMP JUMPDEST DUP3 MSTORE POP POP JUMP JUMPDEST PUSH1 0x0 PUSH1 0xA0 DUP3 ADD SWAP1 POP PUSH2 0x1025 PUSH1 0x0 DUP4 ADD DUP9 PUSH2 0xFD7 JUMP JUMPDEST PUSH2 0x1032 PUSH1 0x20 DUP4 ADD DUP8 PUSH2 0xFD7 JUMP JUMPDEST PUSH2 0x103F PUSH1 0x40 DUP4 ADD DUP7 PUSH2 0xFD7 JUMP JUMPDEST PUSH2 0x104C PUSH1 0x60 DUP4 ADD DUP6 PUSH2 0xFD7 JUMP JUMPDEST PUSH2 0x1059 PUSH1 0x80 DUP4 ADD DUP5 PUSH2 0x1001 JUMP JUMPDEST SWAP7 SWAP6 POP POP POP POP POP POP JUMP JUMPDEST PUSH1 0x0 PUSH1 0x20 DUP3 ADD SWAP1 POP PUSH2 0x1078 PUSH1 0x0 DUP4 ADD DUP5 PUSH2 0x1001 JUMP JUMPDEST SWAP3 SWAP2 POP POP JUMP JUMPDEST PUSH1 0x0 DUP2 MLOAD SWAP1 POP SWAP2 SWAP1 POP JUMP JUMPDEST PUSH1 0x0 DUP3 DUP3 MSTORE PUSH1 0x20 DUP3 ADD SWAP1 POP SWAP3 SWAP2 POP POP JUMP JUMPDEST PUSH1 0x0 JUMPDEST DUP4 DUP2 LT ISZERO PUSH2 0x10B8 JUMPI DUP1 DUP3 ADD MLOAD DUP2 DUP5 ADD MSTORE PUSH1 0x20 DUP2 ADD SWAP1 POP PUSH2 0x109D JUMP JUMPDEST DUP4 DUP2 GT ISZERO PUSH2 0x10C7 JUMPI PUSH1 0x0 DUP5 DUP5 ADD MSTORE JUMPDEST POP POP POP POP JUMP JUMPDEST PUSH1 0x0 PUSH1 0x1F NOT PUSH1 0x1F DUP4 ADD AND SWAP1 POP SWAP2 SWAP1 POP JUMP JUMPDEST PUSH1 0x0 PUSH2 0x10E9 DUP3 PUSH2 0x107E JUMP JUMPDEST PUSH2 0x10F3 DUP2 DUP6 PUSH2 0x1089 JUMP JUMPDEST SWAP4 POP PUSH2 0x1103 DUP2 DUP6 PUSH1 0x20 DUP7 ADD PUSH2 0x109A JUMP JUMPDEST PUSH2 0x110C DUP2 PUSH2 0x10CD JUMP JUMPDEST DUP5 ADD SWAP2 POP POP SWAP3 SWAP2 POP POP JUMP JUMPDEST PUSH1 0x0 PUSH2 0x1122 DUP3 PUSH2 0xF4C JUMP JUMPDEST SWAP1 POP SWAP2 SWAP1 POP JUMP JUMPDEST PUSH2 0x1132 DUP2 PUSH2 0x1117 JUMP JUMPDEST DUP3 MSTORE POP POP JUMP JUMPDEST PUSH1 0x0 DUP2 ISZERO ISZERO SWAP1 POP SWAP2 SWAP1 POP JUMP JUMPDEST PUSH2 0x114D DUP2 PUSH2 0x1138 JUMP JUMPDEST DUP3 MSTORE POP POP JUMP JUMPDEST PUSH1 0x0 PUSH1 0xA0 DUP3 ADD SWAP1 POP DUP2 DUP2 SUB PUSH1 0x0 DUP4 ADD MSTORE PUSH2 0x116D DUP2 DUP9 PUSH2 0x10DE JUMP JUMPDEST SWAP1 POP PUSH2 0x117C PUSH1 0x20 DUP4 ADD DUP8 PUSH2 0xFD7 JUMP JUMPDEST PUSH2 0x1189 PUSH1 0x40 DUP4 ADD DUP7 PUSH2 0x1129 JUMP JUMPDEST PUSH2 0x1196 PUSH1 0x60 DUP4 ADD DUP6 PUSH2 0x1144 JUMP JUMPDEST PUSH2 0x11A3 PUSH1 0x80 DUP4 ADD DUP5 PUSH2 0xFD7 JUMP JUMPDEST SWAP7 SWAP6 POP POP POP POP POP POP JUMP JUMPDEST PUSH1 0x0 DUP1 REVERT JUMPDEST PUSH1 0x0 DUP1 REVERT JUMPDEST PUSH32 0x4E487B7100000000000000000000000000000000000000000000000000000000 PUSH1 0x0 MSTORE PUSH1 0x41 PUSH1 0x4 MSTORE PUSH1 0x24 PUSH1 0x0 REVERT JUMPDEST PUSH2 0x11EF DUP3 PUSH2 0x10CD JUMP JUMPDEST DUP2 ADD DUP2 DUP2 LT PUSH8 0xFFFFFFFFFFFFFFFF DUP3 GT OR ISZERO PUSH2 0x120E JUMPI PUSH2 0x120D PUSH2 0x11B7 JUMP JUMPDEST JUMPDEST DUP1 PUSH1 0x40 MSTORE POP POP POP JUMP JUMPDEST PUSH1 0x0 PUSH2 0x1221 PUSH2 0xED5 JUMP JUMPDEST SWAP1 POP PUSH2 0x122D DUP3 DUP3 PUSH2 0x11E6 JUMP JUMPDEST SWAP2 SWAP1 POP JUMP JUMPDEST PUSH1 0x0 PUSH8 0xFFFFFFFFFFFFFFFF DUP3 GT ISZERO PUSH2 0x124D JUMPI PUSH2 0x124C PUSH2 0x11B7 JUMP JUMPDEST JUMPDEST PUSH2 0x1256 DUP3 PUSH2 0x10CD JUMP JUMPDEST SWAP1 POP PUSH1 0x20 DUP2 ADD SWAP1 POP SWAP2 SWAP1 POP JUMP JUMPDEST DUP3 DUP2 DUP4 CALLDATACOPY PUSH1 0x0 DUP4 DUP4 ADD MSTORE POP POP POP JUMP JUMPDEST PUSH1 0x0 PUSH2 0x1285 PUSH2 0x1280 DUP5 PUSH2 0x1232 JUMP JUMPDEST PUSH2 0x1217 JUMP JUMPDEST SWAP1 POP DUP3 DUP2 MSTORE PUSH1 0x20 DUP2 ADD DUP5 DUP5 DUP5 ADD GT ISZERO PUSH2 0x12A1 JUMPI PUSH2 0x12A0 PUSH2 0x11B2 JUMP JUMPDEST JUMPDEST PUSH2 0x12AC DUP5 DUP3 DUP6 PUSH2 0x1263 JUMP JUMPDEST POP SWAP4 SWAP3 POP POP POP JUMP JUMPDEST PUSH1 0x0 DUP3 PUSH1 0x1F DUP4 ADD SLT PUSH2 0x12C9 JUMPI PUSH2 0x12C8 PUSH2 0x11AD JUMP JUMPDEST JUMPDEST DUP2 CALLDATALOAD PUSH2 0x12D9 DUP5 DUP3 PUSH1 0x20 DUP7 ADD PUSH2 0x1272 JUMP JUMPDEST SWAP2 POP POP SWAP3 SWAP2 POP POP JUMP JUMPDEST PUSH2 0x12EB DUP2 PUSH2 0x1117 JUMP JUMPDEST DUP2 EQ PUSH2 0x12F6 JUMPI PUSH1 0x0 DUP1 REVERT JUMPDEST POP JUMP JUMPDEST PUSH1 0x0 DUP2 CALLDATALOAD SWAP1 POP PUSH2 0x1308 DUP2 PUSH2 0x12E2 JUMP JUMPDEST SWAP3 SWAP2 POP POP JUMP JUMPDEST PUSH1 0x0 DUP1 PUSH1 0x0 PUSH1 0x60 DUP5 DUP7 SUB SLT ISZERO PUSH2 0x1327 JUMPI PUSH2 0x1326 PUSH2 0xEDF JUMP JUMPDEST JUMPDEST PUSH1 0x0 DUP5 ADD CALLDATALOAD PUSH8 0xFFFFFFFFFFFFFFFF DUP2 GT ISZERO PUSH2 0x1345 JUMPI PUSH2 0x1344 PUSH2 0xEE4 JUMP JUMPDEST JUMPDEST PUSH2 0x1351 DUP7 DUP3 DUP8 ADD PUSH2 0x12B4 JUMP JUMPDEST SWAP4 POP POP PUSH1 0x20 PUSH2 0x1362 DUP7 DUP3 DUP8 ADD PUSH2 0xF0A JUMP JUMPDEST SWAP3 POP POP PUSH1 0x40 PUSH2 0x1373 DUP7 DUP3 DUP8 ADD PUSH2 0x12F9 JUMP JUMPDEST SWAP2 POP POP SWAP3 POP SWAP3 POP SWAP3 JUMP JUMPDEST PUSH32 0x596F752073686F756C6420656E74657220746865206D696E2076616C75652100 PUSH1 0x0 DUP3 ADD MSTORE POP JUMP JUMPDEST PUSH1 0x0 PUSH2 0x13B3 PUSH1 0x1F DUP4 PUSH2 0x1089 JUMP JUMPDEST SWAP2 POP PUSH2 0x13BE DUP3 PUSH2 0x137D JUMP JUMPDEST PUSH1 0x20 DUP3 ADD SWAP1 POP SWAP2 SWAP1 POP JUMP JUMPDEST PUSH1 0x0 PUSH1 0x20 DUP3 ADD SWAP1 POP DUP2 DUP2 SUB PUSH1 0x0 DUP4 ADD MSTORE PUSH2 0x13E2 DUP2 PUSH2 0x13A6 JUMP JUMPDEST SWAP1 POP SWAP2 SWAP1 POP JUMP JUMPDEST PUSH32 0x4E487B7100000000000000000000000000000000000000000000000000000000 PUSH1 0x0 MSTORE PUSH1 0x11 PUSH1 0x4 MSTORE PUSH1 0x24 PUSH1 0x0 REVERT JUMPDEST PUSH1 0x0 PUSH2 0x1423 DUP3 PUSH2 0xEE9 JUMP JUMPDEST SWAP2 POP PUSH32 0xFFFFFFFFFFFFFFFFFFFFFFFFFFFFFFFFFFFFFFFFFFFFFFFFFFFFFFFFFFFFFFFF DUP3 SUB PUSH2 0x1455 JUMPI PUSH2 0x1454 PUSH2 0x13E9 JUMP JUMPDEST JUMPDEST PUSH1 0x1 DUP3 ADD SWAP1 POP SWAP2 SWAP1 POP JUMP JUMPDEST PUSH1 0x0 PUSH2 0x146B DUP3 PUSH2 0xEE9 JUMP JUMPDEST SWAP2 POP PUSH2 0x1476 DUP4 PUSH2 0xEE9 JUMP JUMPDEST SWAP3 POP DUP3 PUSH32 0xFFFFFFFFFFFFFFFFFFFFFFFFFFFFFFFFFFFFFFFFFFFFFFFFFFFFFFFFFFFFFFFF SUB DUP3 GT ISZERO PUSH2 0x14AB JUMPI PUSH2 0x14AA PUSH2 0x13E9 JUMP JUMPDEST JUMPDEST DUP3 DUP3 ADD SWAP1 POP SWAP3 SWAP2 POP POP JUMP JUMPDEST PUSH1 0x0 PUSH1 0x40 DUP3 ADD SWAP1 POP PUSH2 0x14CB PUSH1 0x0 DUP4 ADD DUP6 PUSH2 0x1001 JUMP JUMPDEST PUSH2 0x14D8 PUSH1 0x20 DUP4 ADD DUP5 PUSH2 0xFD7 JUMP JUMPDEST SWAP4 SWAP3 POP POP POP JUMP JUMPDEST PUSH32 0x596F7520617265206E6F7420746865206D616E616765722E0000000000000000 PUSH1 0x0 DUP3 ADD MSTORE POP JUMP JUMPDEST PUSH1 0x0 PUSH2 0x1515 PUSH1 0x18 DUP4 PUSH2 0x1089 JUMP JUMPDEST SWAP2 POP PUSH2 0x1520 DUP3 PUSH2 0x14DF JUMP JUMPDEST PUSH1 0x20 DUP3 ADD SWAP1 POP SWAP2 SWAP1 POP JUMP JUMPDEST PUSH1 0x0 PUSH1 0x20 DUP3 ADD SWAP1 POP DUP2 DUP2 SUB PUSH1 0x0 DUP4 ADD MSTORE PUSH2 0x1544 DUP2 PUSH2 0x1508 JUMP JUMPDEST SWAP1 POP SWAP2 SWAP1 POP JUMP JUMPDEST PUSH32 0x576520646F6E27742072656163682074686520676F616C000000000000000000 PUSH1 0x0 DUP3 ADD MSTORE POP JUMP JUMPDEST PUSH1 0x0 PUSH2 0x1581 PUSH1 0x17 DUP4 PUSH2 0x1089 JUMP JUMPDEST SWAP2 POP PUSH2 0x158C DUP3 PUSH2 0x154B JUMP JUMPDEST PUSH1 0x20 DUP3 ADD SWAP1 POP SWAP2 SWAP1 POP JUMP JUMPDEST PUSH1 0x0 PUSH1 0x20 DUP3 ADD SWAP1 POP DUP2 DUP2 SUB PUSH1 0x0 DUP4 ADD MSTORE PUSH2 0x15B0 DUP2 PUSH2 0x1574 JUMP JUMPDEST SWAP1 POP SWAP2 SWAP1 POP JUMP JUMPDEST PUSH32 0x54686973207265717565737420697320616C726561647920636F6D706C657465 PUSH1 0x0 DUP3 ADD MSTORE POP JUMP JUMPDEST PUSH1 0x0 PUSH2 0x15ED PUSH1 0x20 DUP4 PUSH2 0x1089 JUMP JUMPDEST SWAP2 POP PUSH2 0x15F8 DUP3 PUSH2 0x15B7 JUMP JUMPDEST PUSH1 0x20 DUP3 ADD SWAP1 POP SWAP2 SWAP1 POP JUMP JUMPDEST PUSH1 0x0 PUSH1 0x20 DUP3 ADD SWAP1 POP DUP2 DUP2 SUB PUSH1 0x0 DUP4 ADD MSTORE PUSH2 0x161C DUP2 PUSH2 0x15E0 JUMP JUMPDEST SWAP1 POP SWAP2 SWAP1 POP JUMP JUMPDEST PUSH32 0x4E487B7100000000000000000000000000000000000000000000000000000000 PUSH1 0x0 MSTORE PUSH1 0x12 PUSH1 0x4 MSTORE PUSH1 0x24 PUSH1 0x0 REVERT JUMPDEST PUSH1 0x0 PUSH2 0x165D DUP3 PUSH2 0xEE9 JUMP JUMPDEST SWAP2 POP PUSH2 0x1668 DUP4 PUSH2 0xEE9 JUMP JUMPDEST SWAP3 POP DUP3 PUSH2 0x1678 JUMPI PUSH2 0x1677 PUSH2 0x1623 JUMP JUMPDEST JUMPDEST DUP3 DUP3 DIV SWAP1 POP SWAP3 SWAP2 POP POP JUMP JUMPDEST PUSH32 0x4E6F7420737566696369656E74206E756D626572206F6620766F746572732100 PUSH1 0x0 DUP3 ADD MSTORE POP JUMP JUMPDEST PUSH1 0x0 PUSH2 0x16B9 PUSH1 0x1F DUP4 PUSH2 0x1089 JUMP JUMPDEST SWAP2 POP PUSH2 0x16C4 DUP3 PUSH2 0x1683 JUMP JUMPDEST PUSH1 0x20 DUP3 ADD SWAP1 POP SWAP2 SWAP1 POP JUMP JUMPDEST PUSH1 0x0 PUSH1 0x20 DUP3 ADD SWAP1 POP DUP2 DUP2 SUB PUSH1 0x0 DUP4 ADD MSTORE PUSH2 0x16E8 DUP2 PUSH2 0x16AC JUMP JUMPDEST SWAP1 POP SWAP2 SWAP1 POP JUMP JUMPDEST PUSH1 0x0 DUP2 SWAP1 POP SWAP2 SWAP1 POP JUMP JUMPDEST PUSH1 0x0 PUSH2 0x1714 PUSH2 0x170F PUSH2 0x170A DUP5 PUSH2 0xF4C JUMP JUMPDEST PUSH2 0x16EF JUMP JUMPDEST PUSH2 0xF4C JUMP JUMPDEST SWAP1 POP SWAP2 SWAP1 POP JUMP JUMPDEST PUSH1 0x0 PUSH2 0x1726 DUP3 PUSH2 0x16F9 JUMP JUMPDEST SWAP1 POP SWAP2 SWAP1 POP JUMP JUMPDEST PUSH1 0x0 PUSH2 0x1738 DUP3 PUSH2 0x171B JUMP JUMPDEST SWAP1 POP SWAP2 SWAP1 POP JUMP JUMPDEST PUSH2 0x1748 DUP2 PUSH2 0x172D JUMP JUMPDEST DUP3 MSTORE POP POP JUMP JUMPDEST PUSH1 0x0 PUSH1 0x40 DUP3 ADD SWAP1 POP PUSH2 0x1763 PUSH1 0x0 DUP4 ADD DUP6 PUSH2 0x173F JUMP JUMPDEST PUSH2 0x1770 PUSH1 0x20 DUP4 ADD DUP5 PUSH2 0xFD7 JUMP JUMPDEST SWAP4 SWAP3 POP POP POP JUMP JUMPDEST PUSH32 0x4E487B7100000000000000000000000000000000000000000000000000000000 PUSH1 0x0 MSTORE PUSH1 0x22 PUSH1 0x4 MSTORE PUSH1 0x24 PUSH1 0x0 REVERT JUMPDEST PUSH1 0x0 PUSH1 0x2 DUP3 DIV SWAP1 POP PUSH1 0x1 DUP3 AND DUP1 PUSH2 0x17BE JUMPI PUSH1 0x7F DUP3 AND SWAP2 POP JUMPDEST PUSH1 0x20 DUP3 LT DUP2 SUB PUSH2 0x17D1 JUMPI PUSH2 0x17D0 PUSH2 0x1777 JUMP JUMPDEST JUMPDEST POP SWAP2 SWAP1 POP JUMP JUMPDEST PUSH1 0x0 PUSH1 0x60 DUP3 ADD SWAP1 POP DUP2 DUP2 SUB PUSH1 0x0 DUP4 ADD MSTORE PUSH2 0x17F1 DUP2 DUP7 PUSH2 0x10DE JUMP JUMPDEST SWAP1 POP PUSH2 0x1800 PUSH1 0x20 DUP4 ADD DUP6 PUSH2 0x173F JUMP JUMPDEST PUSH2 0x180D PUSH1 0x40 DUP4 ADD DUP5 PUSH2 0xFD7 JUMP JUMPDEST SWAP5 SWAP4 POP POP POP POP JUMP JUMPDEST PUSH32 0x446561646C696E6520686173207061737365642E000000000000000000000000 PUSH1 0x0 DUP3 ADD MSTORE POP JUMP JUMPDEST PUSH1 0x0 PUSH2 0x184B PUSH1 0x14 DUP4 PUSH2 0x1089 JUMP JUMPDEST SWAP2 POP PUSH2 0x1856 DUP3 PUSH2 0x1815 JUMP JUMPDEST PUSH1 0x20 DUP3 ADD SWAP1 POP SWAP2 SWAP1 POP JUMP JUMPDEST PUSH1 0x0 PUSH1 0x20 DUP3 ADD SWAP1 POP DUP2 DUP2 SUB PUSH1 0x0 DUP4 ADD MSTORE PUSH2 0x187A DUP2 PUSH2 0x183E JUMP JUMPDEST SWAP1 POP SWAP2 SWAP1 POP JUMP JUMPDEST PUSH32 0x54686520676F616C20776173206E6F7420726561636821000000000000000000 PUSH1 0x0 DUP3 ADD MSTORE POP JUMP JUMPDEST PUSH1 0x0 PUSH2 0x18B7 PUSH1 0x17 DUP4 PUSH2 0x1089 JUMP JUMPDEST SWAP2 POP PUSH2 0x18C2 DUP3 PUSH2 0x1881 JUMP JUMPDEST PUSH1 0x20 DUP3 ADD SWAP1 POP SWAP2 SWAP1 POP JUMP JUMPDEST PUSH1 0x0 PUSH1 0x20 DUP3 ADD SWAP1 POP DUP2 DUP2 SUB PUSH1 0x0 DUP4 ADD MSTORE PUSH2 0x18E6 DUP2 PUSH2 0x18AA JUMP JUMPDEST SWAP1 POP SWAP2 SWAP1 POP JUMP JUMPDEST PUSH32 0x596F7520617265206E6F742061207061727469636970616E7400000000000000 PUSH1 0x0 DUP3 ADD MSTORE POP JUMP JUMPDEST PUSH1 0x0 PUSH2 0x1923 PUSH1 0x19 DUP4 PUSH2 0x1089 JUMP JUMPDEST SWAP2 POP PUSH2 0x192E DUP3 PUSH2 0x18ED JUMP JUMPDEST PUSH1 0x20 DUP3 ADD SWAP1 POP SWAP2 SWAP1 POP JUMP JUMPDEST PUSH1 0x0 PUSH1 0x20 DUP3 ADD SWAP1 POP DUP2 DUP2 SUB PUSH1 0x0 DUP4 ADD MSTORE PUSH2 0x1952 DUP2 PUSH2 0x1916 JUMP JUMPDEST SWAP1 POP SWAP2 SWAP1 POP JUMP JUMPDEST PUSH32 0x596F75206D7573742062652061207061727469636970616E7420746F20626520 PUSH1 0x0 DUP3 ADD MSTORE PUSH32 0x61626C6520746F20766F74650000000000000000000000000000000000000000 PUSH1 0x20 DUP3 ADD MSTORE POP JUMP JUMPDEST PUSH1 0x0 PUSH2 0x19B5 PUSH1 0x2C DUP4 PUSH2 0x1089 JUMP JUMPDEST SWAP2 POP PUSH2 0x19C0 DUP3 PUSH2 0x1959 JUMP JUMPDEST PUSH1 0x40 DUP3 ADD SWAP1 POP SWAP2 SWAP1 POP JUMP JUMPDEST PUSH1 0x0 PUSH1 0x20 DUP3 ADD SWAP1 POP DUP2 DUP2 SUB PUSH1 0x0 DUP4 ADD MSTORE PUSH2 0x19E4 DUP2 PUSH2 0x19A8 JUMP JUMPDEST SWAP1 POP SWAP2 SWAP1 POP JUMP JUMPDEST PUSH32 0x596F7520616C726561647920766F746564210000000000000000000000000000 PUSH1 0x0 DUP3 ADD MSTORE POP JUMP JUMPDEST PUSH1 0x0 PUSH2 0x1A21 PUSH1 0x12 DUP4 PUSH2 0x1089 JUMP JUMPDEST SWAP2 POP PUSH2 0x1A2C DUP3 PUSH2 0x19EB JUMP JUMPDEST PUSH1 0x20 DUP3 ADD SWAP1 POP SWAP2 SWAP1 POP JUMP JUMPDEST PUSH1 0x0 PUSH1 0x20 DUP3 ADD SWAP1 POP DUP2 DUP2 SUB PUSH1 0x0 DUP4 ADD MSTORE PUSH2 0x1A50 DUP2 PUSH2 0x1A14 JUMP JUMPDEST SWAP1 POP SWAP2 SWAP1 POP JUMP INVALID LOG2 PUSH5 0x6970667358 0x22 SLT KECCAK256 PUSH8 0xEC27B694FA9C24EE PUSH6 0x3C6060DE75A8 0xCB 0x2E SWAP8 LOG2 INVALID 0xBA 0x21 SWAP16 0xAC XOR 0xCF RETURNDATACOPY TIMESTAMP PUSH25 0x415564736F6C634300080D0033000000000000000000000000 "},"gasEstimates":{"creation":{"codeDepositCost":"1359400","executionCost":"infinite","totalCost":"infinite"},"external":{"approveRequest(uint256)":"infinite","contribute()":"infinite","createRequest(string,uint256,address)":"infinite","deadline()":"2519","finalizeRequest(uint256)":"infinite","getBalance()":"407","getRefund()":"infinite","getSummary()":"infinite","goal()":"2452","manager()":"2600","minimumContribution()":"2496","numRequests()":"2518","numberOfContributors()":"2496","participants(address)":"2860","raisedAmount()":"2473","requests(uint256)":"infinite"}},"methodIdentifiers":{"approveRequest(uint256)":"d7d1bbdb","contribute()":"d7bb99ba","createRequest(string,uint256,address)":"8a9cfd55","deadline()":"29dcb0cf","finalizeRequest(uint256)":"03441006","getBalance()":"12065fe0","getRefund()":"b2d5ae44","getSummary()":"4051ddac","goal()":"40193883","manager()":"481c6a75","minimumContribution()":"937e09b1","numRequests()":"9fb42b1f","numberOfContributors()":"4377cf65","participants(address)":"09e69ede","raisedAmount()":"c59ee1dc","requests(uint256)":"81d12c58"}},"storageLayout":{"storage":[{"astId":78,"contract":"Campaign.sol:Campaign","label":"manager","offset":0,"slot":"0","type":"t_address"},{"astId":80,"contract":"Campaign.sol:Campaign","label":"minimumContribution","offset":0,"slot":"1","type":"t_uint256"},{"astId":82,"contract":"Campaign.sol:Campaign","label":"goal","offset":0,"slot":"2","type":"t_uint256"},{"astId":84,"contract":"Campaign.sol:Campaign","label":"raisedAmount","offset":0,"slot":"3","type":"t_uint256"},{"astId":86,"contract":"Campaign.sol:Campaign","label":"numberOfContributors","offset":0,"slot":"4","type":"t_uint256"},{"astId":88,"contract":"Campaign.sol:Campaign","label":"deadline","offset":0,"slot":"5","type":"t_uint256"},{"astId":90,"contract":"Campaign.sol:Campaign","label":"numRequests","offset":0,"slot":"6","type":"t_uint256"},{"astId":109,"contract":"Campaign.sol:Campaign","label":"participants","offset":0,"slot":"7","type":"t_mapping(t_address,t_uint256)"},{"astId":114,"contract":"Campaign.sol:Campaign","label":"requests","offset":0,"slot":"8","type":"t_mapping(t_uint256,t_struct(Request)105_storage)"}],"types":{"t_address":{"encoding":"inplace","label":"address","numberOfBytes":"20"},"t_address_payable":{"encoding":"inplace","label":"address payable","numberOfBytes":"20"},"t_bool":{"encoding":"inplace","label":"bool","numberOfBytes":"1"},"t_mapping(t_address,t_bool)":{"encoding":"mapping","key":"t_address","label":"mapping(address => bool)","numberOfBytes":"32","value":"t_bool"},"t_mapping(t_address,t_uint256)":{"encoding":"mapping","key":"t_address","label":"mapping(address => uint256)","numberOfBytes":"32","value":"t_uint256"},"t_mapping(t_uint256,t_struct(Request)105_storage)":{"encoding":"mapping","key":"t_uint256","label":"mapping(uint256 => struct Campaign.Request)","numberOfBytes":"32","value":"t_struct(Request)105_storage"},"t_string_storage":{"encoding":"bytes","label":"string","numberOfBytes":"32"},"t_struct(Request)105_storage":{"encoding":"inplace","label":"struct Campaign.Request","members":[{"astId":92,"contract":"Campaign.sol:Campaign","label":"description","offset":0,"slot":"0","type":"t_string_storage"},{"astId":94,"contract":"Campaign.sol:Campaign","label":"value","offset":0,"slot":"1","type":"t_uint256"},{"astId":96,"contract":"Campaign.sol:Campaign","label":"recipient","offset":0,"slot":"2","type":"t_address_payable"},{"astId":98,"contract":"Campaign.sol:Campaign","label":"complete","offset":20,"slot":"2","type":"t_bool"},{"astId":100,"contract":"Campaign.sol:Campaign","label":"numberOfVoters","offset":0,"slot":"3","type":"t_uint256"},{"astId":104,"contract":"Campaign.sol:Campaign","label":"voters","offset":0,"slot":"4","type":"t_mapping(t_address,t_bool)"}],"numberOfBytes":"160"},"t_uint256":{"encoding":"inplace","label":"uint256","numberOfBytes":"32"}}},"userdoc":{"kind":"user","methods":{},"version":1}}